{
  "_format": "hh-sol-artifact-1",
  "contractName": "ZoraCreatorFixedPriceSaleStrategy",
  "sourceName": "contracts/zora/minters/fixed-price/ZoraCreatorFixedPriceSaleStrategy.sol",
  "abi": [
    {
      "inputs": [],
      "name": "CallerNotZoraCreator1155",
      "type": "error"
    },
    {
      "inputs": [
        {
          "internalType": "address",
          "name": "mintTo",
          "type": "address"
        },
        {
          "internalType": "bytes32[]",
          "name": "merkleProof",
          "type": "bytes32[]"
        },
        {
          "internalType": "bytes32",
          "name": "merkleRoot",
          "type": "bytes32"
        }
      ],
      "name": "InvalidMerkleProof",
      "type": "error"
    },
    {
      "inputs": [],
      "name": "MinterContractAlreadyExists",
      "type": "error"
    },
    {
      "inputs": [],
      "name": "MinterContractDoesNotExist",
      "type": "error"
    },
    {
      "inputs": [],
      "name": "SaleEnded",
      "type": "error"
    },
    {
      "inputs": [],
      "name": "SaleHasNotStarted",
      "type": "error"
    },
    {
      "inputs": [
        {
          "internalType": "address",
          "name": "user",
          "type": "address"
        },
        {
          "internalType": "uint256",
          "name": "limit",
          "type": "uint256"
        },
        {
          "internalType": "uint256",
          "name": "requestedAmount",
          "type": "uint256"
        }
      ],
      "name": "UserExceedsMintLimit",
      "type": "error"
    },
    {
      "inputs": [],
      "name": "WrongValueSent",
      "type": "error"
    },
    {
      "anonymous": false,
      "inputs": [
        {
          "indexed": true,
          "internalType": "address",
          "name": "sender",
          "type": "address"
        },
        {
          "indexed": true,
          "internalType": "address",
          "name": "tokenContract",
          "type": "address"
        },
        {
          "indexed": true,
          "internalType": "uint256",
          "name": "tokenId",
          "type": "uint256"
        },
        {
          "indexed": false,
          "internalType": "uint256",
          "name": "quantity",
          "type": "uint256"
        },
        {
          "indexed": false,
          "internalType": "string",
          "name": "comment",
          "type": "string"
        }
      ],
      "name": "MintComment",
      "type": "event"
    },
    {
      "anonymous": false,
      "inputs": [
        {
          "indexed": true,
          "internalType": "address",
          "name": "mediaContract",
          "type": "address"
        },
        {
          "indexed": true,
          "internalType": "uint256",
          "name": "tokenId",
          "type": "uint256"
        },
        {
          "components": [
            {
              "internalType": "uint64",
              "name": "saleStart",
              "type": "uint64"
            },
            {
              "internalType": "uint64",
              "name": "saleEnd",
              "type": "uint64"
            },
            {
              "internalType": "uint64",
              "name": "maxTokensPerAddress",
              "type": "uint64"
            },
            {
              "internalType": "uint96",
              "name": "pricePerToken",
              "type": "uint96"
            },
            {
              "internalType": "address",
              "name": "fundsRecipient",
              "type": "address"
            }
          ],
          "indexed": false,
          "internalType": "struct ZoraCreatorFixedPriceSaleStrategy.SalesConfig",
          "name": "salesConfig",
          "type": "tuple"
        }
      ],
      "name": "SaleSet",
      "type": "event"
    },
    {
      "inputs": [],
      "name": "contractName",
      "outputs": [
        {
          "internalType": "string",
          "name": "",
          "type": "string"
        }
      ],
      "stateMutability": "pure",
      "type": "function"
    },
    {
      "inputs": [],
      "name": "contractURI",
      "outputs": [
        {
          "internalType": "string",
          "name": "",
          "type": "string"
        }
      ],
      "stateMutability": "pure",
      "type": "function"
    },
    {
      "inputs": [],
      "name": "contractVersion",
      "outputs": [
        {
          "internalType": "string",
          "name": "",
          "type": "string"
        }
      ],
      "stateMutability": "pure",
      "type": "function"
    },
    {
      "inputs": [
        {
          "internalType": "address",
          "name": "tokenContract",
          "type": "address"
        },
        {
          "internalType": "uint256",
          "name": "tokenId",
          "type": "uint256"
        },
        {
          "internalType": "address",
          "name": "wallet",
          "type": "address"
        }
      ],
      "name": "getMintedPerWallet",
      "outputs": [
        {
          "internalType": "uint256",
          "name": "",
          "type": "uint256"
        }
      ],
      "stateMutability": "view",
      "type": "function"
    },
    {
      "inputs": [
        {
          "internalType": "address",
          "name": "",
          "type": "address"
        },
        {
          "internalType": "uint256",
          "name": "tokenId",
          "type": "uint256"
        },
        {
          "internalType": "uint256",
          "name": "quantity",
          "type": "uint256"
        },
        {
          "internalType": "uint256",
          "name": "ethValueSent",
          "type": "uint256"
        },
        {
          "internalType": "bytes",
          "name": "minterArguments",
          "type": "bytes"
        }
      ],
      "name": "requestMint",
      "outputs": [
        {
          "components": [
            {
              "components": [
                {
                  "internalType": "enum ICreatorCommands.CreatorActions",
                  "name": "method",
                  "type": "uint8"
                },
                {
                  "internalType": "bytes",
                  "name": "args",
                  "type": "bytes"
                }
              ],
              "internalType": "struct ICreatorCommands.Command[]",
              "name": "commands",
              "type": "tuple[]"
            },
            {
              "internalType": "uint256",
              "name": "at",
              "type": "uint256"
            }
          ],
          "internalType": "struct ICreatorCommands.CommandSet",
          "name": "commands",
          "type": "tuple"
        }
      ],
      "stateMutability": "nonpayable",
      "type": "function"
    },
    {
      "inputs": [
        {
          "internalType": "uint256",
          "name": "tokenId",
          "type": "uint256"
        }
      ],
      "name": "resetSale",
      "outputs": [],
      "stateMutability": "nonpayable",
      "type": "function"
    },
    {
      "inputs": [
        {
          "internalType": "address",
          "name": "tokenContract",
          "type": "address"
        },
        {
          "internalType": "uint256",
          "name": "tokenId",
          "type": "uint256"
        }
      ],
      "name": "sale",
      "outputs": [
        {
          "components": [
            {
              "internalType": "uint64",
              "name": "saleStart",
              "type": "uint64"
            },
            {
              "internalType": "uint64",
              "name": "saleEnd",
              "type": "uint64"
            },
            {
              "internalType": "uint64",
              "name": "maxTokensPerAddress",
              "type": "uint64"
            },
            {
              "internalType": "uint96",
              "name": "pricePerToken",
              "type": "uint96"
            },
            {
              "internalType": "address",
              "name": "fundsRecipient",
              "type": "address"
            }
          ],
          "internalType": "struct ZoraCreatorFixedPriceSaleStrategy.SalesConfig",
          "name": "",
          "type": "tuple"
        }
      ],
      "stateMutability": "view",
      "type": "function"
    },
    {
      "inputs": [
        {
          "internalType": "uint256",
          "name": "tokenId",
          "type": "uint256"
        },
        {
          "components": [
            {
              "internalType": "uint64",
              "name": "saleStart",
              "type": "uint64"
            },
            {
              "internalType": "uint64",
              "name": "saleEnd",
              "type": "uint64"
            },
            {
              "internalType": "uint64",
              "name": "maxTokensPerAddress",
              "type": "uint64"
            },
            {
              "internalType": "uint96",
              "name": "pricePerToken",
              "type": "uint96"
            },
            {
              "internalType": "address",
              "name": "fundsRecipient",
              "type": "address"
            }
          ],
          "internalType": "struct ZoraCreatorFixedPriceSaleStrategy.SalesConfig",
          "name": "salesConfig",
          "type": "tuple"
        }
      ],
      "name": "setSale",
      "outputs": [],
      "stateMutability": "nonpayable",
      "type": "function"
    },
    {
      "inputs": [
        {
          "internalType": "bytes4",
          "name": "interfaceId",
          "type": "bytes4"
        }
      ],
      "name": "supportsInterface",
      "outputs": [
        {
          "internalType": "bool",
          "name": "",
          "type": "bool"
        }
      ],
      "stateMutability": "pure",
      "type": "function"
    }
  ],
  "bytecode": "0x608060405234801561001057600080fd5b50610e23806100206000396000f3fe608060405234801561001057600080fd5b50600436106100835760003560e01c806301ffc9a71461008857806319b45c4f146100b057806334db7eee146100c5578063611efc09146100d85780636890e5b3146101a357806375d0c0dc146101c35780637b49ff2c14610201578063a0a8e4601461024e578063e8a3d4851461026f575b600080fd5b61009b610096366004610852565b610277565b60405190151581526020015b60405180910390f35b6100c36100be366004610883565b6102a6565b005b6100c36100d336600461093e565b610315565b6101966100e63660046109de565b6040805160a081018252600080825260208201819052918101829052606081018290526080810191909152506001600160a01b038083166000908152600160208181526040808420868552825292839020835160a08101855281546001600160401b038082168352600160401b8204811694830194909452600160801b9004909216938201939093529101546001600160601b0381166060830152600160601b9004909116608082015292915050565b6040516100a79190610a0a565b6101b66101b1366004610a61565b6103d4565b6040516100a79190610b47565b60408051808201909152601981527846697865642050726963652053616c6520537472617465677960381b60208201525b6040516100a79190610bed565b61024061020f366004610c00565b6001600160a01b03928316600090815260208181526040808320948352938152838220929094168152925290205490565b6040519081526020016100a7565b6040805180820190915260058152640312e312e360dc1b60208201526101f4565b6101f46105d7565b6000610282826105f7565b806102915750610291826105f7565b806102a057506102a08261060d565b92915050565b336000818152600160208181526040808420868552825280842080546001600160c01b03191681559092018390558151838152908101839052908101829052606081018290526080810191909152829190600080516020610dce8339815191529060a00160405180910390a350565b3360008181526001602081815260408084208785528252928390208551815492870151858801516001600160401b03908116600160801b02600160801b600160c01b0319928216600160401b026001600160801b031990961691909316179390931792909216919091178155606085015160808601516001600160a01b0316600160601b026001600160601b039091161791015551839190600080516020610dce833981519152906103c8908590610a0a565b60405180910390a35050565b6040805180820190915260608152600060208201526040805160208082019092526000808252918490036104155761040e84860186610c42565b9150610427565b61042184860186610c5f565b90925090505b3360009081526001602090815260408083208b845290915290208054600160401b90046001600160401b031642111561047357604051630bd8a3eb60e01b815260040160405180910390fd5b80546001600160401b031642101561049e576040516374626dc160e11b815260040160405180910390fd5b600181015487906104b9908a906001600160601b0316610d1c565b146104d757604051632f4613eb60e01b815260040160405180910390fd5b8054600160801b90046001600160401b03161561050d57805461050d90600160801b90046001600160401b031689338c87610643565b6001810154600160601b90046001600160a01b0316151561054081610533576001610536565b60025b869060ff16610713565b61054c85858c8c610778565b8251156105a25789336001600160a01b0316856001600160a01b03167fb9490aee663998179ad13f9e1c1eb6189c71ad1a9ec87f33ad2766f98d9a268a8c87604051610599929190610d33565b60405180910390a45b80156105c95760018201546105c9908690600160601b90046001600160a01b03168a6107e1565b505050509695505050505050565b60606040518060600160405280602f8152602001610d9f602f9139905090565b6001600160e01b031916631ed27fcb60e21b1490565b60006001600160e01b03198216636890e5b360e01b14806102a057506001600160e01b031982166301ffc9a760e01b1492915050565b6001600160a01b03808416600090815260208181526040808320868452825280832093851683529290529081208054869290610680908490610d54565b90915550506001600160a01b0380841660009081526020818152604080832086845282528083209385168352929052205485101561070c576001600160a01b03808416600090815260208181526040808320868452825280832093851683529290528190205490516338b6455960e21b8152610703918391889190600401610d67565b60405180910390fd5b5050505050565b806001600160401b0381111561072b5761072b61089c565b60405190808252806020026020018201604052801561077157816020015b6040805180820190915260008152606060208201528152602001906001900390816107495790505b5090915250565b60408051808201909152806002815260200184848460405160200161079f93929190610d67565b60408051601f198184030181529190529052845160208601805160018101909152815181106107d0576107d0610d88565b602002602001018190525050505050565b6040805180820182526001815281516001600160a01b038516602082810191909152928101849052909182019060600160408051601f1981840301815291905290528351602085018051600181019091528151811061084257610842610d88565b6020026020010181905250505050565b60006020828403121561086457600080fd5b81356001600160e01b03198116811461087c57600080fd5b9392505050565b60006020828403121561089557600080fd5b5035919050565b634e487b7160e01b600052604160045260246000fd5b60405160a081016001600160401b03811182821017156108d4576108d461089c565b60405290565b604051601f8201601f191681016001600160401b03811182821017156109025761090261089c565b604052919050565b80356001600160401b038116811461092157600080fd5b919050565b6001600160a01b038116811461093b57600080fd5b50565b60008082840360c081121561095257600080fd5b8335925060a0601f198201121561096857600080fd5b506109716108b2565b61097d6020850161090a565b815261098b6040850161090a565b602082015261099c6060850161090a565b604082015260808401356001600160601b03811681146109bb57600080fd5b606082015260a08401356109ce81610926565b6080820152919491935090915050565b600080604083850312156109f157600080fd5b82356109fc81610926565b946020939093013593505050565b81516001600160401b039081168252602080840151821690830152604083810151909116908201526060808301516001600160601b0316908201526080918201516001600160a01b03169181019190915260a00190565b60008060008060008060a08789031215610a7a57600080fd5b8635610a8581610926565b955060208701359450604087013593506060870135925060808701356001600160401b0380821115610ab657600080fd5b818901915089601f830112610aca57600080fd5b813581811115610ad957600080fd5b8a6020828501011115610aeb57600080fd5b6020830194508093505050509295509295509295565b6000815180845260005b81811015610b2757602081850181015186830182015201610b0b565b506000602082860101526020601f19601f83011685010191505092915050565b600060208083526060830184516040808487015282825180855260808801915060808160051b890101945085840193506000805b82811015610bd657898703607f190184528551805160038110610bac57634e487b7160e01b84526021600452602484fd5b8852880151888801869052610bc386890182610b01565b9750509487019492870192600101610b7b565b505050509290950151939091019290925250919050565b60208152600061087c6020830184610b01565b600080600060608486031215610c1557600080fd5b8335610c2081610926565b9250602084013591506040840135610c3781610926565b809150509250925092565b600060208284031215610c5457600080fd5b813561087c81610926565b60008060408385031215610c7257600080fd5b8235610c7d81610926565b91506020838101356001600160401b0380821115610c9a57600080fd5b818601915086601f830112610cae57600080fd5b813581811115610cc057610cc061089c565b610cd2601f8201601f191685016108da565b91508082528784828501011115610ce857600080fd5b80848401858401376000848284010152508093505050509250929050565b634e487b7160e01b600052601160045260246000fd5b80820281158282048414176102a0576102a0610d06565b828152604060208201526000610d4c6040830184610b01565b949350505050565b808201808211156102a0576102a0610d06565b6001600160a01b039390931683526020830191909152604082015260600190565b634e487b7160e01b600052603260045260246000fdfe68747470733a2f2f6769746875622e636f6d2f6f75727a6f72612f7a6f72612d313135352d636f6e7472616374732f5e4ad74f00b9a9d4a8452359a7fbd80cc5a6930a9df5e5b797ddc024b24b252ca2646970667358221220acfd995b82c35fc9c7911f8b0eab18469911a5c5ae6ba4860a6dea41e30e950064736f6c63430008110033",
  "linkReferences": {},
  "deployedLinkReferences": {}
}