{
  "_format": "hh-sol-artifact-1",
  "contractName": "LimitedMintPerAddress",
  "sourceName": "contracts/zora/minters/utils/LimitedMintPerAddress.sol",
  "abi": [
    {
      "inputs": [
        {
          "internalType": "address",
          "name": "user",
          "type": "address"
        },
        {
          "internalType": "uint256",
          "name": "limit",
          "type": "uint256"
        },
        {
          "internalType": "uint256",
          "name": "requestedAmount",
          "type": "uint256"
        }
      ],
      "name": "UserExceedsMintLimit",
      "type": "error"
    },
    {
      "inputs": [
        {
          "internalType": "address",
          "name": "tokenContract",
          "type": "address"
        },
        {
          "internalType": "uint256",
          "name": "tokenId",
          "type": "uint256"
        },
        {
          "internalType": "address",
          "name": "wallet",
          "type": "address"
        }
      ],
      "name": "getMintedPerWallet",
      "outputs": [
        {
          "internalType": "uint256",
          "name": "",
          "type": "uint256"
        }
      ],
      "stateMutability": "view",
      "type": "function"
    },
    {
      "inputs": [
        {
          "internalType": "bytes4",
          "name": "interfaceId",
          "type": "bytes4"
        }
      ],
      "name": "supportsInterface",
      "outputs": [
        {
          "internalType": "bool",
          "name": "",
          "type": "bool"
        }
      ],
      "stateMutability": "pure",
      "type": "function"
    }
  ],
  "bytecode": "0x608060405234801561001057600080fd5b50610180806100206000396000f3fe608060405234801561001057600080fd5b50600436106100365760003560e01c806301ffc9a71461003b5780637b49ff2c14610074575b600080fd5b61005f6100493660046100c1565b6001600160e01b031916631ed27fcb60e21b1490565b60405190151581526020015b60405180910390f35b6100b361008236600461010e565b6001600160a01b03928316600090815260208181526040808320948352938152838220929094168152925290205490565b60405190815260200161006b565b6000602082840312156100d357600080fd5b81356001600160e01b0319811681146100eb57600080fd5b9392505050565b80356001600160a01b038116811461010957600080fd5b919050565b60008060006060848603121561012357600080fd5b61012c846100f2565b925060208401359150610141604085016100f2565b9050925092509256fea2646970667358221220a6a4990138164f28cc74edc0b5ea7e2e11877a9198c54bd3636bfb9a359650df64736f6c63430008110033",
  "linkReferences": {},
  "deployedLinkReferences": {}
}