{
  "_format": "hh-sol-artifact-1",
  "contractName": "ERC1155DelegationStorageV1",
  "sourceName": "contracts/zora/delegation/ERC1155DelegationStorageV1.sol",
  "abi": [
    {
      "inputs": [
        {
          "internalType": "uint32",
          "name": "",
          "type": "uint32"
        }
      ],
      "name": "delegatedTokenId",
      "outputs": [
        {
          "internalType": "uint256",
          "name": "",
          "type": "uint256"
        }
      ],
      "stateMutability": "view",
      "type": "function"
    }
  ],
  "bytecode": "0x608060405234801561001057600080fd5b5060bd8061001f6000396000f3fe6080604052348015600f57600080fd5b506004361060285760003560e01c8063bdd864f214602d575b600080fd5b604a6038366004605c565b60006020819052908152604090205481565b60405190815260200160405180910390f35b600060208284031215606d57600080fd5b813563ffffffff81168114608057600080fd5b939250505056fea26469706673582212205bec20aac51a1bc336e28556e4438109cfd06aa3f9be0efadfd0fa1199ad21de64736f6c63430008110033",
  "linkReferences": {},
  "deployedLinkReferences": {}
}