{
  "_format": "hh-sol-artifact-1",
  "contractName": "ZoraCreatorRedeemMinterStrategy",
  "sourceName": "contracts/zora/minters/redeem/ZoraCreatorRedeemMinterStrategy.sol",
  "abi": [
    {
      "inputs": [],
      "name": "BurnFailed",
      "type": "error"
    },
    {
      "inputs": [],
      "name": "CallerNotCreatorContract",
      "type": "error"
    },
    {
      "inputs": [],
      "name": "EmptyRedeemInstructions",
      "type": "error"
    },
    {
      "inputs": [],
      "name": "IncorrectBurnOrTransferAmount",
      "type": "error"
    },
    {
      "inputs": [],
      "name": "IncorrectMintAmount",
      "type": "error"
    },
    {
      "inputs": [],
      "name": "IncorrectNumberOfTokenIds",
      "type": "error"
    },
    {
      "inputs": [],
      "name": "InvalidCreatorContract",
      "type": "error"
    },
    {
      "inputs": [],
      "name": "InvalidSaleEndOrStart",
      "type": "error"
    },
    {
      "inputs": [],
      "name": "InvalidTokenIdsForTokenType",
      "type": "error"
    },
    {
      "inputs": [],
      "name": "InvalidTokenType",
      "type": "error"
    },
    {
      "inputs": [],
      "name": "MintTokenContractMustBeCreatorContract",
      "type": "error"
    },
    {
      "inputs": [],
      "name": "MintTokenTypeMustBeERC1155",
      "type": "error"
    },
    {
      "inputs": [],
      "name": "MustBurnOrTransfer",
      "type": "error"
    },
    {
      "inputs": [],
      "name": "MustCallClearRedeem",
      "type": "error"
    },
    {
      "inputs": [],
      "name": "RedeemInstructionAlreadySet",
      "type": "error"
    },
    {
      "inputs": [],
      "name": "RedeemInstructionNotAllowed",
      "type": "error"
    },
    {
      "inputs": [],
      "name": "SaleEnded",
      "type": "error"
    },
    {
      "inputs": [],
      "name": "SaleHasNotStarted",
      "type": "error"
    },
    {
      "inputs": [],
      "name": "SenderIsNotTokenOwner",
      "type": "error"
    },
    {
      "inputs": [],
      "name": "TokenIdOutOfRange",
      "type": "error"
    },
    {
      "inputs": [],
      "name": "WrongValueSent",
      "type": "error"
    },
    {
      "anonymous": false,
      "inputs": [
        {
          "indexed": false,
          "internalType": "uint8",
          "name": "version",
          "type": "uint8"
        }
      ],
      "name": "Initialized",
      "type": "event"
    },
    {
      "anonymous": false,
      "inputs": [
        {
          "indexed": true,
          "internalType": "address",
          "name": "target",
          "type": "address"
        },
        {
          "indexed": true,
          "internalType": "bytes32",
          "name": "redeemsInstructionsHash",
          "type": "bytes32"
        },
        {
          "indexed": false,
          "internalType": "address",
          "name": "sender",
          "type": "address"
        },
        {
          "indexed": false,
          "internalType": "uint256[][]",
          "name": "tokenIds",
          "type": "uint256[][]"
        },
        {
          "indexed": false,
          "internalType": "uint256[][]",
          "name": "amounts",
          "type": "uint256[][]"
        }
      ],
      "name": "RedeemProcessed",
      "type": "event"
    },
    {
      "anonymous": false,
      "inputs": [
        {
          "indexed": true,
          "internalType": "address",
          "name": "target",
          "type": "address"
        },
        {
          "indexed": true,
          "internalType": "bytes32",
          "name": "redeemsInstructionsHash",
          "type": "bytes32"
        },
        {
          "components": [
            {
              "components": [
                {
                  "internalType": "address",
                  "name": "tokenContract",
                  "type": "address"
                },
                {
                  "internalType": "uint256",
                  "name": "tokenId",
                  "type": "uint256"
                },
                {
                  "internalType": "uint256",
                  "name": "amount",
                  "type": "uint256"
                },
                {
                  "internalType": "enum ZoraCreatorRedeemMinterStrategy.TokenType",
                  "name": "tokenType",
                  "type": "uint8"
                }
              ],
              "internalType": "struct ZoraCreatorRedeemMinterStrategy.MintToken",
              "name": "mintToken",
              "type": "tuple"
            },
            {
              "components": [
                {
                  "internalType": "enum ZoraCreatorRedeemMinterStrategy.TokenType",
                  "name": "tokenType",
                  "type": "uint8"
                },
                {
                  "internalType": "uint256",
                  "name": "amount",
                  "type": "uint256"
                },
                {
                  "internalType": "uint256",
                  "name": "tokenIdStart",
                  "type": "uint256"
                },
                {
                  "internalType": "uint256",
                  "name": "tokenIdEnd",
                  "type": "uint256"
                },
                {
                  "internalType": "address",
                  "name": "tokenContract",
                  "type": "address"
                },
                {
                  "internalType": "address",
                  "name": "transferRecipient",
                  "type": "address"
                },
                {
                  "internalType": "bytes4",
                  "name": "burnFunction",
                  "type": "bytes4"
                }
              ],
              "internalType": "struct ZoraCreatorRedeemMinterStrategy.RedeemInstruction[]",
              "name": "instructions",
              "type": "tuple[]"
            },
            {
              "internalType": "uint64",
              "name": "saleStart",
              "type": "uint64"
            },
            {
              "internalType": "uint64",
              "name": "saleEnd",
              "type": "uint64"
            },
            {
              "internalType": "uint256",
              "name": "ethAmount",
              "type": "uint256"
            },
            {
              "internalType": "address",
              "name": "ethRecipient",
              "type": "address"
            }
          ],
          "indexed": false,
          "internalType": "struct ZoraCreatorRedeemMinterStrategy.RedeemInstructions",
          "name": "data",
          "type": "tuple"
        }
      ],
      "name": "RedeemSet",
      "type": "event"
    },
    {
      "anonymous": false,
      "inputs": [
        {
          "indexed": true,
          "internalType": "address",
          "name": "target",
          "type": "address"
        },
        {
          "indexed": true,
          "internalType": "bytes32[]",
          "name": "redeemInstructionsHashes",
          "type": "bytes32[]"
        }
      ],
      "name": "RedeemsCleared",
      "type": "event"
    },
    {
      "inputs": [
        {
          "internalType": "uint256",
          "name": "tokenId",
          "type": "uint256"
        },
        {
          "internalType": "bytes32[]",
          "name": "hashes",
          "type": "bytes32[]"
        }
      ],
      "name": "clearRedeem",
      "outputs": [],
      "stateMutability": "nonpayable",
      "type": "function"
    },
    {
      "inputs": [],
      "name": "contractName",
      "outputs": [
        {
          "internalType": "string",
          "name": "",
          "type": "string"
        }
      ],
      "stateMutability": "pure",
      "type": "function"
    },
    {
      "inputs": [],
      "name": "contractURI",
      "outputs": [
        {
          "internalType": "string",
          "name": "",
          "type": "string"
        }
      ],
      "stateMutability": "pure",
      "type": "function"
    },
    {
      "inputs": [],
      "name": "contractVersion",
      "outputs": [
        {
          "internalType": "string",
          "name": "",
          "type": "string"
        }
      ],
      "stateMutability": "pure",
      "type": "function"
    },
    {
      "inputs": [],
      "name": "creatorContract",
      "outputs": [
        {
          "internalType": "address",
          "name": "",
          "type": "address"
        }
      ],
      "stateMutability": "view",
      "type": "function"
    },
    {
      "inputs": [
        {
          "internalType": "address",
          "name": "_creatorContract",
          "type": "address"
        }
      ],
      "name": "initialize",
      "outputs": [],
      "stateMutability": "nonpayable",
      "type": "function"
    },
    {
      "inputs": [
        {
          "components": [
            {
              "components": [
                {
                  "internalType": "address",
                  "name": "tokenContract",
                  "type": "address"
                },
                {
                  "internalType": "uint256",
                  "name": "tokenId",
                  "type": "uint256"
                },
                {
                  "internalType": "uint256",
                  "name": "amount",
                  "type": "uint256"
                },
                {
                  "internalType": "enum ZoraCreatorRedeemMinterStrategy.TokenType",
                  "name": "tokenType",
                  "type": "uint8"
                }
              ],
              "internalType": "struct ZoraCreatorRedeemMinterStrategy.MintToken",
              "name": "mintToken",
              "type": "tuple"
            },
            {
              "components": [
                {
                  "internalType": "enum ZoraCreatorRedeemMinterStrategy.TokenType",
                  "name": "tokenType",
                  "type": "uint8"
                },
                {
                  "internalType": "uint256",
                  "name": "amount",
                  "type": "uint256"
                },
                {
                  "internalType": "uint256",
                  "name": "tokenIdStart",
                  "type": "uint256"
                },
                {
                  "internalType": "uint256",
                  "name": "tokenIdEnd",
                  "type": "uint256"
                },
                {
                  "internalType": "address",
                  "name": "tokenContract",
                  "type": "address"
                },
                {
                  "internalType": "address",
                  "name": "transferRecipient",
                  "type": "address"
                },
                {
                  "internalType": "bytes4",
                  "name": "burnFunction",
                  "type": "bytes4"
                }
              ],
              "internalType": "struct ZoraCreatorRedeemMinterStrategy.RedeemInstruction[]",
              "name": "instructions",
              "type": "tuple[]"
            },
            {
              "internalType": "uint64",
              "name": "saleStart",
              "type": "uint64"
            },
            {
              "internalType": "uint64",
              "name": "saleEnd",
              "type": "uint64"
            },
            {
              "internalType": "uint256",
              "name": "ethAmount",
              "type": "uint256"
            },
            {
              "internalType": "address",
              "name": "ethRecipient",
              "type": "address"
            }
          ],
          "internalType": "struct ZoraCreatorRedeemMinterStrategy.RedeemInstructions",
          "name": "_redeemInstructions",
          "type": "tuple"
        }
      ],
      "name": "redeemInstructionsHash",
      "outputs": [
        {
          "internalType": "bytes32",
          "name": "",
          "type": "bytes32"
        }
      ],
      "stateMutability": "pure",
      "type": "function"
    },
    {
      "inputs": [
        {
          "internalType": "uint256",
          "name": "",
          "type": "uint256"
        },
        {
          "internalType": "bytes32",
          "name": "",
          "type": "bytes32"
        }
      ],
      "name": "redeemInstructionsHashIsAllowed",
      "outputs": [
        {
          "internalType": "bool",
          "name": "",
          "type": "bool"
        }
      ],
      "stateMutability": "view",
      "type": "function"
    },
    {
      "inputs": [
        {
          "internalType": "address",
          "name": "sender",
          "type": "address"
        },
        {
          "internalType": "uint256",
          "name": "tokenId",
          "type": "uint256"
        },
        {
          "internalType": "uint256",
          "name": "amount",
          "type": "uint256"
        },
        {
          "internalType": "uint256",
          "name": "ethValueSent",
          "type": "uint256"
        },
        {
          "internalType": "bytes",
          "name": "minterArguments",
          "type": "bytes"
        }
      ],
      "name": "requestMint",
      "outputs": [
        {
          "components": [
            {
              "components": [
                {
                  "internalType": "enum ICreatorCommands.CreatorActions",
                  "name": "method",
                  "type": "uint8"
                },
                {
                  "internalType": "bytes",
                  "name": "args",
                  "type": "bytes"
                }
              ],
              "internalType": "struct ICreatorCommands.Command[]",
              "name": "commands",
              "type": "tuple[]"
            },
            {
              "internalType": "uint256",
              "name": "at",
              "type": "uint256"
            }
          ],
          "internalType": "struct ICreatorCommands.CommandSet",
          "name": "commands",
          "type": "tuple"
        }
      ],
      "stateMutability": "nonpayable",
      "type": "function"
    },
    {
      "inputs": [
        {
          "internalType": "uint256",
          "name": "",
          "type": "uint256"
        }
      ],
      "name": "resetSale",
      "outputs": [],
      "stateMutability": "view",
      "type": "function"
    },
    {
      "inputs": [
        {
          "internalType": "uint256",
          "name": "tokenId",
          "type": "uint256"
        },
        {
          "components": [
            {
              "components": [
                {
                  "internalType": "address",
                  "name": "tokenContract",
                  "type": "address"
                },
                {
                  "internalType": "uint256",
                  "name": "tokenId",
                  "type": "uint256"
                },
                {
                  "internalType": "uint256",
                  "name": "amount",
                  "type": "uint256"
                },
                {
                  "internalType": "enum ZoraCreatorRedeemMinterStrategy.TokenType",
                  "name": "tokenType",
                  "type": "uint8"
                }
              ],
              "internalType": "struct ZoraCreatorRedeemMinterStrategy.MintToken",
              "name": "mintToken",
              "type": "tuple"
            },
            {
              "components": [
                {
                  "internalType": "enum ZoraCreatorRedeemMinterStrategy.TokenType",
                  "name": "tokenType",
                  "type": "uint8"
                },
                {
                  "internalType": "uint256",
                  "name": "amount",
                  "type": "uint256"
                },
                {
                  "internalType": "uint256",
                  "name": "tokenIdStart",
                  "type": "uint256"
                },
                {
                  "internalType": "uint256",
                  "name": "tokenIdEnd",
                  "type": "uint256"
                },
                {
                  "internalType": "address",
                  "name": "tokenContract",
                  "type": "address"
                },
                {
                  "internalType": "address",
                  "name": "transferRecipient",
                  "type": "address"
                },
                {
                  "internalType": "bytes4",
                  "name": "burnFunction",
                  "type": "bytes4"
                }
              ],
              "internalType": "struct ZoraCreatorRedeemMinterStrategy.RedeemInstruction[]",
              "name": "instructions",
              "type": "tuple[]"
            },
            {
              "internalType": "uint64",
              "name": "saleStart",
              "type": "uint64"
            },
            {
              "internalType": "uint64",
              "name": "saleEnd",
              "type": "uint64"
            },
            {
              "internalType": "uint256",
              "name": "ethAmount",
              "type": "uint256"
            },
            {
              "internalType": "address",
              "name": "ethRecipient",
              "type": "address"
            }
          ],
          "internalType": "struct ZoraCreatorRedeemMinterStrategy.RedeemInstructions",
          "name": "_redeemInstructions",
          "type": "tuple"
        }
      ],
      "name": "setRedeem",
      "outputs": [],
      "stateMutability": "nonpayable",
      "type": "function"
    },
    {
      "inputs": [
        {
          "internalType": "bytes4",
          "name": "interfaceId",
          "type": "bytes4"
        }
      ],
      "name": "supportsInterface",
      "outputs": [
        {
          "internalType": "bool",
          "name": "",
          "type": "bool"
        }
      ],
      "stateMutability": "pure",
      "type": "function"
    },
    {
      "inputs": [
        {
          "components": [
            {
              "components": [
                {
                  "internalType": "address",
                  "name": "tokenContract",
                  "type": "address"
                },
                {
                  "internalType": "uint256",
                  "name": "tokenId",
                  "type": "uint256"
                },
                {
                  "internalType": "uint256",
                  "name": "amount",
                  "type": "uint256"
                },
                {
                  "internalType": "enum ZoraCreatorRedeemMinterStrategy.TokenType",
                  "name": "tokenType",
                  "type": "uint8"
                }
              ],
              "internalType": "struct ZoraCreatorRedeemMinterStrategy.MintToken",
              "name": "mintToken",
              "type": "tuple"
            },
            {
              "components": [
                {
                  "internalType": "enum ZoraCreatorRedeemMinterStrategy.TokenType",
                  "name": "tokenType",
                  "type": "uint8"
                },
                {
                  "internalType": "uint256",
                  "name": "amount",
                  "type": "uint256"
                },
                {
                  "internalType": "uint256",
                  "name": "tokenIdStart",
                  "type": "uint256"
                },
                {
                  "internalType": "uint256",
                  "name": "tokenIdEnd",
                  "type": "uint256"
                },
                {
                  "internalType": "address",
                  "name": "tokenContract",
                  "type": "address"
                },
                {
                  "internalType": "address",
                  "name": "transferRecipient",
                  "type": "address"
                },
                {
                  "internalType": "bytes4",
                  "name": "burnFunction",
                  "type": "bytes4"
                }
              ],
              "internalType": "struct ZoraCreatorRedeemMinterStrategy.RedeemInstruction[]",
              "name": "instructions",
              "type": "tuple[]"
            },
            {
              "internalType": "uint64",
              "name": "saleStart",
              "type": "uint64"
            },
            {
              "internalType": "uint64",
              "name": "saleEnd",
              "type": "uint64"
            },
            {
              "internalType": "uint256",
              "name": "ethAmount",
              "type": "uint256"
            },
            {
              "internalType": "address",
              "name": "ethRecipient",
              "type": "address"
            }
          ],
          "internalType": "struct ZoraCreatorRedeemMinterStrategy.RedeemInstructions",
          "name": "_redeemInstructions",
          "type": "tuple"
        }
      ],
      "name": "validateRedeemInstructions",
      "outputs": [],
      "stateMutability": "view",
      "type": "function"
    }
  ],
  "bytecode": "0x608060405234801561001057600080fd5b506122fc806100206000396000f3fe608060405234801561001057600080fd5b50600436106100af5760003560e01c806301ffc9a7146100b4578063029d2c77146100dc5780630c2b683e146100f157806319b45c4f14610112578063343e3bd4146101255780633dae35ce146101535780636890e5b31461017e578063710011f51461019e57806375d0c0dc146101b1578063a0a8e460146101f1578063c3aea1fc14610212578063c4d66de814610225578063e8a3d48514610238575b600080fd5b6100c76100c23660046114d8565b610240565b60405190151581526020015b60405180910390f35b6100ef6100ea366004611513565b610277565b005b6101046100ff36600461182f565b61038c565b6040519081526020016100d3565b6100ef61012036600461186b565b6103bc565b6100c7610133366004611884565b600160209081526000928352604080842090915290825290205460ff1681565b600254610166906001600160a01b031681565b6040516001600160a01b0390911681526020016100d3565b61019161018c3660046118b3565b610400565b6040516100d391906119b9565b6100ef6101ac366004611a51565b610755565b60408051808201909152601b81527a52656465656d204d696e7465722053616c6520537472617465677960281b60208201525b6040516100d39190611a85565b6040805180820190915260058152640312e312e360dc1b60208201526101e4565b6100ef610220366004611a98565b6108d0565b6100ef610233366004611b16565b6109af565b6101e4610aff565b60006001600160e01b03198216636890e5b360e01b148061027157506001600160e01b031982166301ffc9a760e01b145b92915050565b6002546001600160a01b031633146102a2576040516317162a6b60e01b815260040160405180910390fd5b602081013582146102c65760405163d47aa6a960e01b815260040160405180910390fd5b6102cf81610755565b60006102dd6100ff83611b33565b600084815260016020908152604080832084845290915290205490915060ff161561031b57604051632a4f169160e11b815260040160405180910390fd5b600083815260016020818152604080842085855290915291829020805460ff19169091179055600254905182916001600160a01b0316907f12f109538a3215cb2c274a1f5ea6daca2470f1f87c378182c850ca234c8586259061037f908690611c65565b60405180910390a3505050565b60008160405160200161039f9190611dd1565b604051602081830303815290604052805190602001209050919050565b6002546001600160a01b031633146103e7576040516317162a6b60e01b815260040160405180910390fd5b60405163c96a2b8560e01b815260040160405180910390fd5b6040805180820190915260608152600060208201526002546001600160a01b03163314610440576040516317162a6b60e01b815260040160405180910390fd5b6000808061045085870187611f44565b92509250925060006104618461038c565b8451602001519091508a146104895760405163d47aa6a960e01b815260040160405180910390fd5b60008a815260016020908152604080832084845290915290205460ff166104c35760405163177c837f60e11b815260040160405180910390fd5b4284604001516001600160401b031611156104f1576040516374626dc160e11b815260040160405180910390fd5b4284606001516001600160401b0316101561051f57604051630bd8a3eb60e01b815260040160405180910390fd5b8251846020015151146105455760405163061103fb60e51b815260040160405180910390fd5b8360800151881461056957604051632f4613eb60e01b815260040160405180910390fd5b835160400151891461058e5760405163a7dcb93b60e01b815260040160405180910390fd5b60208401515160005b8181101561069a576000866020015182815181106105b7576105b7611fcb565b60200260200101519050600260038111156105d4576105d4611953565b815160038111156105e7576105e7611953565b0361062f5761062a8e8288858151811061060357610603611fcb565b602002602001015188868151811061061d5761061d611fcb565b6020026020010151610b1f565b610691565b60018151600381111561064457610644611953565b0361066d5761062a8e8288858151811061066057610660611fcb565b6020026020010151610d62565b60038151600381111561068257610682611953565b03610691576106918e82611045565b50600101610597565b5060a08501516001600160a01b031615156106c7816106ba5760016106bd565b60025b889060ff166111a6565b6106d3878e8e8e61120b565b80156106ea5760a08601516106ea9088908c611284565b82600260009054906101000a90046001600160a01b03166001600160a01b03167f088fba8a2928dfd5d2908fdf4ec352f4a15c385db3491a15dbc808c3bb22df798f888860405161073d93929190612066565b60405180910390a35050505050509695505050505050565b61076560c0820160a083016120a6565b6001600160401b031661077e60e0830160c084016120a6565b6001600160401b03161115806107ac5750426107a060e0830160c084016120a6565b6001600160401b031611155b156107ca5760405163077d2f6760e01b815260040160405180910390fd5b6107d760808201826120c1565b90506000036107f957604051632110d6ef60e11b815260040160405180910390fd5b6002546001600160a01b03166108126020830183611b16565b6001600160a01b0316146108395760405163d2669a5960e01b815260040160405180910390fd5b600261084b6080830160608401612109565b600381111561085c5761085c611953565b1461087a57604051638f89029b60e01b815260040160405180910390fd5b600061088960808301836120c1565b9050905060005b818110156108cb576108c36108a860808501856120c1565b838181106108b8576108b8611fcb565b905060e002016112ea565b600101610890565b505050565b6002546001600160a01b031633146108fb576040516317162a6b60e01b815260040160405180910390fd5b8060005b818110156109585760008581526001602052604081208186868581811061092857610928611fcb565b60209081029290920135835250810191909152604001600020805460ff19169115159190911790556001016108ff565b508282604051610969929190612124565b60405190819003812060025490916001600160a01b03909116907f0910989ccfb0d1cbcfc8beed74e1bf54b662fd84700e4e818ffe2937a8dbe20c90600090a350505050565b600054610100900460ff16158080156109cf5750600054600160ff909116105b806109e95750303b1580156109e9575060005460ff166001145b610a505760405162461bcd60e51b815260206004820152602e60248201527f496e697469616c697a61626c653a20636f6e747261637420697320616c72656160448201526d191e481a5b9a5d1a585b1a5e995960921b606482015260840160405180910390fd5b6000805460ff191660011790558015610a73576000805461ff0019166101001790555b6001600160a01b038216610a9a57604051633769579f60e21b815260040160405180910390fd5b600280546001600160a01b0319166001600160a01b0384161790558015610afb576000805461ff0019169055604051600181527f7f26b83ff96e1f2b6a682f133852f6798a09c465da95921460cefb38474024989060200160405180910390a15b5050565b60606040518060600160405280602f8152602001612298602f9139905090565b815181518114610b425760405163061103fb60e51b815260040160405180910390fd5b6000805b82811015610be257838181518110610b6057610b60611fcb565b602002602001015182610b73919061214d565b91508560400151858281518110610b8c57610b8c611fcb565b60200260200101511080610bbc57508560600151858281518110610bb257610bb2611fcb565b6020026020010151115b15610bda576040516305033e0360e41b815260040160405180910390fd5b600101610b46565b5084602001518114610c075760405163daaa81df60e01b815260040160405180910390fd5b60c08501516001600160e01b03191615610ced57600085608001516001600160a01b03168660c00151888787604051602401610c459392919061216e565b60408051601f198184030181529181526020820180516001600160e01b03166001600160e01b0319909416939093179092529051610c8391906121a4565b6000604051808303816000865af19150503d8060008114610cc0576040519150601f19603f3d011682016040523d82523d6000602084013e610cc5565b606091505b5050905080610ce757604051631bc5aabf60e21b815260040160405180910390fd5b50610d5a565b84608001516001600160a01b0316632eb2c2d6878760a0015187876040518563ffffffff1660e01b8152600401610d2794939291906121c0565b600060405180830381600087803b158015610d4157600080fd5b505af1158015610d55573d6000803e3d6000fd5b505050505b505050505050565b805160208301518114610d885760405163daaa81df60e01b815260040160405180910390fd5b60005b8181101561103e578360400151838281518110610daa57610daa611fcb565b60200260200101511080610dda57508360600151838281518110610dd057610dd0611fcb565b6020026020010151115b15610df8576040516305033e0360e41b815260040160405180910390fd5b60c08401516001600160e01b03191615610fb257846001600160a01b031684608001516001600160a01b0316636352211e858481518110610e3b57610e3b611fcb565b60200260200101516040518263ffffffff1660e01b8152600401610e6191815260200190565b602060405180830381865afa158015610e7e573d6000803e3d6000fd5b505050506040513d601f19601f82011682018060405250810190610ea2919061221b565b6001600160a01b031614610ec9576040516308f0688760e11b815260040160405180910390fd5b600084608001516001600160a01b03168560c00151858481518110610ef057610ef0611fcb565b6020026020010151604051602401610f0a91815260200190565b60408051601f198184030181529181526020820180516001600160e01b03166001600160e01b0319909416939093179092529051610f4891906121a4565b6000604051808303816000865af19150503d8060008114610f85576040519150601f19603f3d011682016040523d82523d6000602084013e610f8a565b606091505b5050905080610fac57604051631bc5aabf60e21b815260040160405180910390fd5b50611036565b83608001516001600160a01b03166342842e0e868660a00151868581518110610fdd57610fdd611fcb565b60200260200101516040518463ffffffff1660e01b815260040161100393929190612238565b600060405180830381600087803b15801561101d57600080fd5b505af1158015611031573d6000803e3d6000fd5b505050505b600101610d8b565b5050505050565b60c08101516001600160e01b0319161561112757600081608001516001600160a01b03168260c0015184846020015160405160240161108592919061225c565b60408051601f198184030181529181526020820180516001600160e01b03166001600160e01b03199094169390931790925290516110c391906121a4565b6000604051808303816000865af19150503d8060008114611100576040519150601f19603f3d011682016040523d82523d6000602084013e611105565b606091505b50509050806108cb57604051631bc5aabf60e21b815260040160405180910390fd5b608081015160a082015160208301516040516323b872dd60e01b81526001600160a01b03909316926323b872dd92611163928792600401612238565b6020604051808303816000875af1158015611182573d6000803e3d6000fd5b505050506040513d601f19601f820116820180604052508101906108cb9190612275565b806001600160401b038111156111be576111be611559565b60405190808252806020026020018201604052801561120457816020015b6040805180820190915260008152606060208201528152602001906001900390816111dc5790505b5090915250565b6040805180820182526002815281516001600160a01b03861660208083019190915292810185905260608101849052909182019060800160408051601f1981840301815291905290528451602086018051600181019091528151811061127357611273611fcb565b602002602001018190525050505050565b60408051808201909152806001815260200183836040516020016112a992919061225c565b60408051601f198184030181529190529052835160208501805160018101909152815181106112da576112da611fcb565b6020026020010181905250505050565b60036112f96020830183612109565b600381111561130a5761130a611953565b036113475760408101351515806113245750606081013515155b156113425760405163d47aa6a960e01b815260040160405180910390fd5b6113d7565b60016113566020830183612109565b600381111561136757611367611953565b14806113905750600261137d6020830183612109565b600381111561138e5761138e611953565b145b156113be578060600135816040013511156113425760405163d47aa6a960e01b815260040160405180910390fd5b60405163a1e9dd9d60e01b815260040160405180910390fd5b6113e760e0820160c083016114d8565b6001600160e01b031916158015906114185750600061140c60c0830160a08401611b16565b6001600160a01b031614155b156114365760405163177b882d60e31b815260040160405180910390fd5b61144660e0820160c083016114d8565b6001600160e01b0319161580156114755750600061146a60c0830160a08401611b16565b6001600160a01b0316145b156114935760405163177b882d60e31b815260040160405180910390fd5b80602001356000036114b85760405163a7dcb93b60e01b815260040160405180910390fd5b50565b80356001600160e01b0319811681146114d357600080fd5b919050565b6000602082840312156114ea57600080fd5b6114f3826114bb565b9392505050565b6000610120828403121561150d57600080fd5b50919050565b6000806040838503121561152657600080fd5b8235915060208301356001600160401b0381111561154357600080fd5b61154f858286016114fa565b9150509250929050565b634e487b7160e01b600052604160045260246000fd5b60405160e081016001600160401b038111828210171561159157611591611559565b60405290565b60405160c081016001600160401b038111828210171561159157611591611559565b604051608081016001600160401b038111828210171561159157611591611559565b604051601f8201601f191681016001600160401b038111828210171561160357611603611559565b604052919050565b6001600160a01b03811681146114b857600080fd5b80356114d38161160b565b8035600481106114d357600080fd5b60006001600160401b0382111561165357611653611559565b5060051b60200190565b600082601f83011261166e57600080fd5b8135602061168361167e8361163a565b6115db565b82815260e092830285018201928282019190878511156116a257600080fd5b8387015b858110156117315781818a0312156116be5760008081fd5b6116c661156f565b6116cf8261162b565b8152818601358682015260408083013590820152606080830135908201526080808301356116fc8161160b565b9082015260a08281013561170f8161160b565b9082015260c06117208382016114bb565b9082015284529284019281016116a6565b5090979650505050505050565b80356001600160401b03811681146114d357600080fd5b600081830361012081121561176957600080fd5b611771611597565b9150608081121561178157600080fd5b5061178a6115b9565b82356117958161160b565b8082525060208301356020820152604083013560408201526117b96060840161162b565b6060820152815260808201356001600160401b038111156117d957600080fd5b6117e58482850161165d565b6020830152506117f760a0830161173e565b604082015261180860c0830161173e565b606082015260e082013560808201526118246101008301611620565b60a082015292915050565b60006020828403121561184157600080fd5b81356001600160401b0381111561185757600080fd5b61186384828501611755565b949350505050565b60006020828403121561187d57600080fd5b5035919050565b6000806040838503121561189757600080fd5b50508035926020909101359150565b6001600160a01b03169052565b60008060008060008060a087890312156118cc57600080fd5b86356118d78161160b565b955060208701359450604087013593506060870135925060808701356001600160401b038082111561190857600080fd5b818901915089601f83011261191c57600080fd5b81358181111561192b57600080fd5b8a602082850101111561193d57600080fd5b6020830194508093505050509295509295509295565b634e487b7160e01b600052602160045260246000fd5b60005b8381101561198457818101518382015260200161196c565b50506000910152565b600081518084526119a5816020860160208601611969565b601f01601f19169290920160200192915050565b600060208083526060830184516040808487015282825180855260808801915060808160051b8901019450858401935060005b81811015611a3b57888603607f190183528451805160038110611a1157611a11611953565b8752870151878701859052611a288588018261198d565b96505093860193918601916001016119ec565b5050509290950151939091019290925250919050565b600060208284031215611a6357600080fd5b81356001600160401b03811115611a7957600080fd5b611863848285016114fa565b6020815260006114f3602083018461198d565b600080600060408486031215611aad57600080fd5b8335925060208401356001600160401b0380821115611acb57600080fd5b818601915086601f830112611adf57600080fd5b813581811115611aee57600080fd5b8760208260051b8501011115611b0357600080fd5b6020830194508093505050509250925092565b600060208284031215611b2857600080fd5b81356114f38161160b565b60006102713683611755565b60048110611b4f57611b4f611953565b9052565b6000808335601e19843603018112611b6a57600080fd5b83016020810192503590506001600160401b03811115611b8957600080fd5b60e081023603821315611b9b57600080fd5b9250929050565b8183526000602080850194508260005b85811015611c4d57611bcc87611bc78461162b565b611b3f565b81830135878401526040808301359088015260608083013590880152608080830135611bf78161160b565b6001600160a01b039081169189019190915260a0908382013590611c1a8261160b565b169088015260c06001600160e01b0319611c358483016114bb565b169088015260e0968701969190910190600101611bb2565b509495945050505050565b6001600160401b03169052565b6020815260008235611c768161160b565b60018060a01b0381166020840152506020830135604083015260408301356060830152611ca56060840161162b565b611cb26080840182611b3f565b50611cc06080840184611b53565b6101208060a0860152611cd861014086018385611ba2565b9250611ce660a0870161173e565b9150611cf560c0860183611c58565b611d0160c0870161173e565b9150611d1060e0860183611c58565b610100915060e086013582860152611d29828701611620565b9150611d37818601836118a6565b5090949350505050565b600081518084526020808501945080840160005b83811015611c4d578151611d6a888251611b3f565b808401518885015260408082015190890152606080820151908901526080808201516001600160a01b03908116918a019190915260a0808301519091169089015260c0908101516001600160e01b0319169088015260e09096019590820190600101611d55565b602081526000825160018060a01b038151166020840152602081015160408401526040810151606084015260608101519050611e106080840182611b3f565b5060208301516101208060a0850152611e2d610140850183611d41565b91506040850151611e4160c0860182611c58565b506060850151611e5460e0860182611c58565b50608085015161010085015260a0850151611d37828601826118a6565b600082601f830112611e8257600080fd5b81356020611e9261167e8361163a565b828152600592831b8501820192828201919087851115611eb157600080fd5b8387015b858110156117315780356001600160401b03811115611ed45760008081fd5b8801603f81018a13611ee65760008081fd5b858101356040611ef861167e8361163a565b82815291851b8301810191888101908d841115611f155760008081fd5b938201935b83851015611f3357843582529389019390890190611f1a565b885250505093850193508401611eb5565b600080600060608486031215611f5957600080fd5b83356001600160401b0380821115611f7057600080fd5b611f7c87838801611755565b94506020860135915080821115611f9257600080fd5b611f9e87838801611e71565b93506040860135915080821115611fb457600080fd5b50611fc186828701611e71565b9150509250925092565b634e487b7160e01b600052603260045260246000fd5b600081518084526020808501945080840160005b83811015611c4d57815187529582019590820190600101611ff5565b600081518084526020808501808196508360051b8101915082860160005b85811015612059578284038952612047848351611fe1565b9885019893509084019060010161202f565b5091979650505050505050565b6001600160a01b038416815260606020820181905260009061208a90830185612011565b828103604084015261209c8185612011565b9695505050505050565b6000602082840312156120b857600080fd5b6114f38261173e565b6000808335601e198436030181126120d857600080fd5b8301803591506001600160401b038211156120f257600080fd5b602001915060e081023603821315611b9b57600080fd5b60006020828403121561211b57600080fd5b6114f38261162b565b60006001600160fb1b0383111561213a57600080fd5b8260051b80858437919091019392505050565b8082018082111561027157634e487b7160e01b600052601160045260246000fd5b6001600160a01b038416815260606020820181905260009061219290830185611fe1565b828103604084015261209c8185611fe1565b600082516121b6818460208701611969565b9190910192915050565b6001600160a01b0385811682528416602082015260a0604082018190526000906121ec90830185611fe1565b82810360608401526121fe8185611fe1565b838103608090940193909352505060008152602001949350505050565b60006020828403121561222d57600080fd5b81516114f38161160b565b6001600160a01b039384168152919092166020820152604081019190915260600190565b6001600160a01b03929092168252602082015260400190565b60006020828403121561228757600080fd5b815180151581146114f357600080fdfe68747470733a2f2f6769746875622e636f6d2f6f75727a6f72612f7a6f72612d313135352d636f6e7472616374732fa26469706673582212203f6cd44c40ffe51687febef7b315145d28256253f979a57738f1f223a48b2f1a64736f6c63430008110033",
  "linkReferences": {},
  "deployedLinkReferences": {}
}