{
  "_format": "hh-sol-artifact-1",
  "contractName": "UpgradeGate",
  "sourceName": "contracts/zora/upgrades/UpgradeGate.sol",
  "abi": [
    {
      "inputs": [],
      "stateMutability": "nonpayable",
      "type": "constructor"
    },
    {
      "inputs": [],
      "name": "INITIALIZABLE_CONTRACT_ALREADY_INITIALIZED",
      "type": "error"
    },
    {
      "inputs": [],
      "name": "INITIALIZABLE_CONTRACT_IS_NOT_INITIALIZING",
      "type": "error"
    },
    {
      "inputs": [],
      "name": "ONLY_OWNER",
      "type": "error"
    },
    {
      "inputs": [],
      "name": "ONLY_PENDING_OWNER",
      "type": "error"
    },
    {
      "inputs": [],
      "name": "OWNER_CANNOT_BE_ZERO_ADDRESS",
      "type": "error"
    },
    {
      "anonymous": false,
      "inputs": [
        {
          "indexed": false,
          "internalType": "uint8",
          "name": "version",
          "type": "uint8"
        }
      ],
      "name": "Initialized",
      "type": "event"
    },
    {
      "anonymous": false,
      "inputs": [
        {
          "indexed": true,
          "internalType": "address",
          "name": "owner",
          "type": "address"
        },
        {
          "indexed": true,
          "internalType": "address",
          "name": "canceledOwner",
          "type": "address"
        }
      ],
      "name": "OwnerCanceled",
      "type": "event"
    },
    {
      "anonymous": false,
      "inputs": [
        {
          "indexed": true,
          "internalType": "address",
          "name": "owner",
          "type": "address"
        },
        {
          "indexed": true,
          "internalType": "address",
          "name": "pendingOwner",
          "type": "address"
        }
      ],
      "name": "OwnerPending",
      "type": "event"
    },
    {
      "anonymous": false,
      "inputs": [
        {
          "indexed": true,
          "internalType": "address",
          "name": "prevOwner",
          "type": "address"
        },
        {
          "indexed": true,
          "internalType": "address",
          "name": "newOwner",
          "type": "address"
        }
      ],
      "name": "OwnerUpdated",
      "type": "event"
    },
    {
      "anonymous": false,
      "inputs": [],
      "name": "UpgradeGateSetup",
      "type": "event"
    },
    {
      "anonymous": false,
      "inputs": [
        {
          "indexed": true,
          "internalType": "address",
          "name": "baseImpl",
          "type": "address"
        },
        {
          "indexed": true,
          "internalType": "address",
          "name": "upgradeImpl",
          "type": "address"
        }
      ],
      "name": "UpgradeRegistered",
      "type": "event"
    },
    {
      "anonymous": false,
      "inputs": [
        {
          "indexed": true,
          "internalType": "address",
          "name": "baseImpl",
          "type": "address"
        },
        {
          "indexed": true,
          "internalType": "address",
          "name": "upgradeImpl",
          "type": "address"
        }
      ],
      "name": "UpgradeRemoved",
      "type": "event"
    },
    {
      "inputs": [],
      "name": "acceptOwnership",
      "outputs": [],
      "stateMutability": "nonpayable",
      "type": "function"
    },
    {
      "inputs": [],
      "name": "cancelOwnershipTransfer",
      "outputs": [],
      "stateMutability": "nonpayable",
      "type": "function"
    },
    {
      "inputs": [],
      "name": "contractName",
      "outputs": [
        {
          "internalType": "string",
          "name": "",
          "type": "string"
        }
      ],
      "stateMutability": "pure",
      "type": "function"
    },
    {
      "inputs": [],
      "name": "contractURI",
      "outputs": [
        {
          "internalType": "string",
          "name": "",
          "type": "string"
        }
      ],
      "stateMutability": "pure",
      "type": "function"
    },
    {
      "inputs": [
        {
          "internalType": "address",
          "name": "_initialOwner",
          "type": "address"
        }
      ],
      "name": "initialize",
      "outputs": [],
      "stateMutability": "nonpayable",
      "type": "function"
    },
    {
      "inputs": [
        {
          "internalType": "address",
          "name": "",
          "type": "address"
        },
        {
          "internalType": "address",
          "name": "",
          "type": "address"
        }
      ],
      "name": "isAllowedUpgrade",
      "outputs": [
        {
          "internalType": "bool",
          "name": "",
          "type": "bool"
        }
      ],
      "stateMutability": "view",
      "type": "function"
    },
    {
      "inputs": [
        {
          "internalType": "address",
          "name": "baseImpl",
          "type": "address"
        },
        {
          "internalType": "address",
          "name": "upgradeImpl",
          "type": "address"
        }
      ],
      "name": "isRegisteredUpgradePath",
      "outputs": [
        {
          "internalType": "bool",
          "name": "",
          "type": "bool"
        }
      ],
      "stateMutability": "view",
      "type": "function"
    },
    {
      "inputs": [],
      "name": "owner",
      "outputs": [
        {
          "internalType": "address",
          "name": "",
          "type": "address"
        }
      ],
      "stateMutability": "view",
      "type": "function"
    },
    {
      "inputs": [],
      "name": "pendingOwner",
      "outputs": [
        {
          "internalType": "address",
          "name": "",
          "type": "address"
        }
      ],
      "stateMutability": "view",
      "type": "function"
    },
    {
      "inputs": [
        {
          "internalType": "address[]",
          "name": "baseImpls",
          "type": "address[]"
        },
        {
          "internalType": "address",
          "name": "upgradeImpl",
          "type": "address"
        }
      ],
      "name": "registerUpgradePath",
      "outputs": [],
      "stateMutability": "nonpayable",
      "type": "function"
    },
    {
      "inputs": [
        {
          "internalType": "address",
          "name": "baseImpl",
          "type": "address"
        },
        {
          "internalType": "address",
          "name": "upgradeImpl",
          "type": "address"
        }
      ],
      "name": "removeUpgradePath",
      "outputs": [],
      "stateMutability": "nonpayable",
      "type": "function"
    },
    {
      "inputs": [],
      "name": "resignOwnership",
      "outputs": [],
      "stateMutability": "nonpayable",
      "type": "function"
    },
    {
      "inputs": [
        {
          "internalType": "address",
          "name": "_newOwner",
          "type": "address"
        }
      ],
      "name": "safeTransferOwnership",
      "outputs": [],
      "stateMutability": "nonpayable",
      "type": "function"
    },
    {
      "inputs": [
        {
          "internalType": "address",
          "name": "_newOwner",
          "type": "address"
        }
      ],
      "name": "transferOwnership",
      "outputs": [],
      "stateMutability": "nonpayable",
      "type": "function"
    }
  ],
  "bytecode": "0x608060405234801561001057600080fd5b50610a1d806100206000396000f3fe608060405234801561001057600080fd5b50600436106100ba5760003560e01c806321f74347146100bf57806323452b9c14610110578063395db2cd1461011a5780634dc5b7c71461012d57806375d0c0dc1461015b57806379ba5097146101965780638da5cb5b1461019e57806392b60a4c146101c3578063c4d66de8146101d6578063e30c3978146101e9578063e8a3d485146101fa578063ed0c709114610202578063f0fad9911461020a578063f2fde38b1461021d575b600080fd5b6100fb6100cd3660046107f3565b6001600160a01b03918216600090815260356020908152604080832093909416825291909152205460ff1690565b60405190151581526020015b60405180910390f35b610118610230565b005b610118610128366004610826565b6102aa565b6100fb61013b3660046107f3565b603560209081526000928352604080842090915290825290205460ff1681565b6040805180820190915260168152755a4f524120313135352055706772616465204761746560501b60208201525b6040516101079190610848565b61011861034f565b6000546001600160a01b03165b6040516001600160a01b039091168152602001610107565b6101186101d13660046108ac565b6103ab565b6101186101e4366004610826565b6104c2565b6001546001600160a01b03166101ab565b6101896105b8565b6101186105d8565b6101186102183660046107f3565b61060d565b61011861022b366004610826565b610692565b6000546001600160a01b0316331461025b5760405163d238ed5960e01b815260040160405180910390fd5b600154600080546040516001600160a01b0393841693909116917f682679deecef4dcd49674845cc1e3a075fea9073680aa445a8207d5a4bdea3da91a3600180546001600160a01b0319169055565b806001600160a01b0381166102d257604051631627621f60e11b815260040160405180910390fd5b6000546001600160a01b031633146102fd5760405163d238ed5960e01b815260040160405180910390fd5b600180546001600160a01b0319166001600160a01b0384811691821790925560008054604051929316917f4f2638f5949b9614ef8d5e268cb51348ad7f434a34812bf64b6e95014fbd357e9190a35050565b6001546001600160a01b0316331461037a5760405163065cd53160e01b815260040160405180910390fd5b6000805460405133926001600160a01b03909216916000805160206109c883398151915291a36103a9336106ea565b565b6000546001600160a01b031633146103d65760405163d238ed5960e01b815260040160405180910390fd5b60005b82518110156104bd576001603560008584815181106103fa576103fa610982565b60200260200101516001600160a01b03166001600160a01b031681526020019081526020016000206000846001600160a01b03166001600160a01b0316815260200190815260200160002060006101000a81548160ff021916908315150217905550816001600160a01b031683828151811061047857610478610982565b60200260200101516001600160a01b03167fab6a7dc54721d6a1a284ca865830f8981d6f12fbddb3618d1774b71c0036805960405160405180910390a36001016103d9565b505050565b603454610100900460ff16158015806104df575060345460ff1615155b80156104fb5750303b1515806104fb575060345460ff16600114155b1561051957604051633d5c224160e11b815260040160405180910390fd5b6034805460ff19166001179055801561053c576034805461ff0019166101001790555b6105458261074e565b6040517f0c52cc367a132cac0ea9f3a1e1f75873b17977858812b85c89a9654486e4443890600090a180156105b4576034805461ff0019169055604051600181527f7f26b83ff96e1f2b6a682f133852f6798a09c465da95921460cefb38474024989060200160405180910390a15b5050565b60606040518060600160405280602f8152602001610999602f9139905090565b6000546001600160a01b031633146106035760405163d238ed5960e01b815260040160405180910390fd5b6103a960006106ea565b6000546001600160a01b031633146106385760405163d238ed5960e01b815260040160405180910390fd5b6001600160a01b03808316600081815260356020908152604080832094861680845294909152808220805460ff19169055517f0ebd98f6f75e38ba2f0751378f5c86205cafca83e206cb62795f45fcea7283339190a35050565b806001600160a01b0381166106ba57604051631627621f60e11b815260040160405180910390fd5b6000546001600160a01b031633146106e55760405163d238ed5960e01b815260040160405180910390fd5b6105b4825b600080546040516001600160a01b03808516939216916000805160206109c883398151915291a3600080546001600160a01b0319166001600160a01b0383811691909117909155600154161561074b57600180546001600160a01b03191690555b50565b806001600160a01b03811661077657604051631627621f60e11b815260040160405180910390fd5b603454610100900460ff1661079d576040516296bfb160e81b815260040160405180910390fd5b600080546001600160a01b0319166001600160a01b03841690811782556040519091906000805160206109c8833981519152908290a35050565b80356001600160a01b03811681146107ee57600080fd5b919050565b6000806040838503121561080657600080fd5b61080f836107d7565b915061081d602084016107d7565b90509250929050565b60006020828403121561083857600080fd5b610841826107d7565b9392505050565b600060208083528351808285015260005b8181101561087557858101830151858201604001528201610859565b506000604082860101526040601f19601f8301168501019250505092915050565b634e487b7160e01b600052604160045260246000fd5b600080604083850312156108bf57600080fd5b82356001600160401b03808211156108d657600080fd5b818501915085601f8301126108ea57600080fd5b81356020828211156108fe576108fe610896565b8160051b604051601f19603f8301168101818110868211171561092357610923610896565b60405292835281830193508481018201928984111561094157600080fd5b948201945b8386101561096657610957866107d7565b85529482019493820193610946565b965061097590508782016107d7565b9450505050509250929050565b634e487b7160e01b600052603260045260246000fdfe68747470733a2f2f6769746875622e636f6d2f6f75727a6f72612f7a6f72612d313135352d636f6e7472616374732f8292fce18fa69edf4db7b94ea2e58241df0ae57f97e0a6c9b29067028bf92d76a264697066735822122037c5e8c363555bcecfa3888ea3b69798c304f47953bfa2e2583e6ddd96a1fd2664736f6c63430008110033",
  "linkReferences": {},
  "deployedLinkReferences": {}
}