{
  "_format": "hh-sol-artifact-1",
  "contractName": "ZoraCreatorMerkleMinterStrategy",
  "sourceName": "contracts/zora/minters/merkle/ZoraCreatorMerkleMinterStrategy.sol",
  "abi": [
    {
      "inputs": [],
      "name": "CallerNotZoraCreator1155",
      "type": "error"
    },
    {
      "inputs": [
        {
          "internalType": "address",
          "name": "mintTo",
          "type": "address"
        },
        {
          "internalType": "bytes32[]",
          "name": "merkleProof",
          "type": "bytes32[]"
        },
        {
          "internalType": "bytes32",
          "name": "merkleRoot",
          "type": "bytes32"
        }
      ],
      "name": "InvalidMerkleProof",
      "type": "error"
    },
    {
      "inputs": [],
      "name": "MerkleClaimsExceeded",
      "type": "error"
    },
    {
      "inputs": [],
      "name": "MinterContractAlreadyExists",
      "type": "error"
    },
    {
      "inputs": [],
      "name": "MinterContractDoesNotExist",
      "type": "error"
    },
    {
      "inputs": [],
      "name": "SaleEnded",
      "type": "error"
    },
    {
      "inputs": [],
      "name": "SaleHasNotStarted",
      "type": "error"
    },
    {
      "inputs": [
        {
          "internalType": "address",
          "name": "user",
          "type": "address"
        },
        {
          "internalType": "uint256",
          "name": "limit",
          "type": "uint256"
        },
        {
          "internalType": "uint256",
          "name": "requestedAmount",
          "type": "uint256"
        }
      ],
      "name": "UserExceedsMintLimit",
      "type": "error"
    },
    {
      "inputs": [],
      "name": "WrongValueSent",
      "type": "error"
    },
    {
      "anonymous": false,
      "inputs": [
        {
          "indexed": true,
          "internalType": "address",
          "name": "mediaContract",
          "type": "address"
        },
        {
          "indexed": true,
          "internalType": "uint256",
          "name": "tokenId",
          "type": "uint256"
        },
        {
          "components": [
            {
              "internalType": "uint64",
              "name": "presaleStart",
              "type": "uint64"
            },
            {
              "internalType": "uint64",
              "name": "presaleEnd",
              "type": "uint64"
            },
            {
              "internalType": "address",
              "name": "fundsRecipient",
              "type": "address"
            },
            {
              "internalType": "bytes32",
              "name": "merkleRoot",
              "type": "bytes32"
            }
          ],
          "indexed": false,
          "internalType": "struct ZoraCreatorMerkleMinterStrategy.MerkleSaleSettings",
          "name": "merkleSaleSettings",
          "type": "tuple"
        }
      ],
      "name": "SaleSet",
      "type": "event"
    },
    {
      "inputs": [
        {
          "internalType": "address",
          "name": "",
          "type": "address"
        },
        {
          "internalType": "uint256",
          "name": "",
          "type": "uint256"
        }
      ],
      "name": "allowedMerkles",
      "outputs": [
        {
          "internalType": "uint64",
          "name": "presaleStart",
          "type": "uint64"
        },
        {
          "internalType": "uint64",
          "name": "presaleEnd",
          "type": "uint64"
        },
        {
          "internalType": "address",
          "name": "fundsRecipient",
          "type": "address"
        },
        {
          "internalType": "bytes32",
          "name": "merkleRoot",
          "type": "bytes32"
        }
      ],
      "stateMutability": "view",
      "type": "function"
    },
    {
      "inputs": [],
      "name": "contractName",
      "outputs": [
        {
          "internalType": "string",
          "name": "",
          "type": "string"
        }
      ],
      "stateMutability": "pure",
      "type": "function"
    },
    {
      "inputs": [],
      "name": "contractURI",
      "outputs": [
        {
          "internalType": "string",
          "name": "",
          "type": "string"
        }
      ],
      "stateMutability": "pure",
      "type": "function"
    },
    {
      "inputs": [],
      "name": "contractVersion",
      "outputs": [
        {
          "internalType": "string",
          "name": "",
          "type": "string"
        }
      ],
      "stateMutability": "pure",
      "type": "function"
    },
    {
      "inputs": [
        {
          "internalType": "address",
          "name": "tokenContract",
          "type": "address"
        },
        {
          "internalType": "uint256",
          "name": "tokenId",
          "type": "uint256"
        },
        {
          "internalType": "address",
          "name": "wallet",
          "type": "address"
        }
      ],
      "name": "getMintedPerWallet",
      "outputs": [
        {
          "internalType": "uint256",
          "name": "",
          "type": "uint256"
        }
      ],
      "stateMutability": "view",
      "type": "function"
    },
    {
      "inputs": [
        {
          "internalType": "address",
          "name": "",
          "type": "address"
        },
        {
          "internalType": "uint256",
          "name": "tokenId",
          "type": "uint256"
        },
        {
          "internalType": "uint256",
          "name": "quantity",
          "type": "uint256"
        },
        {
          "internalType": "uint256",
          "name": "ethValueSent",
          "type": "uint256"
        },
        {
          "internalType": "bytes",
          "name": "minterArguments",
          "type": "bytes"
        }
      ],
      "name": "requestMint",
      "outputs": [
        {
          "components": [
            {
              "components": [
                {
                  "internalType": "enum ICreatorCommands.CreatorActions",
                  "name": "method",
                  "type": "uint8"
                },
                {
                  "internalType": "bytes",
                  "name": "args",
                  "type": "bytes"
                }
              ],
              "internalType": "struct ICreatorCommands.Command[]",
              "name": "commands",
              "type": "tuple[]"
            },
            {
              "internalType": "uint256",
              "name": "at",
              "type": "uint256"
            }
          ],
          "internalType": "struct ICreatorCommands.CommandSet",
          "name": "commands",
          "type": "tuple"
        }
      ],
      "stateMutability": "nonpayable",
      "type": "function"
    },
    {
      "inputs": [
        {
          "internalType": "uint256",
          "name": "tokenId",
          "type": "uint256"
        }
      ],
      "name": "resetSale",
      "outputs": [],
      "stateMutability": "nonpayable",
      "type": "function"
    },
    {
      "inputs": [
        {
          "internalType": "address",
          "name": "tokenContract",
          "type": "address"
        },
        {
          "internalType": "uint256",
          "name": "tokenId",
          "type": "uint256"
        }
      ],
      "name": "sale",
      "outputs": [
        {
          "components": [
            {
              "internalType": "uint64",
              "name": "presaleStart",
              "type": "uint64"
            },
            {
              "internalType": "uint64",
              "name": "presaleEnd",
              "type": "uint64"
            },
            {
              "internalType": "address",
              "name": "fundsRecipient",
              "type": "address"
            },
            {
              "internalType": "bytes32",
              "name": "merkleRoot",
              "type": "bytes32"
            }
          ],
          "internalType": "struct ZoraCreatorMerkleMinterStrategy.MerkleSaleSettings",
          "name": "",
          "type": "tuple"
        }
      ],
      "stateMutability": "view",
      "type": "function"
    },
    {
      "inputs": [
        {
          "internalType": "uint256",
          "name": "tokenId",
          "type": "uint256"
        },
        {
          "components": [
            {
              "internalType": "uint64",
              "name": "presaleStart",
              "type": "uint64"
            },
            {
              "internalType": "uint64",
              "name": "presaleEnd",
              "type": "uint64"
            },
            {
              "internalType": "address",
              "name": "fundsRecipient",
              "type": "address"
            },
            {
              "internalType": "bytes32",
              "name": "merkleRoot",
              "type": "bytes32"
            }
          ],
          "internalType": "struct ZoraCreatorMerkleMinterStrategy.MerkleSaleSettings",
          "name": "merkleSaleSettings",
          "type": "tuple"
        }
      ],
      "name": "setSale",
      "outputs": [],
      "stateMutability": "nonpayable",
      "type": "function"
    },
    {
      "inputs": [
        {
          "internalType": "bytes4",
          "name": "interfaceId",
          "type": "bytes4"
        }
      ],
      "name": "supportsInterface",
      "outputs": [
        {
          "internalType": "bool",
          "name": "",
          "type": "bool"
        }
      ],
      "stateMutability": "pure",
      "type": "function"
    }
  ],
  "bytecode": "0x608060405234801561001057600080fd5b50610f85806100206000396000f3fe608060405234801561001057600080fd5b506004361061008e5760003560e01c806301ffc9a71461009357806319b45c4f146100bb578063515740a6146100d0578063611efc09146100e35780636890e5b31461018457806370fe2a26146101a457806375d0c0dc146102325780637b49ff2c14610270578063a0a8e460146102bd578063e8a3d485146102de575b600080fd5b6100a66100a13660046109a5565b6102e6565b60405190151581526020015b60405180910390f35b6100ce6100c93660046109cf565b610315565b005b6100ce6100de366004610a62565b610390565b6101776100f1366004610af7565b60408051608080820183526000808352602080840182905283850182905260609384018290526001600160a01b0396871682526001808252858320968352958152908490208451928301855280546001600160401b038082168552600160401b909104169183019190915293840154909416918401919091526002909101549082015290565b6040516100b29190610b23565b610197610192366004610b65565b610437565b6040516100b29190610c4b565b6101f96101b2366004610af7565b600160208181526000938452604080852090915291835291208054918101546002909101546001600160401b0380841693600160401b900416916001600160a01b03169084565b604080516001600160401b0395861681529490931660208501526001600160a01b039091169183019190915260608201526080016100b2565b6040805180820190915260198152784d65726b6c6520547265652053616c6520537472617465677960381b60208201525b6040516100b29190610cf1565b6102af61027e366004610d04565b6001600160a01b03928316600090815260208181526040808320948352938152838220929094168152925290205490565b6040519081526020016100b2565b6040805180820190915260058152640312e302e360dc1b6020820152610263565b61026361069e565b60006102f1826106be565b806103005750610300826106be565b8061030f575061030f826106d4565b92915050565b336000818152600160208181526040808420868552825280842080546001600160801b031916815592830180546001600160a01b0319169055600290920183905581518381529081018390529081018290526060810191909152829190600080516020610f308339815191529060800160405180910390a350565b33600081815260016020818152604080842087855282529283902085518154928701516001600160401b03908116600160401b026001600160801b03199094169116179190911781558285015191810180546001600160a01b03939093166001600160a01b031990931692909217909155606084015160029091015551839190600080516020610f308339815191529061042b908590610b23565b60405180910390a35050565b604080518082019091526060815260006020820152600080808061045d86880188610d46565b9350935093509350600060016000336001600160a01b03166001600160a01b0316815260200190815260200160002060008c81526020019081526020016000206040518060800160405290816000820160009054906101000a90046001600160401b03166001600160401b03166001600160401b031681526020016000820160089054906101000a90046001600160401b03166001600160401b03166001600160401b031681526020016001820160009054906101000a90046001600160a01b03166001600160a01b03166001600160a01b03168152602001600282015481525050905080602001516001600160401b031642111561056f57604051630bd8a3eb60e01b815260040160405180910390fd5b80516001600160401b031642101561059a576040516374626dc160e11b815260040160405180910390fd5b6105d38282606001518787876040516020016105b893929190610e11565b6040516020818303038152906040528051906020012061070a565b610603578482826060015160405163076e3ab960e51b81526004016105fa93929190610e32565b60405180910390fd5b831561061657610616848b338e89610720565b88610621848c610ea7565b1461063f57604051632f4613eb60e01b815260040160405180910390fd5b60408101516001600160a01b0316151561066b8161065e576001610661565b60025b889060ff166107e7565b61067787878e8e61084c565b801561068e57604082015161068e9088908c6108b5565b5050505050509695505050505050565b60606040518060600160405280602f8152602001610f01602f9139905090565b6001600160e01b031916631ed27fcb60e21b1490565b60006001600160e01b03198216636890e5b360e01b148061030f57506001600160e01b031982166301ffc9a760e01b1492915050565b6000826107178584610926565b14949350505050565b6001600160a01b0380841660009081526020818152604080832086845282528083209385168352929052908120805486929061075d908490610ebe565b90915550506001600160a01b038084166000908152602081815260408083208684528252808320938516835292905220548510156107e0576001600160a01b03808416600090815260208181526040808320868452825280832093851683529290528190205490516338b6455960e21b81526105fa918391889190600401610e11565b5050505050565b806001600160401b038111156107ff576107ff6109e8565b60405190808252806020026020018201604052801561084557816020015b60408051808201909152600081526060602082015281526020019060019003908161081d5790505b5090915250565b60408051808201909152806002815260200184848460405160200161087393929190610e11565b60408051601f198184030181529190529052845160208601805160018101909152815181106108a4576108a4610ed1565b602002602001018190525050505050565b6040805180820182526001815281516001600160a01b038516602082810191909152928101849052909182019060600160408051601f1981840301815291905290528351602085018051600181019091528151811061091657610916610ed1565b6020026020010181905250505050565b600081815b845181101561096b576109578286838151811061094a5761094a610ed1565b6020026020010151610973565b91508061096381610ee7565b91505061092b565b509392505050565b600081831061098f57600082815260208490526040902061099e565b60008381526020839052604090205b9392505050565b6000602082840312156109b757600080fd5b81356001600160e01b03198116811461099e57600080fd5b6000602082840312156109e157600080fd5b5035919050565b634e487b7160e01b600052604160045260246000fd5b604051601f8201601f191681016001600160401b0381118282101715610a2657610a266109e8565b604052919050565b80356001600160401b0381168114610a4557600080fd5b919050565b6001600160a01b0381168114610a5f57600080fd5b50565b60008082840360a0811215610a7657600080fd5b833592506080601f1982011215610a8c57600080fd5b50604051608081016001600160401b0381118282101715610aaf57610aaf6109e8565b604052610abe60208501610a2e565b8152610acc60408501610a2e565b60208201526060840135610adf81610a4a565b60408201526080939093013560608401525092909150565b60008060408385031215610b0a57600080fd5b8235610b1581610a4a565b946020939093013593505050565b81516001600160401b039081168252602080840151909116908201526040828101516001600160a01b0316908201526060918201519181019190915260800190565b60008060008060008060a08789031215610b7e57600080fd5b8635610b8981610a4a565b955060208701359450604087013593506060870135925060808701356001600160401b0380821115610bba57600080fd5b818901915089601f830112610bce57600080fd5b813581811115610bdd57600080fd5b8a6020828501011115610bef57600080fd5b6020830194508093505050509295509295509295565b6000815180845260005b81811015610c2b57602081850181015186830182015201610c0f565b506000602082860101526020601f19601f83011685010191505092915050565b600060208083526060830184516040808487015282825180855260808801915060808160051b890101945085840193506000805b82811015610cda57898703607f190184528551805160038110610cb057634e487b7160e01b84526021600452602484fd5b8852880151888801869052610cc786890182610c05565b9750509487019492870192600101610c7f565b505050509290950151939091019290925250919050565b60208152600061099e6020830184610c05565b600080600060608486031215610d1957600080fd5b8335610d2481610a4a565b9250602084013591506040840135610d3b81610a4a565b809150509250925092565b60008060008060808587031215610d5c57600080fd5b8435610d6781610a4a565b935060208581013593506040860135925060608601356001600160401b0380821115610d9257600080fd5b818801915088601f830112610da657600080fd5b813581811115610db857610db86109e8565b8060051b9150610dc98483016109fe565b818152918301840191848101908b841115610de357600080fd5b938501935b83851015610e0157843582529385019390850190610de8565b989b979a50959850505050505050565b6001600160a01b039390931683526020830191909152604082015260600190565b6001600160a01b038416815260606020808301829052845191830182905260009185820191906080850190845b81811015610e7b57845183529383019391830191600101610e5f565b5050809350505050826040830152949350505050565b634e487b7160e01b600052601160045260246000fd5b808202811582820484141761030f5761030f610e91565b8082018082111561030f5761030f610e91565b634e487b7160e01b600052603260045260246000fd5b600060018201610ef957610ef9610e91565b506001019056fe68747470733a2f2f6769746875622e636f6d2f6f75727a6f72612f7a6f72612d313135352d636f6e7472616374732f82ae5a22c3160d46d62997cfa6f39886b3126a3701c0e42ff3ce4f0b1b6ad0e3a26469706673582212206c3485cc1e19a7bb707515d02a4d99e3348a9903906e3803bd11c830c6b13e8564736f6c63430008110033",
  "linkReferences": {},
  "deployedLinkReferences": {}
}