{
  "_format": "hh-sol-artifact-1",
  "contractName": "ZoraCreator1155PremintExecutorImpl",
  "sourceName": "contracts/zora/delegation/ZoraCreator1155PremintExecutorImpl.sol",
  "abi": [
    {
      "inputs": [
        {
          "internalType": "contract IZoraCreator1155Factory",
          "name": "_factory",
          "type": "address"
        }
      ],
      "stateMutability": "nonpayable",
      "type": "constructor"
    },
    {
      "inputs": [],
      "name": "ADDRESS_DELEGATECALL_TO_NON_CONTRACT",
      "type": "error"
    },
    {
      "inputs": [],
      "name": "ADDRESS_LOW_LEVEL_CALL_FAILED",
      "type": "error"
    },
    {
      "inputs": [
        {
          "internalType": "address",
          "name": "operator",
          "type": "address"
        },
        {
          "internalType": "address",
          "name": "user",
          "type": "address"
        }
      ],
      "name": "Burn_NotOwnerOrApproved",
      "type": "error"
    },
    {
      "inputs": [],
      "name": "CREATOR_FUNDS_RECIPIENT_NOT_SET",
      "type": "error"
    },
    {
      "inputs": [
        {
          "internalType": "bytes",
          "name": "reason",
          "type": "bytes"
        }
      ],
      "name": "CallFailed",
      "type": "error"
    },
    {
      "inputs": [],
      "name": "Call_TokenIdMismatch",
      "type": "error"
    },
    {
      "inputs": [],
      "name": "CallerNotZoraCreator1155",
      "type": "error"
    },
    {
      "inputs": [
        {
          "internalType": "uint256",
          "name": "tokenId",
          "type": "uint256"
        },
        {
          "internalType": "uint256",
          "name": "quantity",
          "type": "uint256"
        },
        {
          "internalType": "uint256",
          "name": "totalMinted",
          "type": "uint256"
        },
        {
          "internalType": "uint256",
          "name": "maxSupply",
          "type": "uint256"
        }
      ],
      "name": "CannotMintMoreTokens",
      "type": "error"
    },
    {
      "inputs": [
        {
          "internalType": "address",
          "name": "proposedAddress",
          "type": "address"
        }
      ],
      "name": "Config_TransferHookNotSupported",
      "type": "error"
    },
    {
      "inputs": [],
      "name": "ERC1155_MINT_TO_ZERO_ADDRESS",
      "type": "error"
    },
    {
      "inputs": [],
      "name": "ERC1967_NEW_IMPL_NOT_CONTRACT",
      "type": "error"
    },
    {
      "inputs": [],
      "name": "ERC1967_NEW_IMPL_NOT_UUPS",
      "type": "error"
    },
    {
      "inputs": [],
      "name": "ERC1967_UNSUPPORTED_PROXIABLEUUID",
      "type": "error"
    },
    {
      "inputs": [
        {
          "internalType": "address",
          "name": "recipient",
          "type": "address"
        },
        {
          "internalType": "uint256",
          "name": "amount",
          "type": "uint256"
        }
      ],
      "name": "ETHWithdrawFailed",
      "type": "error"
    },
    {
      "inputs": [],
      "name": "FUNCTION_MUST_BE_CALLED_THROUGH_ACTIVE_PROXY",
      "type": "error"
    },
    {
      "inputs": [],
      "name": "FUNCTION_MUST_BE_CALLED_THROUGH_DELEGATECALL",
      "type": "error"
    },
    {
      "inputs": [
        {
          "internalType": "uint256",
          "name": "amount",
          "type": "uint256"
        },
        {
          "internalType": "uint256",
          "name": "contractValue",
          "type": "uint256"
        }
      ],
      "name": "FundsWithdrawInsolvent",
      "type": "error"
    },
    {
      "inputs": [],
      "name": "INITIALIZABLE_CONTRACT_ALREADY_INITIALIZED",
      "type": "error"
    },
    {
      "inputs": [],
      "name": "INITIALIZABLE_CONTRACT_IS_INITIALIZING",
      "type": "error"
    },
    {
      "inputs": [],
      "name": "INITIALIZABLE_CONTRACT_IS_NOT_INITIALIZING",
      "type": "error"
    },
    {
      "inputs": [],
      "name": "INVALID_ADDRESS_ZERO",
      "type": "error"
    },
    {
      "inputs": [],
      "name": "INVALID_ETH_AMOUNT",
      "type": "error"
    },
    {
      "inputs": [
        {
          "internalType": "address",
          "name": "mintTo",
          "type": "address"
        },
        {
          "internalType": "bytes32[]",
          "name": "merkleProof",
          "type": "bytes32[]"
        },
        {
          "internalType": "bytes32",
          "name": "merkleRoot",
          "type": "bytes32"
        }
      ],
      "name": "InvalidMerkleProof",
      "type": "error"
    },
    {
      "inputs": [],
      "name": "InvalidMintSchedule",
      "type": "error"
    },
    {
      "inputs": [
        {
          "internalType": "enum ECDSAUpgradeable.RecoverError",
          "name": "recoverError",
          "type": "uint8"
        }
      ],
      "name": "InvalidSignature",
      "type": "error"
    },
    {
      "inputs": [],
      "name": "InvalidSignatureVersion",
      "type": "error"
    },
    {
      "inputs": [
        {
          "internalType": "bytes4",
          "name": "magicValue",
          "type": "bytes4"
        }
      ],
      "name": "InvalidSigner",
      "type": "error"
    },
    {
      "inputs": [],
      "name": "MintNotYetStarted",
      "type": "error"
    },
    {
      "inputs": [],
      "name": "Mint_InsolventSaleTransfer",
      "type": "error"
    },
    {
      "inputs": [],
      "name": "Mint_TokenIDMintNotAllowed",
      "type": "error"
    },
    {
      "inputs": [],
      "name": "Mint_UnknownCommand",
      "type": "error"
    },
    {
      "inputs": [],
      "name": "Mint_ValueTransferFail",
      "type": "error"
    },
    {
      "inputs": [],
      "name": "MinterContractAlreadyExists",
      "type": "error"
    },
    {
      "inputs": [],
      "name": "MinterContractDoesNotExist",
      "type": "error"
    },
    {
      "inputs": [],
      "name": "NewOwnerNeedsToBeAdmin",
      "type": "error"
    },
    {
      "inputs": [],
      "name": "ONLY_CREATE_REFERRAL",
      "type": "error"
    },
    {
      "inputs": [],
      "name": "ONLY_OWNER",
      "type": "error"
    },
    {
      "inputs": [],
      "name": "ONLY_PENDING_OWNER",
      "type": "error"
    },
    {
      "inputs": [],
      "name": "OWNER_CANNOT_BE_ZERO_ADDRESS",
      "type": "error"
    },
    {
      "inputs": [],
      "name": "PremintDeleted",
      "type": "error"
    },
    {
      "inputs": [
        {
          "internalType": "address",
          "name": "caller",
          "type": "address"
        },
        {
          "internalType": "address",
          "name": "recipient",
          "type": "address"
        },
        {
          "internalType": "uint256",
          "name": "amount",
          "type": "uint256"
        }
      ],
      "name": "ProtocolRewardsWithdrawFailed",
      "type": "error"
    },
    {
      "inputs": [],
      "name": "Renderer_NotValidRendererContract",
      "type": "error"
    },
    {
      "inputs": [],
      "name": "SaleEnded",
      "type": "error"
    },
    {
      "inputs": [],
      "name": "SaleHasNotStarted",
      "type": "error"
    },
    {
      "inputs": [
        {
          "internalType": "address",
          "name": "targetContract",
          "type": "address"
        }
      ],
      "name": "Sale_CannotCallNonSalesContract",
      "type": "error"
    },
    {
      "inputs": [
        {
          "internalType": "uint256",
          "name": "expected",
          "type": "uint256"
        },
        {
          "internalType": "uint256",
          "name": "actual",
          "type": "uint256"
        }
      ],
      "name": "TokenIdMismatch",
      "type": "error"
    },
    {
      "inputs": [],
      "name": "UUPS_UPGRADEABLE_MUST_NOT_BE_CALLED_THROUGH_DELEGATECALL",
      "type": "error"
    },
    {
      "inputs": [
        {
          "internalType": "string",
          "name": "expected",
          "type": "string"
        },
        {
          "internalType": "string",
          "name": "actual",
          "type": "string"
        }
      ],
      "name": "UpgradeToMismatchedContractName",
      "type": "error"
    },
    {
      "inputs": [
        {
          "internalType": "address",
          "name": "user",
          "type": "address"
        },
        {
          "internalType": "uint256",
          "name": "limit",
          "type": "uint256"
        },
        {
          "internalType": "uint256",
          "name": "requestedAmount",
          "type": "uint256"
        }
      ],
      "name": "UserExceedsMintLimit",
      "type": "error"
    },
    {
      "inputs": [
        {
          "internalType": "address",
          "name": "user",
          "type": "address"
        },
        {
          "internalType": "uint256",
          "name": "tokenId",
          "type": "uint256"
        },
        {
          "internalType": "uint256",
          "name": "role",
          "type": "uint256"
        }
      ],
      "name": "UserMissingRoleForToken",
      "type": "error"
    },
    {
      "inputs": [],
      "name": "WrongValueSent",
      "type": "error"
    },
    {
      "inputs": [],
      "name": "premintSignerContractFailedToRecoverSigner",
      "type": "error"
    },
    {
      "inputs": [],
      "name": "premintSignerContractNotAContract",
      "type": "error"
    },
    {
      "anonymous": false,
      "inputs": [
        {
          "indexed": false,
          "internalType": "address",
          "name": "previousAdmin",
          "type": "address"
        },
        {
          "indexed": false,
          "internalType": "address",
          "name": "newAdmin",
          "type": "address"
        }
      ],
      "name": "AdminChanged",
      "type": "event"
    },
    {
      "anonymous": false,
      "inputs": [
        {
          "indexed": true,
          "internalType": "address",
          "name": "beacon",
          "type": "address"
        }
      ],
      "name": "BeaconUpgraded",
      "type": "event"
    },
    {
      "anonymous": false,
      "inputs": [
        {
          "indexed": false,
          "internalType": "uint8",
          "name": "version",
          "type": "uint8"
        }
      ],
      "name": "Initialized",
      "type": "event"
    },
    {
      "anonymous": false,
      "inputs": [
        {
          "indexed": true,
          "internalType": "address",
          "name": "owner",
          "type": "address"
        },
        {
          "indexed": true,
          "internalType": "address",
          "name": "canceledOwner",
          "type": "address"
        }
      ],
      "name": "OwnerCanceled",
      "type": "event"
    },
    {
      "anonymous": false,
      "inputs": [
        {
          "indexed": true,
          "internalType": "address",
          "name": "owner",
          "type": "address"
        },
        {
          "indexed": true,
          "internalType": "address",
          "name": "pendingOwner",
          "type": "address"
        }
      ],
      "name": "OwnerPending",
      "type": "event"
    },
    {
      "anonymous": false,
      "inputs": [
        {
          "indexed": true,
          "internalType": "address",
          "name": "prevOwner",
          "type": "address"
        },
        {
          "indexed": true,
          "internalType": "address",
          "name": "newOwner",
          "type": "address"
        }
      ],
      "name": "OwnerUpdated",
      "type": "event"
    },
    {
      "anonymous": false,
      "inputs": [
        {
          "indexed": true,
          "internalType": "address",
          "name": "contractAddress",
          "type": "address"
        },
        {
          "indexed": true,
          "internalType": "uint256",
          "name": "tokenId",
          "type": "uint256"
        },
        {
          "indexed": true,
          "internalType": "bool",
          "name": "createdNewContract",
          "type": "bool"
        },
        {
          "indexed": false,
          "internalType": "uint32",
          "name": "uid",
          "type": "uint32"
        },
        {
          "components": [
            {
              "internalType": "address",
              "name": "contractAdmin",
              "type": "address"
            },
            {
              "internalType": "string",
              "name": "contractURI",
              "type": "string"
            },
            {
              "internalType": "string",
              "name": "contractName",
              "type": "string"
            }
          ],
          "indexed": false,
          "internalType": "struct ContractCreationConfig",
          "name": "contractConfig",
          "type": "tuple"
        },
        {
          "components": [
            {
              "internalType": "string",
              "name": "tokenURI",
              "type": "string"
            },
            {
              "internalType": "uint256",
              "name": "maxSupply",
              "type": "uint256"
            },
            {
              "internalType": "uint64",
              "name": "maxTokensPerAddress",
              "type": "uint64"
            },
            {
              "internalType": "uint96",
              "name": "pricePerToken",
              "type": "uint96"
            },
            {
              "internalType": "uint64",
              "name": "mintStart",
              "type": "uint64"
            },
            {
              "internalType": "uint64",
              "name": "mintDuration",
              "type": "uint64"
            },
            {
              "internalType": "uint32",
              "name": "royaltyMintSchedule",
              "type": "uint32"
            },
            {
              "internalType": "uint32",
              "name": "royaltyBPS",
              "type": "uint32"
            },
            {
              "internalType": "address",
              "name": "royaltyRecipient",
              "type": "address"
            },
            {
              "internalType": "address",
              "name": "fixedPriceMinter",
              "type": "address"
            }
          ],
          "indexed": false,
          "internalType": "struct TokenCreationConfig",
          "name": "tokenConfig",
          "type": "tuple"
        },
        {
          "indexed": false,
          "internalType": "address",
          "name": "minter",
          "type": "address"
        },
        {
          "indexed": false,
          "internalType": "uint256",
          "name": "quantityMinted",
          "type": "uint256"
        }
      ],
      "name": "Preminted",
      "type": "event"
    },
    {
      "anonymous": false,
      "inputs": [
        {
          "indexed": true,
          "internalType": "address",
          "name": "contractAddress",
          "type": "address"
        },
        {
          "indexed": true,
          "internalType": "uint256",
          "name": "tokenId",
          "type": "uint256"
        },
        {
          "indexed": true,
          "internalType": "bool",
          "name": "createdNewContract",
          "type": "bool"
        },
        {
          "indexed": false,
          "internalType": "uint32",
          "name": "uid",
          "type": "uint32"
        },
        {
          "indexed": false,
          "internalType": "address",
          "name": "minter",
          "type": "address"
        },
        {
          "indexed": false,
          "internalType": "uint256",
          "name": "quantityMinted",
          "type": "uint256"
        }
      ],
      "name": "PremintedV2",
      "type": "event"
    },
    {
      "anonymous": false,
      "inputs": [
        {
          "indexed": true,
          "internalType": "address",
          "name": "implementation",
          "type": "address"
        }
      ],
      "name": "Upgraded",
      "type": "event"
    },
    {
      "inputs": [],
      "name": "acceptOwnership",
      "outputs": [],
      "stateMutability": "nonpayable",
      "type": "function"
    },
    {
      "inputs": [],
      "name": "cancelOwnershipTransfer",
      "outputs": [],
      "stateMutability": "nonpayable",
      "type": "function"
    },
    {
      "inputs": [],
      "name": "contractName",
      "outputs": [
        {
          "internalType": "string",
          "name": "",
          "type": "string"
        }
      ],
      "stateMutability": "pure",
      "type": "function"
    },
    {
      "inputs": [
        {
          "components": [
            {
              "internalType": "address",
              "name": "contractAdmin",
              "type": "address"
            },
            {
              "internalType": "string",
              "name": "contractURI",
              "type": "string"
            },
            {
              "internalType": "string",
              "name": "contractName",
              "type": "string"
            }
          ],
          "internalType": "struct ContractCreationConfig",
          "name": "contractConfig",
          "type": "tuple"
        }
      ],
      "name": "getContractAddress",
      "outputs": [
        {
          "internalType": "address",
          "name": "",
          "type": "address"
        }
      ],
      "stateMutability": "view",
      "type": "function"
    },
    {
      "inputs": [],
      "name": "implementation",
      "outputs": [
        {
          "internalType": "address",
          "name": "",
          "type": "address"
        }
      ],
      "stateMutability": "view",
      "type": "function"
    },
    {
      "inputs": [
        {
          "internalType": "address",
          "name": "_initialOwner",
          "type": "address"
        }
      ],
      "name": "initialize",
      "outputs": [],
      "stateMutability": "nonpayable",
      "type": "function"
    },
    {
      "inputs": [
        {
          "internalType": "address",
          "name": "signer",
          "type": "address"
        },
        {
          "internalType": "address",
          "name": "premintContractConfigContractAdmin",
          "type": "address"
        },
        {
          "internalType": "address",
          "name": "contractAddress",
          "type": "address"
        }
      ],
      "name": "isAuthorizedToCreatePremint",
      "outputs": [
        {
          "internalType": "bool",
          "name": "isAuthorized",
          "type": "bool"
        }
      ],
      "stateMutability": "view",
      "type": "function"
    },
    {
      "inputs": [
        {
          "components": [
            {
              "internalType": "address",
              "name": "contractAdmin",
              "type": "address"
            },
            {
              "internalType": "string",
              "name": "contractURI",
              "type": "string"
            },
            {
              "internalType": "string",
              "name": "contractName",
              "type": "string"
            }
          ],
          "internalType": "struct ContractCreationConfig",
          "name": "contractConfig",
          "type": "tuple"
        },
        {
          "components": [
            {
              "components": [
                {
                  "internalType": "string",
                  "name": "tokenURI",
                  "type": "string"
                },
                {
                  "internalType": "uint256",
                  "name": "maxSupply",
                  "type": "uint256"
                },
                {
                  "internalType": "uint64",
                  "name": "maxTokensPerAddress",
                  "type": "uint64"
                },
                {
                  "internalType": "uint96",
                  "name": "pricePerToken",
                  "type": "uint96"
                },
                {
                  "internalType": "uint64",
                  "name": "mintStart",
                  "type": "uint64"
                },
                {
                  "internalType": "uint64",
                  "name": "mintDuration",
                  "type": "uint64"
                },
                {
                  "internalType": "uint32",
                  "name": "royaltyMintSchedule",
                  "type": "uint32"
                },
                {
                  "internalType": "uint32",
                  "name": "royaltyBPS",
                  "type": "uint32"
                },
                {
                  "internalType": "address",
                  "name": "royaltyRecipient",
                  "type": "address"
                },
                {
                  "internalType": "address",
                  "name": "fixedPriceMinter",
                  "type": "address"
                }
              ],
              "internalType": "struct TokenCreationConfig",
              "name": "tokenConfig",
              "type": "tuple"
            },
            {
              "internalType": "uint32",
              "name": "uid",
              "type": "uint32"
            },
            {
              "internalType": "uint32",
              "name": "version",
              "type": "uint32"
            },
            {
              "internalType": "bool",
              "name": "deleted",
              "type": "bool"
            }
          ],
          "internalType": "struct PremintConfig",
          "name": "premintConfig",
          "type": "tuple"
        },
        {
          "internalType": "bytes",
          "name": "signature",
          "type": "bytes"
        }
      ],
      "name": "isValidSignature",
      "outputs": [
        {
          "internalType": "bool",
          "name": "isValid",
          "type": "bool"
        },
        {
          "internalType": "address",
          "name": "contractAddress",
          "type": "address"
        },
        {
          "internalType": "address",
          "name": "recoveredSigner",
          "type": "address"
        }
      ],
      "stateMutability": "view",
      "type": "function"
    },
    {
      "inputs": [
        {
          "internalType": "address",
          "name": "collectionAddress",
          "type": "address"
        }
      ],
      "name": "mintFee",
      "outputs": [
        {
          "internalType": "uint256",
          "name": "",
          "type": "uint256"
        }
      ],
      "stateMutability": "view",
      "type": "function"
    },
    {
      "inputs": [],
      "name": "owner",
      "outputs": [
        {
          "internalType": "address",
          "name": "",
          "type": "address"
        }
      ],
      "stateMutability": "view",
      "type": "function"
    },
    {
      "inputs": [],
      "name": "pendingOwner",
      "outputs": [
        {
          "internalType": "address",
          "name": "",
          "type": "address"
        }
      ],
      "stateMutability": "view",
      "type": "function"
    },
    {
      "inputs": [
        {
          "internalType": "address",
          "name": "contractAddress",
          "type": "address"
        },
        {
          "internalType": "uint32",
          "name": "uid",
          "type": "uint32"
        }
      ],
      "name": "premintStatus",
      "outputs": [
        {
          "internalType": "bool",
          "name": "contractCreated",
          "type": "bool"
        },
        {
          "internalType": "uint256",
          "name": "tokenIdForPremint",
          "type": "uint256"
        }
      ],
      "stateMutability": "view",
      "type": "function"
    },
    {
      "inputs": [
        {
          "components": [
            {
              "internalType": "address",
              "name": "contractAdmin",
              "type": "address"
            },
            {
              "internalType": "string",
              "name": "contractURI",
              "type": "string"
            },
            {
              "internalType": "string",
              "name": "contractName",
              "type": "string"
            }
          ],
          "internalType": "struct ContractCreationConfig",
          "name": "contractConfig",
          "type": "tuple"
        },
        {
          "components": [
            {
              "components": [
                {
                  "internalType": "string",
                  "name": "tokenURI",
                  "type": "string"
                },
                {
                  "internalType": "uint256",
                  "name": "maxSupply",
                  "type": "uint256"
                },
                {
                  "internalType": "uint64",
                  "name": "maxTokensPerAddress",
                  "type": "uint64"
                },
                {
                  "internalType": "uint96",
                  "name": "pricePerToken",
                  "type": "uint96"
                },
                {
                  "internalType": "uint64",
                  "name": "mintStart",
                  "type": "uint64"
                },
                {
                  "internalType": "uint64",
                  "name": "mintDuration",
                  "type": "uint64"
                },
                {
                  "internalType": "uint32",
                  "name": "royaltyMintSchedule",
                  "type": "uint32"
                },
                {
                  "internalType": "uint32",
                  "name": "royaltyBPS",
                  "type": "uint32"
                },
                {
                  "internalType": "address",
                  "name": "royaltyRecipient",
                  "type": "address"
                },
                {
                  "internalType": "address",
                  "name": "fixedPriceMinter",
                  "type": "address"
                }
              ],
              "internalType": "struct TokenCreationConfig",
              "name": "tokenConfig",
              "type": "tuple"
            },
            {
              "internalType": "uint32",
              "name": "uid",
              "type": "uint32"
            },
            {
              "internalType": "uint32",
              "name": "version",
              "type": "uint32"
            },
            {
              "internalType": "bool",
              "name": "deleted",
              "type": "bool"
            }
          ],
          "internalType": "struct PremintConfig",
          "name": "premintConfig",
          "type": "tuple"
        },
        {
          "internalType": "bytes",
          "name": "signature",
          "type": "bytes"
        },
        {
          "internalType": "uint256",
          "name": "quantityToMint",
          "type": "uint256"
        },
        {
          "components": [
            {
              "internalType": "address",
              "name": "mintRecipient",
              "type": "address"
            },
            {
              "internalType": "string",
              "name": "mintComment",
              "type": "string"
            },
            {
              "internalType": "address[]",
              "name": "mintRewardsRecipients",
              "type": "address[]"
            }
          ],
          "internalType": "struct IZoraCreator1155PremintExecutor.MintArguments",
          "name": "mintArguments",
          "type": "tuple"
        }
      ],
      "name": "premintV1",
      "outputs": [
        {
          "components": [
            {
              "internalType": "address",
              "name": "contractAddress",
              "type": "address"
            },
            {
              "internalType": "uint256",
              "name": "tokenId",
              "type": "uint256"
            },
            {
              "internalType": "bool",
              "name": "createdNewContract",
              "type": "bool"
            }
          ],
          "internalType": "struct IZoraCreator1155PremintExecutor.PremintResult",
          "name": "result",
          "type": "tuple"
        }
      ],
      "stateMutability": "payable",
      "type": "function"
    },
    {
      "inputs": [
        {
          "components": [
            {
              "internalType": "address",
              "name": "contractAdmin",
              "type": "address"
            },
            {
              "internalType": "string",
              "name": "contractURI",
              "type": "string"
            },
            {
              "internalType": "string",
              "name": "contractName",
              "type": "string"
            }
          ],
          "internalType": "struct ContractCreationConfig",
          "name": "contractConfig",
          "type": "tuple"
        },
        {
          "components": [
            {
              "components": [
                {
                  "internalType": "string",
                  "name": "tokenURI",
                  "type": "string"
                },
                {
                  "internalType": "uint256",
                  "name": "maxSupply",
                  "type": "uint256"
                },
                {
                  "internalType": "uint64",
                  "name": "maxTokensPerAddress",
                  "type": "uint64"
                },
                {
                  "internalType": "uint96",
                  "name": "pricePerToken",
                  "type": "uint96"
                },
                {
                  "internalType": "uint64",
                  "name": "mintStart",
                  "type": "uint64"
                },
                {
                  "internalType": "uint64",
                  "name": "mintDuration",
                  "type": "uint64"
                },
                {
                  "internalType": "uint32",
                  "name": "royaltyBPS",
                  "type": "uint32"
                },
                {
                  "internalType": "address",
                  "name": "payoutRecipient",
                  "type": "address"
                },
                {
                  "internalType": "address",
                  "name": "fixedPriceMinter",
                  "type": "address"
                },
                {
                  "internalType": "address",
                  "name": "createReferral",
                  "type": "address"
                }
              ],
              "internalType": "struct TokenCreationConfigV2",
              "name": "tokenConfig",
              "type": "tuple"
            },
            {
              "internalType": "uint32",
              "name": "uid",
              "type": "uint32"
            },
            {
              "internalType": "uint32",
              "name": "version",
              "type": "uint32"
            },
            {
              "internalType": "bool",
              "name": "deleted",
              "type": "bool"
            }
          ],
          "internalType": "struct PremintConfigV2",
          "name": "premintConfig",
          "type": "tuple"
        },
        {
          "internalType": "bytes",
          "name": "signature",
          "type": "bytes"
        },
        {
          "internalType": "uint256",
          "name": "quantityToMint",
          "type": "uint256"
        },
        {
          "components": [
            {
              "internalType": "address",
              "name": "mintRecipient",
              "type": "address"
            },
            {
              "internalType": "string",
              "name": "mintComment",
              "type": "string"
            },
            {
              "internalType": "address[]",
              "name": "mintRewardsRecipients",
              "type": "address[]"
            }
          ],
          "internalType": "struct IZoraCreator1155PremintExecutor.MintArguments",
          "name": "mintArguments",
          "type": "tuple"
        }
      ],
      "name": "premintV2",
      "outputs": [
        {
          "components": [
            {
              "internalType": "address",
              "name": "contractAddress",
              "type": "address"
            },
            {
              "internalType": "uint256",
              "name": "tokenId",
              "type": "uint256"
            },
            {
              "internalType": "bool",
              "name": "createdNewContract",
              "type": "bool"
            }
          ],
          "internalType": "struct IZoraCreator1155PremintExecutor.PremintResult",
          "name": "result",
          "type": "tuple"
        }
      ],
      "stateMutability": "payable",
      "type": "function"
    },
    {
      "inputs": [
        {
          "components": [
            {
              "internalType": "address",
              "name": "contractAdmin",
              "type": "address"
            },
            {
              "internalType": "string",
              "name": "contractURI",
              "type": "string"
            },
            {
              "internalType": "string",
              "name": "contractName",
              "type": "string"
            }
          ],
          "internalType": "struct ContractCreationConfig",
          "name": "contractConfig",
          "type": "tuple"
        },
        {
          "components": [
            {
              "components": [
                {
                  "internalType": "string",
                  "name": "tokenURI",
                  "type": "string"
                },
                {
                  "internalType": "uint256",
                  "name": "maxSupply",
                  "type": "uint256"
                },
                {
                  "internalType": "uint64",
                  "name": "maxTokensPerAddress",
                  "type": "uint64"
                },
                {
                  "internalType": "uint96",
                  "name": "pricePerToken",
                  "type": "uint96"
                },
                {
                  "internalType": "uint64",
                  "name": "mintStart",
                  "type": "uint64"
                },
                {
                  "internalType": "uint64",
                  "name": "mintDuration",
                  "type": "uint64"
                },
                {
                  "internalType": "uint32",
                  "name": "royaltyBPS",
                  "type": "uint32"
                },
                {
                  "internalType": "address",
                  "name": "payoutRecipient",
                  "type": "address"
                },
                {
                  "internalType": "address",
                  "name": "fixedPriceMinter",
                  "type": "address"
                },
                {
                  "internalType": "address",
                  "name": "createReferral",
                  "type": "address"
                }
              ],
              "internalType": "struct TokenCreationConfigV2",
              "name": "tokenConfig",
              "type": "tuple"
            },
            {
              "internalType": "uint32",
              "name": "uid",
              "type": "uint32"
            },
            {
              "internalType": "uint32",
              "name": "version",
              "type": "uint32"
            },
            {
              "internalType": "bool",
              "name": "deleted",
              "type": "bool"
            }
          ],
          "internalType": "struct PremintConfigV2",
          "name": "premintConfig",
          "type": "tuple"
        },
        {
          "internalType": "bytes",
          "name": "signature",
          "type": "bytes"
        },
        {
          "internalType": "uint256",
          "name": "quantityToMint",
          "type": "uint256"
        },
        {
          "components": [
            {
              "internalType": "address",
              "name": "mintRecipient",
              "type": "address"
            },
            {
              "internalType": "string",
              "name": "mintComment",
              "type": "string"
            },
            {
              "internalType": "address[]",
              "name": "mintRewardsRecipients",
              "type": "address[]"
            }
          ],
          "internalType": "struct IZoraCreator1155PremintExecutor.MintArguments",
          "name": "mintArguments",
          "type": "tuple"
        },
        {
          "internalType": "address",
          "name": "signerContract",
          "type": "address"
        }
      ],
      "name": "premintV2WithSignerContract",
      "outputs": [
        {
          "components": [
            {
              "internalType": "address",
              "name": "contractAddress",
              "type": "address"
            },
            {
              "internalType": "uint256",
              "name": "tokenId",
              "type": "uint256"
            },
            {
              "internalType": "bool",
              "name": "createdNewContract",
              "type": "bool"
            }
          ],
          "internalType": "struct IZoraCreator1155PremintExecutor.PremintResult",
          "name": "result",
          "type": "tuple"
        }
      ],
      "stateMutability": "payable",
      "type": "function"
    },
    {
      "inputs": [],
      "name": "proxiableUUID",
      "outputs": [
        {
          "internalType": "bytes32",
          "name": "",
          "type": "bytes32"
        }
      ],
      "stateMutability": "view",
      "type": "function"
    },
    {
      "inputs": [],
      "name": "resignOwnership",
      "outputs": [],
      "stateMutability": "nonpayable",
      "type": "function"
    },
    {
      "inputs": [
        {
          "internalType": "address",
          "name": "_newOwner",
          "type": "address"
        }
      ],
      "name": "safeTransferOwnership",
      "outputs": [],
      "stateMutability": "nonpayable",
      "type": "function"
    },
    {
      "inputs": [
        {
          "internalType": "address",
          "name": "contractAddress",
          "type": "address"
        }
      ],
      "name": "supportedPremintSignatureVersions",
      "outputs": [
        {
          "internalType": "string[]",
          "name": "versions",
          "type": "string[]"
        }
      ],
      "stateMutability": "view",
      "type": "function"
    },
    {
      "inputs": [
        {
          "internalType": "address",
          "name": "_newOwner",
          "type": "address"
        }
      ],
      "name": "transferOwnership",
      "outputs": [],
      "stateMutability": "nonpayable",
      "type": "function"
    },
    {
      "inputs": [
        {
          "internalType": "address",
          "name": "newImplementation",
          "type": "address"
        }
      ],
      "name": "upgradeTo",
      "outputs": [],
      "stateMutability": "nonpayable",
      "type": "function"
    },
    {
      "inputs": [
        {
          "internalType": "address",
          "name": "newImplementation",
          "type": "address"
        },
        {
          "internalType": "bytes",
          "name": "data",
          "type": "bytes"
        }
      ],
      "name": "upgradeToAndCall",
      "outputs": [],
      "stateMutability": "payable",
      "type": "function"
    },
    {
      "inputs": [],
      "name": "zora1155Factory",
      "outputs": [
        {
          "internalType": "contract IZoraCreator1155Factory",
          "name": "",
          "type": "address"
        }
      ],
      "stateMutability": "view",
      "type": "function"
    }
  ],
  "bytecode": "0x60c0604052306080523480156200001557600080fd5b5060405162003987380380620039878339810160408190526200003891620000d4565b6001600160a01b03811660a0526200004f62000056565b5062000106565b603454610100900460ff1615620000805760405163ab28dc3f60e01b815260040160405180910390fd5b60345460ff90811614620000d2576034805460ff191660ff9081179091556040519081527f7f26b83ff96e1f2b6a682f133852f6798a09c465da95921460cefb38474024989060200160405180910390a15b565b600060208284031215620000e757600080fd5b81516001600160a01b0381168114620000ff57600080fd5b9392505050565b60805160a0516138236200016460003960008181610232015281816104d30152818161067b01528181610aa20152610f490152600081816106b0015281816106f10152818161081f0152818161086001526108dd01526138236000f3fe6080604052600436106101105760003560e01c806315c9cd391461011557806323452b9c1461015a57806323991d35146101715780632fc02bc2146101a85780633659cfe6146101e0578063395db2cd1461020057806349d99b1c146102205780634f1ef2861461025457806352d1902d14610267578063557fc1a51461028a5780635c60da1b146102ba57806360fe6e0a146102cf57806375d0c0dc1461031657806379ba50971461035f5780638da5cb5b146103745780639bd31f8914610392578063c4d66de8146103a5578063d0634749146103c5578063db0f5316146103d8578063e30c397814610405578063ed0c709114610423578063f2fde38b14610438578063f8b49e7214610458575b600080fd5b610128610123366004612496565b610478565b6040805182516001600160a01b0316815260208084015190820152918101511515908201526060015b60405180910390f35b34801561016657600080fd5b5061016f61055d565b005b34801561017d57600080fd5b5061019161018c36600461258c565b6105d7565b604080519215158352602083019190915201610151565b3480156101b457600080fd5b506101c86101c33660046125c5565b610674565b6040516001600160a01b039091168152602001610151565b3480156101ec57600080fd5b5061016f6101fb366004612601565b6106a6565b34801561020c57600080fd5b5061016f61021b366004612601565b610770565b34801561022c57600080fd5b506101c87f000000000000000000000000000000000000000000000000000000000000000081565b61016f610262366004612736565b610815565b34801561027357600080fd5b5061027c6108d0565b604051908152602001610151565b34801561029657600080fd5b506102aa6102a5366004612799565b61092e565b6040519015158152602001610151565b3480156102c657600080fd5b506101c8610945565b3480156102db57600080fd5b506102ef6102ea3660046127e4565b610954565b6040805193151584526001600160a01b039283166020850152911690820152606001610151565b34801561032257600080fd5b50604080518082018252601a8152792d27a9209018989a9a90283932b6b4b73a1022bc32b1baba37b960311b6020820152905161015191906128be565b34801561036b57600080fd5b5061016f6109eb565b34801561038057600080fd5b506000546001600160a01b03166101c8565b6101286103a03660046128d1565b610a47565b3480156103b157600080fd5b5061016f6103c0366004612601565b610b2b565b6101286103d33660046128d1565b610c04565b3480156103e457600080fd5b506103f86103f3366004612601565b610c27565b604051610151919061298b565b34801561041157600080fd5b506001546001600160a01b03166101c8565b34801561042f57600080fd5b5061016f610ea2565b34801561044457600080fd5b5061016f610453366004612601565b610ed7565b34801561046457600080fd5b5061027c610473366004612601565b610f33565b6104806123ec565b60008061049461048f8a612a66565b611068565b909250905060006104a58a80612baa565b6104b89061012081019061010001612601565b905060006104cc60408c0160208d01612bcb565b90506105097f00000000000000000000000000000000000000000000000000000000000000008d86868e8e8e898f61050390612c0b565b8f6110cb565b945084604001511515856020015186600001516001600160a01b03166000805160206137ae83398151915284338d60405161054693929190612ce7565b60405180910390a450505050979650505050505050565b6000546001600160a01b031633146105885760405163d238ed5960e01b815260040160405180910390fd5b600154600080546040516001600160a01b0393841693909116917f682679deecef4dcd49674845cc1e3a075fea9073680aa445a8207d5a4bdea3da91a3600180546001600160a01b0319169055565b600080836001600160a01b03163b6000036105f75750600090508061066d565b604051635eec327960e11b815263ffffffff841660048201526001906001600160a01b0386169063bdd864f290602401602060405180830381865afa158015610644573d6000803e3d6000fd5b505050506040513d601f19601f820116820180604052508101906106689190612d0e565b915091505b9250929050565b60006106a07f000000000000000000000000000000000000000000000000000000000000000083611362565b92915050565b6001600160a01b037f00000000000000000000000000000000000000000000000000000000000000001630036106ef57604051631932df4560e01b815260040160405180910390fd5b7f00000000000000000000000000000000000000000000000000000000000000006001600160a01b03166107216113fd565b6001600160a01b031614610748576040516364cd8d1960e01b815260040160405180910390fd5b61075181611419565b6040805160008082526020820190925261076d91839190611618565b50565b806001600160a01b03811661079857604051631627621f60e11b815260040160405180910390fd5b6000546001600160a01b031633146107c35760405163d238ed5960e01b815260040160405180910390fd5b600180546001600160a01b0319166001600160a01b0384811691821790925560008054604051929316917f4f2638f5949b9614ef8d5e268cb51348ad7f434a34812bf64b6e95014fbd357e9190a35050565b6001600160a01b037f000000000000000000000000000000000000000000000000000000000000000016300361085e57604051631932df4560e01b815260040160405180910390fd5b7f00000000000000000000000000000000000000000000000000000000000000006001600160a01b03166108906113fd565b6001600160a01b0316146108b7576040516364cd8d1960e01b815260040160405180910390fd5b6108c082611419565b6108cc82826001611618565b5050565b6000306001600160a01b037f0000000000000000000000000000000000000000000000000000000000000000161461091b57604051635e4c25f160e01b815260040160405180910390fd5b5060008051602061378e83398151915290565b600061093b848484611701565b90505b9392505050565b600061094f6113fd565b905090565b600080600061096287610674565b91506109ab61097861097388612d27565b6117ab565b6040805180820190915260018152603160f81b60209091015286868560008051602061376e833981519152466000611841565b90506001600160a01b0381166109c757600080925092506109e1565b6109de816109d860208a018a612601565b8461092e565b92505b9450945094915050565b6001546001600160a01b03163314610a165760405163065cd53160e01b815260040160405180910390fd5b6000805460405133926001600160a01b03909216916000805160206137ce83398151915291a3610a45336119d7565b565b610a4f6123ec565b600080610a63610a5e89612d27565b611a3a565b90925090506000610a748980612baa565b610a879061014081019061012001612601565b90506000610a9b60408b0160208c01612bcb565b9050610ad87f00000000000000000000000000000000000000000000000000000000000000008c86868d8d8d89610ad18f612c0b565b60006110cb565b945084604001511515856020015186600001516001600160a01b03166000805160206137ae83398151915284338c604051610b1593929190612ce7565b60405180910390a4505050509695505050505050565b603454610100900460ff1615801580610b48575060345460ff1615155b8015610b695750610b5830611a8b565b80610b69575060345460ff16600114155b15610b8757604051633d5c224160e11b815260040160405180910390fd5b6034805460ff191660011790558015610baa576034805461ff0019166101001790555b610bb382611a9a565b610bbb611b23565b80156108cc576034805461ff0019169055604051600181527f7f26b83ff96e1f2b6a682f133852f6798a09c465da95921460cefb38474024989060200160405180910390a15050565b610c0c6123ec565b610c1c8787878787876000610478565b979650505050505050565b6060816001600160a01b03163b600003610c43576106a0611b4a565b6040516301ffc9a760e01b815282906001600160a01b038216906301ffc9a790610c78906314b618b760e01b90600401612dff565b602060405180830381865afa158015610c95573d6000803e3d6000fd5b505050506040513d601f19601f82011682018060405250810190610cb99190612e1f565b80610d3357506040516301ffc9a760e01b81526001600160a01b038216906301ffc9a790610cf29063ed78891360e01b90600401612dff565b602060405180830381865afa158015610d0f573d6000803e3d6000fd5b505050506040513d601f19601f82011682018060405250810190610d339190612e1f565b15610d9e57826001600160a01b031663ed7889136040518163ffffffff1660e01b8152600401600060405180830381865afa158015610d76573d6000803e3d6000fd5b505050506040513d6000823e601f3d908101601f1916820160405261093e9190810190612e81565b604051635eec327960e11b8152600060048201526001600160a01b0384169063bdd864f290602401602060405180830381865afa925050508015610dff575060408051601f3d908101601f19168201909252610dfc91810190612d0e565b60015b610e36576040805160008082526020820190925290610e2e565b6060815260200190600190039081610e195790505b509150610e9c565b60408051600180825281830190925290816020015b6060815260200190600190039081610e4b579050509250604051806040016040528060018152602001603160f81b81525083600081518110610e8f57610e8f612f31565b6020026020010181905250505b50919050565b6000546001600160a01b03163314610ecd5760405163d238ed5960e01b815260040160405180910390fd5b610a4560006119d7565b806001600160a01b038116610eff57604051631627621f60e11b815260040160405180910390fd5b6000546001600160a01b03163314610f2a5760405163d238ed5960e01b815260040160405180910390fd5b6108cc826119d7565b6000816001600160a01b03163b60000361102a577f00000000000000000000000000000000000000000000000000000000000000006001600160a01b031663786d90db6040518163ffffffff1660e01b8152600401602060405180830381865afa158015610fa5573d6000803e3d6000fd5b505050506040513d601f19601f82011682018060405250810190610fc99190612f47565b6001600160a01b03166313966db56040518163ffffffff1660e01b8152600401602060405180830381865afa158015611006573d6000803e3d6000fd5b505050506040513d601f19601f820116820180604052508101906106a09190612d0e565b816001600160a01b03166313966db56040518163ffffffff1660e01b8152600401602060405180830381865afa158015611006573d6000803e3d6000fd5b606060008260405160200161107d9190612f71565b60408051808303601f1901815282820190915260018252601960f91b602090920191909152937fad7c5bef027816a800da1736444fb58a807ef4c9603b7848673f7e3a68eb14a59350915050565b6110d36123ec565b6000806110e08d8d611bea565b915091506000826001600160a01b03166301ffc9a763709e537f60e01b6040518263ffffffff1660e01b81526004016111199190612dff565b602060405180830381865afa158015611136573d6000803e3d6000fd5b505050506040513d601f19601f8201168201806040525081019061115a9190612e1f565b156111df5760405163709e537f60e01b81526001600160a01b0384169063709e537f90611195908f908f908f908f9033908d906004016130b2565b6020604051808303816000875af11580156111b4573d6000803e3d6000fd5b505050506040513d601f19601f820116820180604052508101906111d89190612d0e565b905061131f565b6040516301ffc9a760e01b81526001600160a01b038416906301ffc9a790611212906314b618b760e01b90600401612dff565b602060405180830381865afa15801561122f573d6000803e3d6000fd5b505050506040513d601f19601f820116820180604052508101906112539190612e1f565b15611310576001600160a01b038516156112dc576040805162461bcd60e51b81526020600482015260248101919091527f536d61727420636f6e7472616374207369676e696e67206e6f7420737570706f60448201527f72746564206f6e2076657273696f6e206f66203131353520636f6e747261637460648201526084015b60405180910390fd5b604051633e73a46960e21b81526001600160a01b0384169063f9ce91a490611195908f908f908f908f903390600401613105565b61131c838d8c8c611c2c565b90505b61132c8388838b8a611cc5565b604080516060810182526001600160a01b03909416845260208401919091529015159082015290509a9950505050505050505050565b60006001600160a01b03831663516f7ed230611381602086018661314c565b61138e604088018861314c565b61139b60208a018a612601565b6040518763ffffffff1660e01b81526004016113bc96959493929190613192565b602060405180830381865afa1580156113d9573d6000803e3d6000fd5b505050506040513d601f19601f8201168201806040525081019061093e9190612f47565b60008051602061378e833981519152546001600160a01b031690565b6000546001600160a01b031633146114445760405163d238ed5960e01b815260040160405180910390fd5b61152b816001600160a01b03166375d0c0dc6040518163ffffffff1660e01b81526004016000604051808303816000875af1158015611487573d6000803e3d6000fd5b505050506040513d6000823e601f3d908101601f191682016040526114af91908101906131ea565b306001600160a01b03166375d0c0dc6040518163ffffffff1660e01b8152600401600060405180830381865afa1580156114ed573d6000803e3d6000fd5b505050506040513d6000823e601f3d908101601f1916820160405261151591908101906131ea565b8051602091820120825192909101919091201490565b61076d57306001600160a01b03166375d0c0dc6040518163ffffffff1660e01b8152600401600060405180830381865afa15801561156d573d6000803e3d6000fd5b505050506040513d6000823e601f3d908101601f1916820160405261159591908101906131ea565b816001600160a01b03166375d0c0dc6040518163ffffffff1660e01b81526004016000604051808303816000875af11580156115d5573d6000803e3d6000fd5b505050506040513d6000823e601f3d908101601f191682016040526115fd91908101906131ea565b60405163a23cbf7b60e01b81526004016112d392919061321e565b7f4910fdfa16fed3260ed0e7147f7cc6da11a60208b5b9406d12a635614ffd91435460ff16156116505761164b83611e8c565b505050565b826001600160a01b03166352d1902d6040518163ffffffff1660e01b8152600401602060405180830381865afa9250505080156116aa575060408051601f3d908101601f191682019092526116a791810190612d0e565b60015b6116c75760405163e5ec176960e01b815260040160405180910390fd5b60008051602061378e83398151915281146116f5576040516308373ebf60e41b815260040160405180910390fd5b5061164b838383611ee1565b6000816001600160a01b03163b60000361173157826001600160a01b0316846001600160a01b031614905061093e565b6040516311de81c360e11b81526001600160a01b038581166004808401919091526000602484015260448301528316906323bd038690606401602060405180830381865afa158015611787573d6000803e3d6000fd5b505050506040513d601f19601f8201168201806040525081019061093b9190612e1f565b60007fb2832e40a2c8ded9e848f07a723df9674a01f6ffab49c0fdaf8f87dac3600d176117db8360000151611f0c565b836020015184604001518560600151604051602001611824959493929190948552602085019390935263ffffffff91821660408501521660608301521515608082015260a00190565b604051602081830303815290604052805190602001209050919050565b60008061185089878787611ff6565b90506001600160a01b0383161561194f57826001600160a01b03163b60000361188c5760405163745a85d160e01b815260040160405180910390fd5b604051630b135d3f60e11b81526001600160a01b03841690631626ba7e906118bc9084908c908c90600401613243565b602060405180830381865afa9250505080156118f5575060408051601f3d908101601f191682019092526118f29181019061325d565b60015b611912576040516392f1cd7160e01b815260040160405180910390fd5b6001600160e01b03198116630b135d3f60e11b03611934578392505050610c1c565b8060405163a128ff6f60e01b81526004016112d39190612dff565b6000611991828a8a8080601f01602080910402602001604051908101604052809392919081815260200183838082843760009201919091525061204f92505050565b909350905060008160048111156119aa576119aa613287565b146119ca578060405163480770df60e01b81526004016112d3919061329d565b5050979650505050505050565b600080546040516001600160a01b03808516939216916000805160206137ce83398151915291a3600080546001600160a01b0319166001600160a01b0383811691909117909155600154161561076d57600180546001600160a01b031916905550565b6060600082604051602001611a4f91906133db565b60408051808303601f1901815282820190915260018252603160f81b6020909201919091529360008051602061376e8339815191529350915050565b6001600160a01b03163b151590565b806001600160a01b038116611ac257604051631627621f60e11b815260040160405180910390fd5b603454610100900460ff16611ae9576040516296bfb160e81b815260040160405180910390fd5b600080546001600160a01b0319166001600160a01b03841690811782556040519091906000805160206137ce833981519152908290a35050565b603454610100900460ff16610a45576040516296bfb160e81b815260040160405180910390fd5b6040805160028082526060828101909352816020015b6060815260200190600190039081611b60579050509050604051806040016040528060018152602001603160f81b81525081600081518110611ba457611ba4612f31565b6020026020010181905250604051806040016040528060018152602001601960f91b81525081600181518110611bdc57611bdc612f31565b602002602001018190525090565b6000806000611bf98585611362565b6001600160a01b0381163b15925090508115611c2057611c198585612091565b9250611c24565b8092505b509250929050565b60008084806020019051810190611c43919061340f565b604051635638ecb560e01b81529091506001600160a01b03871690635638ecb590611c78908490889088903390600401613573565b6020604051808303816000875af1158015611c97573d6000803e3d6000fd5b505050506040513d601f19601f82011682018060405250810190611cbb9190612d0e565b9695505050505050565b600081600001518260200151604051602001611ce29291906135b3565b604051602081830303815290604052905082600014611e84576040516301ffc9a760e01b81526001600160a01b038716906301ffc9a790611d2e90631acf898160e11b90600401612dff565b602060405180830381865afa158015611d4b573d6000803e3d6000fd5b505050506040513d601f19601f82011682018060405250810190611d6f9190612e1f565b15611de457856001600160a01b031663359f1302348787878760400151876040518763ffffffff1660e01b8152600401611dad9594939291906135d7565b6000604051808303818588803b158015611dc657600080fd5b505af1158015611dda573d6000803e3d6000fd5b5050505050611e84565b60008083604001515111611df9576000611e19565b8260400151600081518110611e1057611e10612f31565b60200260200101515b9050866001600160a01b0316639dbb844d3488888887876040518763ffffffff1660e01b8152600401611e50959493929190613652565b6000604051808303818588803b158015611e6957600080fd5b505af1158015611e7d573d6000803e3d6000fd5b5050505050505b505050505050565b611e9581611a8b565b611eb25760405163529880eb60e01b815260040160405180910390fd5b60008051602061378e83398151915280546001600160a01b0319166001600160a01b0392909216919091179055565b611eea8361217a565b600082511180611ef75750805b1561164b57611f0683836121ba565b50505050565b805180516020909101206000907f2e0a87879bcc01f7ce81f7ceeeb3b0f42eadf6b77632feb6ff7d7c090cb4fca59083602001518460400151856060015186608001518760a001518860c001518960e001518a61010001518b61012001516040516020016118249b9a999897969594939291909a8b5260208b019990995260408a01979097526001600160401b0395861660608a01526001600160601b0394909416608089015291841660a088015290921660c086015263ffffffff91821660e0860152166101008401526001600160a01b03908116610120840152166101408201526101600190565b604080518082019091526009815268283932b6b4b73a32b960b91b6020909101526000612046857f33b8919dd8a2cde3a1376263448ed96ccec19950283b64caf3d1d3a23dfa6a1885878661224c565b95945050505050565b60008082516041036120855760208301516040840151606085015160001a6120798782858561227d565b9450945050505061066d565b5060009050600261066d565b604080516000808252602082019092528190816120be565b60608152602001906001900390816120a95790505b50905060006001600160a01b0385166370b1cafb6120df602087018761314c565b6120ec604089018961314c565b60408051606081018252600080825260208083018290529282015290612114908c018c612601565b896040518863ffffffff1660e01b81526004016121379796959493929190613695565b6020604051808303816000875af1158015612156573d6000803e3d6000fd5b505050506040513d601f19601f820116820180604052508101906120469190612f47565b61218381611e8c565b6040516001600160a01b038216907fbc7cd75a20ee27fd9adebab32041f755214dbc6bffa90cc0225b39da2e5c2d3b90600090a250565b60606121c583611a8b565b6121e25760405163369891e760e01b815260040160405180910390fd5b600080846001600160a01b0316846040516121fd919061375b565b600060405180830381855af49150503d8060008114612238576040519150601f19603f3d011682016040523d82523d6000602084013e61223d565b606091505b50915091506120468282612337565b6000611cbb61225d8385888861234f565b8760405161190160f01b8152600281019290925260228201526042902090565b6000806fa2a8918ca85bafe22016d0b997e4df60600160ff1b038311156122aa575060009050600361232e565b6040805160008082526020820180845289905260ff881692820192909252606081018690526080810185905260019060a0016020604051602081039080840390855afa1580156122fe573d6000803e3d6000fd5b5050604051601f1901519150506001600160a01b0381166123275760006001925092505061232e565b9150600090505b94509492505050565b606082156123465750806106a0565b6106a0826123c3565b604080517f8b73c3c69bb8fe3d512ecc4cf759cc79239f7b179b0ffacaa9a75d522b39400f60208083019190915281830185905260608201849052608082018790526001600160a01b03861660a0808401919091528351808403909101815260c09092019092528051910120600090612046565b8051156123d35780518082602001fd5b6040516350a28c9b60e11b815260040160405180910390fd5b604080516060810182526000808252602082018190529181019190915290565b600060608284031215610e9c57600080fd5b600060808284031215610e9c57600080fd5b60008083601f84011261244257600080fd5b5081356001600160401b0381111561245957600080fd5b60208301915083602082850101111561066d57600080fd5b6001600160a01b038116811461076d57600080fd5b803561249181612471565b919050565b600080600080600080600060c0888a0312156124b157600080fd5b87356001600160401b03808211156124c857600080fd5b6124d48b838c0161240c565b985060208a01359150808211156124ea57600080fd5b6124f68b838c0161241e565b975060408a013591508082111561250c57600080fd5b6125188b838c01612430565b909750955060608a0135945060808a013591508082111561253857600080fd5b506125458a828b0161240c565b92505061255460a08901612486565b905092959891949750929550565b6001600160a01b03169052565b63ffffffff8116811461076d57600080fd5b80356124918161256f565b6000806040838503121561259f57600080fd5b82356125aa81612471565b915060208301356125ba8161256f565b809150509250929050565b6000602082840312156125d757600080fd5b81356001600160401b038111156125ed57600080fd5b6125f98482850161240c565b949350505050565b60006020828403121561261357600080fd5b813561093e81612471565b634e487b7160e01b600052604160045260246000fd5b604051608081016001600160401b03811182821017156126565761265661261e565b60405290565b60405161014081016001600160401b03811182821017156126565761265661261e565b604051606081016001600160401b03811182821017156126565761265661261e565b604051601f8201601f191681016001600160401b03811182821017156126c9576126c961261e565b604052919050565b60006001600160401b038211156126ea576126ea61261e565b50601f01601f191660200190565b600061270b612706846126d1565b6126a1565b905082815283838301111561271f57600080fd5b828260208301376000602084830101529392505050565b6000806040838503121561274957600080fd5b823561275481612471565b915060208301356001600160401b0381111561276f57600080fd5b8301601f8101851361278057600080fd5b61278f858235602084016126f8565b9150509250929050565b6000806000606084860312156127ae57600080fd5b83356127b981612471565b925060208401356127c981612471565b915060408401356127d981612471565b809150509250925092565b600080600080606085870312156127fa57600080fd5b84356001600160401b038082111561281157600080fd5b61281d8883890161240c565b9550602087013591508082111561283357600080fd5b61283f8883890161241e565b9450604087013591508082111561285557600080fd5b5061286287828801612430565b95989497509550505050565b60005b83811015612889578181015183820152602001612871565b50506000910152565b600081518084526128aa81602086016020860161286e565b601f01601f19169290920160200192915050565b60208152600061093e6020830184612892565b60008060008060008060a087890312156128ea57600080fd5b86356001600160401b038082111561290157600080fd5b61290d8a838b0161240c565b9750602089013591508082111561292357600080fd5b61292f8a838b0161241e565b9650604089013591508082111561294557600080fd5b6129518a838b01612430565b909650945060608901359350608089013591508082111561297157600080fd5b5061297e89828a0161240c565b9150509295509295509295565b6000602080830181845280855180835260408601915060408160051b870101925083870160005b828110156129e057603f198886030184526129ce858351612892565b945092850192908501906001016129b2565b5092979650505050505050565b600082601f8301126129fe57600080fd5b61093e838335602085016126f8565b6001600160401b038116811461076d57600080fd5b803561249181612a0d565b6001600160601b038116811461076d57600080fd5b803561249181612a2d565b801515811461076d57600080fd5b803561249181612a4d565b600060808236031215612a7857600080fd5b612a80612634565b82356001600160401b0380821115612a9757600080fd5b81850191506101408236031215612aad57600080fd5b612ab561265c565b823582811115612ac457600080fd5b612ad0368286016129ed565b82525060208301356020820152612ae960408401612a22565b6040820152612afa60608401612a42565b6060820152612b0b60808401612a22565b6080820152612b1c60a08401612a22565b60a0820152612b2d60c08401612581565b60c0820152612b3e60e08401612486565b60e08201526101009150612b53828401612486565b828201526101209150612b67828401612486565b82820152808452505050612b7d60208401612581565b6020820152612b8e60408401612581565b6040820152612b9f60608401612a5b565b606082015292915050565b6000823561013e19833603018112612bc157600080fd5b9190910192915050565b600060208284031215612bdd57600080fd5b813561093e8161256f565b60006001600160401b03821115612c0157612c0161261e565b5060051b60200190565b600060608236031215612c1d57600080fd5b612c2561267f565b8235612c3081612471565b81526020838101356001600160401b0380821115612c4d57600080fd5b612c59368388016129ed565b838501526040860135915080821115612c7157600080fd5b50840136601f820112612c8357600080fd5b8035612c9161270682612be8565b81815260059190911b82018301908381019036831115612cb057600080fd5b928401925b82841015612cd7578335612cc881612471565b82529284019290840190612cb5565b6040860152509295945050505050565b63ffffffff9390931683526001600160a01b03919091166020830152604082015260600190565b600060208284031215612d2057600080fd5b5051919050565b600060808236031215612d3957600080fd5b612d41612634565b82356001600160401b0380821115612d5857600080fd5b81850191506101408236031215612d6e57600080fd5b612d7661265c565b823582811115612d8557600080fd5b612d91368286016129ed565b82525060208301356020820152612daa60408401612a22565b6040820152612dbb60608401612a42565b6060820152612dcc60808401612a22565b6080820152612ddd60a08401612a22565b60a0820152612dee60c08401612581565b60c0820152612b3e60e08401612581565b6001600160e01b031991909116815260200190565b805161249181612a4d565b600060208284031215612e3157600080fd5b815161093e81612a4d565b600082601f830112612e4d57600080fd5b8151612e5b612706826126d1565b818152846020838601011115612e7057600080fd5b6125f982602083016020870161286e565b60006020808385031215612e9457600080fd5b82516001600160401b0380821115612eab57600080fd5b818501915085601f830112612ebf57600080fd5b8151612ecd61270682612be8565b81815260059190911b83018401908481019088831115612eec57600080fd5b8585015b83811015612f2457805185811115612f085760008081fd5b612f168b89838a0101612e3c565b845250918601918601612ef0565b5098975050505050505050565b634e487b7160e01b600052603260045260246000fd5b600060208284031215612f5957600080fd5b815161093e81612471565b6001600160401b03169052565b60208152600082516080602084015280516101408060a0860152612f996101e0860183612892565b9150602083015160c08601526040830151612fb760e0870182612f64565b506060830151610100612fd4818801836001600160601b03169052565b60808501519150610120612fea81890184612f64565b60a08601519250612ffd84890184612f64565b60c086015163ffffffff1661016089015260e08601519350613023610180890185612562565b8186015193506130376101a0890185612562565b8086015195505050505061304f6101c0850183612562565b602085015163ffffffff811660408601529150604085015163ffffffff8116606086015291506060850151801515608086015291506125f9565b81835281816020850137506000828201602090810191909152601f909101601f19169091010190565b60a0815260006130c560a0830189612892565b87602084015282810360408401526130de818789613089565b6001600160a01b039586166060850152939094166080909201919091525095945050505050565b6080815260006131186080830188612892565b8660208401528281036040840152613131818688613089565b91505060018060a01b03831660608301529695505050505050565b6000808335601e1984360301811261316357600080fd5b8301803591506001600160401b0382111561317d57600080fd5b60200191503681900382131561066d57600080fd5b600060018060a01b038089168352608060208401526131b560808401888a613089565b83810360408501526131c8818789613089565b925050808416606084015250979650505050505050565b805161249181612471565b6000602082840312156131fc57600080fd5b81516001600160401b0381111561321257600080fd5b6125f984828501612e3c565b6040815260006132316040830185612892565b82810360208401526120468185612892565b838152604060208201526000612046604083018486613089565b60006020828403121561326f57600080fd5b81516001600160e01b03198116811461093e57600080fd5b634e487b7160e01b600052602160045260246000fd5b60208101600583106132bf57634e487b7160e01b600052602160045260246000fd5b91905290565b600081516080845280516101408060808701526132e66101c0870183612892565b9150602083015160a0870152604083015161330460c0880182612f64565b5060608301516001600160601b031660e0870152608083015161010061332c81890183612f64565b60a08501519150610120613342818a0184612f64565b60c086015163ffffffff81168a860152925060e086015163ffffffff81166101608b0152935081860151935061337c6101808a0185612562565b808601519550505050506133946101a0860183612562565b602084015191506133ad602086018363ffffffff169052565b604084015191506133c6604086018363ffffffff169052565b606084015191506125f9606086018315159052565b60208152600061093e60208301846132c5565b805161249181612a0d565b805161249181612a2d565b80516124918161256f565b60006020828403121561342157600080fd5b81516001600160401b038082111561343857600080fd5b908301906080828603121561344c57600080fd5b613454612634565b82518281111561346357600080fd5b8301610140818803121561347657600080fd5b61347e61265c565b81518481111561348d57600080fd5b61349989828501612e3c565b825250602082015160208201526134b2604083016133ee565b60408201526134c3606083016133f9565b60608201526134d4608083016133ee565b60808201526134e560a083016133ee565b60a08201526134f660c08301613404565b60c082015261350760e08301613404565b60e0820152610100935061351c8483016131df565b8482015261012093506135308483016131df565b8185015282525061354360208401613404565b602082015261355460408401613404565b604082015261356560608401612e14565b606082015295945050505050565b60608152600061358660608301876132c5565b8281036020840152613599818688613089565b91505060018060a01b038316604083015295945050505050565b6001600160a01b038316815260406020820181905260009061093b90830184612892565b600060a0820160018060a01b0380891684526020888186015287604086015260a0606086015282875180855260c087019150828901945060005b8181101561362f578551851683529483019491830191600101613611565b505085810360808701526136438188612892565b9b9a5050505050505050505050565b600060018060a01b03808816835286602084015285604084015260a0606084015261368060a0840186612892565b91508084166080840152509695505050505050565b60e0815260006136a960e08301898b613089565b6020838203818501526136bd82898b613089565b875163ffffffff908116604087810191909152838a015190911660608701528801516001600160a01b039081166080870152871660a086015284810360c0860152855180825290925081830190600581901b8401830187840160005b8381101561374757601f19878403018552613735838351612892565b94860194925090850190600101613719565b50909e9d5050505050505050505050505050565b60008251612bc181846020870161286e56fec89efdaa54c0f20c7adf612882df0950f5a951637e0307cdcb4c672f298b8bc6360894a13ba1a3210667c828492db98dca3e2076cc3735a920a3ca505d382bbcd7f3736994092942aacd1d75026379ceeaf4e28b6183b15f2decc9237334429b8292fce18fa69edf4db7b94ea2e58241df0ae57f97e0a6c9b29067028bf92d76a2646970667358221220ec277b3c18035d7b812b7114b1ca1b59a66f453ab906e89b3a687c6b958eaf1064736f6c63430008110033",
  "linkReferences": {},
  "deployedLinkReferences": {}
}