{
  "_format": "hh-sol-artifact-1",
  "contractName": "CreatorPermissionControl",
  "sourceName": "contracts/zora/permissions/CreatorPermissionControl.sol",
  "abi": [
    {
      "anonymous": false,
      "inputs": [
        {
          "indexed": true,
          "internalType": "uint256",
          "name": "tokenId",
          "type": "uint256"
        },
        {
          "indexed": true,
          "internalType": "address",
          "name": "user",
          "type": "address"
        },
        {
          "indexed": true,
          "internalType": "uint256",
          "name": "permissions",
          "type": "uint256"
        }
      ],
      "name": "UpdatedPermissions",
      "type": "event"
    },
    {
      "inputs": [
        {
          "internalType": "uint256",
          "name": "",
          "type": "uint256"
        },
        {
          "internalType": "address",
          "name": "",
          "type": "address"
        }
      ],
      "name": "permissions",
      "outputs": [
        {
          "internalType": "uint256",
          "name": "",
          "type": "uint256"
        }
      ],
      "stateMutability": "view",
      "type": "function"
    }
  ],
  "bytecode": "0x608060405234801561001057600080fd5b5060d48061001f6000396000f3fe6080604052348015600f57600080fd5b506004361060285760003560e01c8063300ecdb914602d575b600080fd5b605260383660046064565b600060208181529281526040808220909352908152205481565b60405190815260200160405180910390f35b60008060408385031215607657600080fd5b8235915060208301356001600160a01b0381168114609357600080fd5b80915050925092905056fea264697066735822122008fb038b0c9eec30e9f5d1878432121481cee179c6406b8e8f2eb14189cead4d64736f6c63430008110033",
  "linkReferences": {},
  "deployedLinkReferences": {}
}