{
  "_format": "hh-sol-artifact-1",
  "contractName": "Gasha",
  "sourceName": "contracts/Gasha.sol",
  "abi": [
    {
      "inputs": [
        {
          "internalType": "address",
          "name": "_zoraCreator1155",
          "type": "address"
        },
        {
          "internalType": "address",
          "name": "_merkleMinter",
          "type": "address"
        },
        {
          "internalType": "address",
          "name": "_mintReferral",
          "type": "address"
        },
        {
          "internalType": "uint256",
          "name": "initialSeed",
          "type": "uint256"
        }
      ],
      "stateMutability": "nonpayable",
      "type": "constructor"
    },
    {
      "anonymous": false,
      "inputs": [
        {
          "indexed": true,
          "internalType": "address",
          "name": "minter",
          "type": "address"
        },
        {
          "indexed": false,
          "internalType": "uint256[]",
          "name": "ids",
          "type": "uint256[]"
        },
        {
          "indexed": false,
          "internalType": "uint256[]",
          "name": "quantities",
          "type": "uint256[]"
        }
      ],
      "name": "Spin",
      "type": "event"
    },
    {
      "inputs": [],
      "name": "MerkleMinter",
      "outputs": [
        {
          "internalType": "contract IMinter1155",
          "name": "",
          "type": "address"
        }
      ],
      "stateMutability": "view",
      "type": "function"
    },
    {
      "inputs": [],
      "name": "ZoraCreator1155",
      "outputs": [
        {
          "internalType": "contract IZoraCreator1155",
          "name": "",
          "type": "address"
        }
      ],
      "stateMutability": "view",
      "type": "function"
    },
    {
      "inputs": [],
      "name": "mintReferral",
      "outputs": [
        {
          "internalType": "address",
          "name": "",
          "type": "address"
        }
      ],
      "stateMutability": "view",
      "type": "function"
    },
    {
      "inputs": [
        {
          "internalType": "address",
          "name": "",
          "type": "address"
        },
        {
          "internalType": "address",
          "name": "",
          "type": "address"
        },
        {
          "internalType": "uint256[]",
          "name": "",
          "type": "uint256[]"
        },
        {
          "internalType": "uint256[]",
          "name": "",
          "type": "uint256[]"
        },
        {
          "internalType": "bytes",
          "name": "",
          "type": "bytes"
        }
      ],
      "name": "onERC1155BatchReceived",
      "outputs": [
        {
          "internalType": "bytes4",
          "name": "",
          "type": "bytes4"
        }
      ],
      "stateMutability": "nonpayable",
      "type": "function"
    },
    {
      "inputs": [
        {
          "internalType": "address",
          "name": "",
          "type": "address"
        },
        {
          "internalType": "address",
          "name": "",
          "type": "address"
        },
        {
          "internalType": "uint256",
          "name": "",
          "type": "uint256"
        },
        {
          "internalType": "uint256",
          "name": "",
          "type": "uint256"
        },
        {
          "internalType": "bytes",
          "name": "",
          "type": "bytes"
        }
      ],
      "name": "onERC1155Received",
      "outputs": [
        {
          "internalType": "bytes4",
          "name": "",
          "type": "bytes4"
        }
      ],
      "stateMutability": "nonpayable",
      "type": "function"
    },
    {
      "inputs": [
        {
          "internalType": "uint256",
          "name": "tokenId",
          "type": "uint256"
        }
      ],
      "name": "removeSeriesItem",
      "outputs": [],
      "stateMutability": "nonpayable",
      "type": "function"
    },
    {
      "inputs": [],
      "name": "seed",
      "outputs": [
        {
          "internalType": "uint256",
          "name": "",
          "type": "uint256"
        }
      ],
      "stateMutability": "view",
      "type": "function"
    },
    {
      "inputs": [
        {
          "internalType": "uint256",
          "name": "",
          "type": "uint256"
        }
      ],
      "name": "series",
      "outputs": [
        {
          "internalType": "uint256",
          "name": "tokenId",
          "type": "uint256"
        },
        {
          "internalType": "enum IGasha.Rareness",
          "name": "rareness",
          "type": "uint8"
        },
        {
          "internalType": "uint256",
          "name": "weight",
          "type": "uint256"
        }
      ],
      "stateMutability": "view",
      "type": "function"
    },
    {
      "inputs": [
        {
          "internalType": "bytes",
          "name": "_minterArguments",
          "type": "bytes"
        }
      ],
      "name": "setMinterArguments",
      "outputs": [],
      "stateMutability": "nonpayable",
      "type": "function"
    },
    {
      "inputs": [
        {
          "internalType": "uint256",
          "name": "tokenId",
          "type": "uint256"
        },
        {
          "internalType": "enum IGasha.Rareness",
          "name": "rareness",
          "type": "uint8"
        },
        {
          "internalType": "uint256",
          "name": "weight",
          "type": "uint256"
        }
      ],
      "name": "setNewSeriesItem",
      "outputs": [],
      "stateMutability": "nonpayable",
      "type": "function"
    },
    {
      "inputs": [
        {
          "internalType": "uint256",
          "name": "quantity",
          "type": "uint256"
        }
      ],
      "name": "spin",
      "outputs": [],
      "stateMutability": "payable",
      "type": "function"
    }
  ],
  "bytecode": "0x608060405234801561001057600080fd5b5060405161123338038061123383398101604081905261002f91610090565b600080546001600160a01b03199081166001600160a01b03968716179091556001805482169486169490941790935560028054909316919093161790556005556100db565b80516001600160a01b038116811461008b57600080fd5b919050565b600080600080608085870312156100a657600080fd5b6100af85610074565b93506100bd60208601610074565b92506100cb60408601610074565b6060959095015193969295505050565b611149806100ea6000396000f3fe60806040526004361061008c5760003560e01c8063276ca370146100915780636578fcb0146100b35780636958769b146100f05780637d94792a146101105780639d1f54fa14610134578063a5b6ea8f14610154578063abc6011d14610167578063bc197c8114610187578063dc22cb6a146101cc578063e1957f81146101fb578063f23a6e611461021b575b600080fd5b34801561009d57600080fd5b506100b16100ac366004610a4e565b610247565b005b3480156100bf57600080fd5b506001546100d3906001600160a01b031681565b6040516001600160a01b0390911681526020015b60405180910390f35b3480156100fc57600080fd5b506100b161010b366004610b3f565b6102d1565b34801561011c57600080fd5b5061012660055481565b6040519081526020016100e7565b34801561014057600080fd5b506002546100d3906001600160a01b031681565b6100b1610162366004610b7b565b6102e1565b34801561017357600080fd5b506000546100d3906001600160a01b031681565b34801561019357600080fd5b506101b36101a2366004610c2f565b63bc197c8160e01b95945050505050565b6040516001600160e01b031990911681526020016100e7565b3480156101d857600080fd5b506101ec6101e7366004610b7b565b6106e3565b6040516100e793929190610cee565b34801561020757600080fd5b506100b1610216366004610b7b565b61071c565b34801561022757600080fd5b506101b3610236366004610d24565b63f23a6e6160e01b95945050505050565b6004604051806060016040528085815260200184600281111561026c5761026c610cd8565b815260209081018490528254600181810185556000948552938290208351600390920201908155908201518184018054939492939192909160ff1916908360028111156102bb576102bb610cd8565b0217905550604082015181600201555050505050565b60036102dd8282610e11565b5050565b6000811180156102f257506103e881105b6103405760405162461bcd60e51b815260206004820152601a60248201527911d85cda184e881c5d585b9d1a5d1e481a5cc81a5b9d985b1a5960321b60448201526064015b60405180910390fd5b6004546000906001600160401b0381111561035d5761035d610a8a565b604051908082528060200260200182016040528015610386578160200160208202803683370190505b506004549091506000906001600160401b038111156103a7576103a7610a8a565b6040519080825280602002602001820160405280156103d0578160200160208202803683370190505b50905060005b60045481101561045457600481815481106103f3576103f3610ed0565b90600052602060002090600302016000015483828151811061041757610417610ed0565b602002602001018181525050600082828151811061043757610437610ed0565b60209081029190910101528061044c81610efc565b9150506103d6565b5060005b838110156104fd57600061046b8261085b565b905060005b6004548110156104e8578151600480548390811061049057610490610ed0565b906000526020600020906003020160000154036104d6578381815181106104b9576104b9610ed0565b6020026020010180518091906104ce90610efc565b9052506104e8565b806104e081610efc565b915050610470565b505080806104f590610efc565b915050610458565b5060005b60045481101561063257600082828151811061051f5761051f610ed0565b602002602001015111156106205760005482516001600160a01b0390911690639dbb844d9084908490811061055657610556610ed0565b60200260200101516602c2ad68fd90006105709190610f15565b60015486516001600160a01b039091169087908690811061059357610593610ed0565b60200260200101518686815181106105ad576105ad610ed0565b60200260200101516003600260009054906101000a90046001600160a01b03166040518763ffffffff1660e01b81526004016105ed959493929190610f32565b6000604051808303818588803b15801561060657600080fd5b505af115801561061a573d6000803e3d6000fd5b50505050505b8061062a81610efc565b915050610501565b50600054604051631759616b60e11b81526001600160a01b0390911690632eb2c2d69061066990309033908790879060040161102c565b600060405180830381600087803b15801561068357600080fd5b505af1158015610697573d6000803e3d6000fd5b50505050336001600160a01b03167f54861d6781f670f742928bb4e162f901feafcb62f843c17716ee3d5be674afca83836040516106d6929190611087565b60405180910390a2505050565b600481815481106106f357600080fd5b600091825260209091206003909102018054600182015460029092015490925060ff9091169083565b60005b6004548110156102dd57816004828154811061073d5761073d610ed0565b9060005260206000209060030201600001540361084957805b600454610765906001906110b5565b8110156108095760046107798260016110c8565b8154811061078957610789610ed0565b9060005260206000209060030201600482815481106107aa576107aa610ed0565b600091825260209091208254600390920201908155600180830154818301805460ff90921692909160ff1916908360028111156107e9576107e9610cd8565b02179055506002918201549101558061080181610efc565b915050610756565b50600480548061081b5761081b6110db565b60008281526020812060036000199093019283020181815560018101805460ff191690556002015590555050565b8061085381610efc565b91505061071f565b6040805160608101825260008082526020820181905291810182905290805b6004548110156108c8576004818154811061089757610897610ed0565b906000526020600020906003020160020154826108b491906110c8565b9150806108c081610efc565b91505061087a565b506000814244866005546108dc91906110b5565b60408051602081019490945283019190915260608201526080016040516020818303038152906040528051906020012060001c61091991906110f1565b90506000805b6004548110156109f9576004818154811061093c5761093c610ed0565b9060005260206000209060030201600201548261095991906110c8565b9150818310156109e7576004818154811061097657610976610ed0565b9060005260206000209060030201604051806060016040529081600082015481526020016001820160009054906101000a900460ff1660028111156109bd576109bd610cd8565b60028111156109ce576109ce610cd8565b8152602001600282015481525050945050505050919050565b806109f181610efc565b91505061091f565b5060405162461bcd60e51b815260206004820152602360248201527f47617368613a206661696c656420746f207069636b20612072616e646f6d2062604482015262185b1b60ea1b6064820152608401610337565b600080600060608486031215610a6357600080fd5b83359250602084013560038110610a7957600080fd5b929592945050506040919091013590565b634e487b7160e01b600052604160045260246000fd5b604051601f8201601f191681016001600160401b0381118282101715610ac857610ac8610a8a565b604052919050565b600082601f830112610ae157600080fd5b81356001600160401b03811115610afa57610afa610a8a565b610b0d601f8201601f1916602001610aa0565b818152846020838601011115610b2257600080fd5b816020850160208301376000918101602001919091529392505050565b600060208284031215610b5157600080fd5b81356001600160401b03811115610b6757600080fd5b610b7384828501610ad0565b949350505050565b600060208284031215610b8d57600080fd5b5035919050565b80356001600160a01b0381168114610bab57600080fd5b919050565b600082601f830112610bc157600080fd5b813560206001600160401b03821115610bdc57610bdc610a8a565b8160051b610beb828201610aa0565b9283528481018201928281019087851115610c0557600080fd5b83870192505b84831015610c2457823582529183019190830190610c0b565b979650505050505050565b600080600080600060a08688031215610c4757600080fd5b610c5086610b94565b9450610c5e60208701610b94565b935060408601356001600160401b0380821115610c7a57600080fd5b610c8689838a01610bb0565b94506060880135915080821115610c9c57600080fd5b610ca889838a01610bb0565b93506080880135915080821115610cbe57600080fd5b50610ccb88828901610ad0565b9150509295509295909350565b634e487b7160e01b600052602160045260246000fd5b8381526060810160038410610d1357634e487b7160e01b600052602160045260246000fd5b602082019390935260400152919050565b600080600080600060a08688031215610d3c57600080fd5b610d4586610b94565b9450610d5360208701610b94565b9350604086013592506060860135915060808601356001600160401b03811115610d7c57600080fd5b610ccb88828901610ad0565b600181811c90821680610d9c57607f821691505b602082108103610dbc57634e487b7160e01b600052602260045260246000fd5b50919050565b601f821115610e0c57600081815260208120601f850160051c81016020861015610de95750805b601f850160051c820191505b81811015610e0857828155600101610df5565b5050505b505050565b81516001600160401b03811115610e2a57610e2a610a8a565b610e3e81610e388454610d88565b84610dc2565b602080601f831160018114610e735760008415610e5b5750858301515b600019600386901b1c1916600185901b178555610e08565b600085815260208120601f198616915b82811015610ea257888601518255948401946001909101908401610e83565b5085821015610ec05787850151600019600388901b60f8161c191681555b5050505050600190811b01905550565b634e487b7160e01b600052603260045260246000fd5b634e487b7160e01b600052601160045260246000fd5b600060018201610f0e57610f0e610ee6565b5060010190565b8082028115828204841417610f2c57610f2c610ee6565b92915050565b60018060a01b038616815260006020868184015285604084015260a0606084015260008554610f6081610d88565b8060a087015260c0600180841660008114610f825760018114610f9c57610fca565b60ff1985168984015283151560051b890183019550610fca565b8a6000528660002060005b85811015610fc25781548b8201860152908301908801610fa7565b8a0184019650505b505050506001600160a01b0386166080860152509150610fe79050565b9695505050505050565b600081518084526020808501945080840160005b8381101561102157815187529582019590820190600101611005565b509495945050505050565b6001600160a01b0385811682528416602082015260a06040820181905260009061105890830185610ff1565b828103606084015261106a8185610ff1565b838103608090940193909352505060008152602001949350505050565b60408152600061109a6040830185610ff1565b82810360208401526110ac8185610ff1565b95945050505050565b81810381811115610f2c57610f2c610ee6565b80820180821115610f2c57610f2c610ee6565b634e487b7160e01b600052603160045260246000fd5b60008261110e57634e487b7160e01b600052601260045260246000fd5b50069056fea2646970667358221220d1f5835126ed7dc5c3df437ed3d6299e85047f283b5fbdd1b971d275a294750964736f6c63430008110033",
  "linkReferences": {},
  "deployedLinkReferences": {}
}