{
  "_format": "hh-sol-artifact-1",
  "contractName": "ProxyShim",
  "sourceName": "contracts/zora/utils/ProxyShim.sol",
  "abi": [
    {
      "inputs": [
        {
          "internalType": "address",
          "name": "_canUpgrade",
          "type": "address"
        }
      ],
      "stateMutability": "nonpayable",
      "type": "constructor"
    },
    {
      "inputs": [],
      "name": "ADDRESS_DELEGATECALL_TO_NON_CONTRACT",
      "type": "error"
    },
    {
      "inputs": [],
      "name": "ADDRESS_LOW_LEVEL_CALL_FAILED",
      "type": "error"
    },
    {
      "inputs": [],
      "name": "ERC1967_NEW_IMPL_NOT_CONTRACT",
      "type": "error"
    },
    {
      "inputs": [],
      "name": "ERC1967_NEW_IMPL_NOT_UUPS",
      "type": "error"
    },
    {
      "inputs": [],
      "name": "ERC1967_UNSUPPORTED_PROXIABLEUUID",
      "type": "error"
    },
    {
      "inputs": [],
      "name": "FUNCTION_MUST_BE_CALLED_THROUGH_ACTIVE_PROXY",
      "type": "error"
    },
    {
      "inputs": [],
      "name": "FUNCTION_MUST_BE_CALLED_THROUGH_DELEGATECALL",
      "type": "error"
    },
    {
      "inputs": [],
      "name": "UUPS_UPGRADEABLE_MUST_NOT_BE_CALLED_THROUGH_DELEGATECALL",
      "type": "error"
    },
    {
      "anonymous": false,
      "inputs": [
        {
          "indexed": false,
          "internalType": "address",
          "name": "previousAdmin",
          "type": "address"
        },
        {
          "indexed": false,
          "internalType": "address",
          "name": "newAdmin",
          "type": "address"
        }
      ],
      "name": "AdminChanged",
      "type": "event"
    },
    {
      "anonymous": false,
      "inputs": [
        {
          "indexed": true,
          "internalType": "address",
          "name": "beacon",
          "type": "address"
        }
      ],
      "name": "BeaconUpgraded",
      "type": "event"
    },
    {
      "anonymous": false,
      "inputs": [
        {
          "indexed": false,
          "internalType": "uint8",
          "name": "version",
          "type": "uint8"
        }
      ],
      "name": "Initialized",
      "type": "event"
    },
    {
      "anonymous": false,
      "inputs": [
        {
          "indexed": true,
          "internalType": "address",
          "name": "implementation",
          "type": "address"
        }
      ],
      "name": "Upgraded",
      "type": "event"
    },
    {
      "inputs": [],
      "name": "proxiableUUID",
      "outputs": [
        {
          "internalType": "bytes32",
          "name": "",
          "type": "bytes32"
        }
      ],
      "stateMutability": "view",
      "type": "function"
    },
    {
      "inputs": [
        {
          "internalType": "address",
          "name": "newImplementation",
          "type": "address"
        }
      ],
      "name": "upgradeTo",
      "outputs": [],
      "stateMutability": "nonpayable",
      "type": "function"
    },
    {
      "inputs": [
        {
          "internalType": "address",
          "name": "newImplementation",
          "type": "address"
        },
        {
          "internalType": "bytes",
          "name": "data",
          "type": "bytes"
        }
      ],
      "name": "upgradeToAndCall",
      "outputs": [],
      "stateMutability": "payable",
      "type": "function"
    }
  ],
  "bytecode": "0x60c06040523060805234801561001457600080fd5b506040516107f83803806107f883398101604081905261003391610044565b6001600160a01b031660a052610074565b60006020828403121561005657600080fd5b81516001600160a01b038116811461006d57600080fd5b9392505050565b60805160a0516107456100b3600039600061029f015260008181609f0152818160e001528181610169015281816101aa015261022701526107456000f3fe6080604052600436106100345760003560e01c80633659cfe6146100395780634f1ef2861461005b57806352d1902d1461006e575b600080fd5b34801561004557600080fd5b506100596100543660046105ae565b610095565b005b6100596100693660046105e6565b61015f565b34801561007a57600080fd5b5061008361021a565b60405190815260200160405180910390f35b6001600160a01b037f00000000000000000000000000000000000000000000000000000000000000001630036100de57604051631932df4560e01b815260040160405180910390fd5b7f00000000000000000000000000000000000000000000000000000000000000006001600160a01b0316610110610278565b6001600160a01b031614610137576040516364cd8d1960e01b815260040160405180910390fd5b61014081610294565b6040805160008082526020820190925261015c91839190610301565b50565b6001600160a01b037f00000000000000000000000000000000000000000000000000000000000000001630036101a857604051631932df4560e01b815260040160405180910390fd5b7f00000000000000000000000000000000000000000000000000000000000000006001600160a01b03166101da610278565b6001600160a01b031614610201576040516364cd8d1960e01b815260040160405180910390fd5b61020a82610294565b61021682826001610301565b5050565b6000306001600160a01b037f0000000000000000000000000000000000000000000000000000000000000000161461026557604051635e4c25f160e01b815260040160405180910390fd5b506000805160206106f083398151915290565b6000805160206106f0833981519152546001600160a01b031690565b336001600160a01b037f0000000000000000000000000000000000000000000000000000000000000000161461015c5760405162461bcd60e51b815260206004820152600e60248201526d1b9bdd08185d5d1a1bdc9a5e995960921b604482015260640160405180910390fd5b7f4910fdfa16fed3260ed0e7147f7cc6da11a60208b5b9406d12a635614ffd91435460ff161561033957610334836103ea565b505050565b826001600160a01b03166352d1902d6040518163ffffffff1660e01b8152600401602060405180830381865afa925050508015610393575060408051601f3d908101601f19168201909252610390918101906106a7565b60015b6103b05760405163e5ec176960e01b815260040160405180910390fd5b6000805160206106f083398151915281146103de576040516308373ebf60e41b815260040160405180910390fd5b5061033483838361043f565b6103f38161046a565b6104105760405163529880eb60e01b815260040160405180910390fd5b6000805160206106f083398151915280546001600160a01b0319166001600160a01b0392909216919091179055565b61044883610479565b6000825111806104555750805b156103345761046483836104b9565b50505050565b6001600160a01b03163b151590565b610482816103ea565b6040516001600160a01b038216907fbc7cd75a20ee27fd9adebab32041f755214dbc6bffa90cc0225b39da2e5c2d3b90600090a250565b60606104c48361046a565b6104e15760405163369891e760e01b815260040160405180910390fd5b600080846001600160a01b0316846040516104fc91906106c0565b600060405180830381855af49150503d8060008114610537576040519150601f19603f3d011682016040523d82523d6000602084013e61053c565b606091505b509150915061054b8282610556565b925050505b92915050565b60608215610565575080610550565b610550828051156105795780518082602001fd5b6040516350a28c9b60e11b815260040160405180910390fd5b80356001600160a01b03811681146105a957600080fd5b919050565b6000602082840312156105c057600080fd5b6105c982610592565b9392505050565b634e487b7160e01b600052604160045260246000fd5b600080604083850312156105f957600080fd5b61060283610592565b915060208301356001600160401b038082111561061e57600080fd5b818501915085601f83011261063257600080fd5b813581811115610644576106446105d0565b604051601f8201601f19908116603f0116810190838211818310171561066c5761066c6105d0565b8160405282815288602084870101111561068557600080fd5b8260208601602083013760006020848301015280955050505050509250929050565b6000602082840312156106b957600080fd5b5051919050565b6000825160005b818110156106e157602081860181015185830152016106c7565b50600092019182525091905056fe360894a13ba1a3210667c828492db98dca3e2076cc3735a920a3ca505d382bbca2646970667358221220bb886efcdac76c35d9c8354268e010c5d53bcca425e370083302219df2ef288464736f6c63430008110033",
  "linkReferences": {},
  "deployedLinkReferences": {}
}