{
  "_format": "hh-sol-artifact-1",
  "contractName": "ZoraCreator1155FactoryImpl",
  "sourceName": "contracts/zora/factory/ZoraCreator1155FactoryImpl.sol",
  "abi": [
    {
      "inputs": [
        {
          "internalType": "contract IZoraCreator1155",
          "name": "_zora1155Impl",
          "type": "address"
        },
        {
          "internalType": "contract IMinter1155",
          "name": "_merkleMinter",
          "type": "address"
        },
        {
          "internalType": "contract IMinter1155",
          "name": "_fixedPriceMinter",
          "type": "address"
        },
        {
          "internalType": "contract IMinter1155",
          "name": "_redeemMinterFactory",
          "type": "address"
        }
      ],
      "stateMutability": "nonpayable",
      "type": "constructor"
    },
    {
      "inputs": [],
      "name": "ADDRESS_DELEGATECALL_TO_NON_CONTRACT",
      "type": "error"
    },
    {
      "inputs": [],
      "name": "ADDRESS_LOW_LEVEL_CALL_FAILED",
      "type": "error"
    },
    {
      "inputs": [],
      "name": "Constructor_ImplCannotBeZero",
      "type": "error"
    },
    {
      "inputs": [],
      "name": "ERC1967_NEW_IMPL_NOT_CONTRACT",
      "type": "error"
    },
    {
      "inputs": [],
      "name": "ERC1967_NEW_IMPL_NOT_UUPS",
      "type": "error"
    },
    {
      "inputs": [],
      "name": "ERC1967_UNSUPPORTED_PROXIABLEUUID",
      "type": "error"
    },
    {
      "inputs": [],
      "name": "FUNCTION_MUST_BE_CALLED_THROUGH_ACTIVE_PROXY",
      "type": "error"
    },
    {
      "inputs": [],
      "name": "FUNCTION_MUST_BE_CALLED_THROUGH_DELEGATECALL",
      "type": "error"
    },
    {
      "inputs": [],
      "name": "INITIALIZABLE_CONTRACT_ALREADY_INITIALIZED",
      "type": "error"
    },
    {
      "inputs": [],
      "name": "INITIALIZABLE_CONTRACT_IS_NOT_INITIALIZING",
      "type": "error"
    },
    {
      "inputs": [],
      "name": "ONLY_OWNER",
      "type": "error"
    },
    {
      "inputs": [],
      "name": "ONLY_PENDING_OWNER",
      "type": "error"
    },
    {
      "inputs": [],
      "name": "OWNER_CANNOT_BE_ZERO_ADDRESS",
      "type": "error"
    },
    {
      "inputs": [],
      "name": "UUPS_UPGRADEABLE_MUST_NOT_BE_CALLED_THROUGH_DELEGATECALL",
      "type": "error"
    },
    {
      "inputs": [
        {
          "internalType": "string",
          "name": "expected",
          "type": "string"
        },
        {
          "internalType": "string",
          "name": "actual",
          "type": "string"
        }
      ],
      "name": "UpgradeToMismatchedContractName",
      "type": "error"
    },
    {
      "anonymous": false,
      "inputs": [
        {
          "indexed": false,
          "internalType": "address",
          "name": "previousAdmin",
          "type": "address"
        },
        {
          "indexed": false,
          "internalType": "address",
          "name": "newAdmin",
          "type": "address"
        }
      ],
      "name": "AdminChanged",
      "type": "event"
    },
    {
      "anonymous": false,
      "inputs": [
        {
          "indexed": true,
          "internalType": "address",
          "name": "beacon",
          "type": "address"
        }
      ],
      "name": "BeaconUpgraded",
      "type": "event"
    },
    {
      "anonymous": false,
      "inputs": [],
      "name": "FactorySetup",
      "type": "event"
    },
    {
      "anonymous": false,
      "inputs": [
        {
          "indexed": false,
          "internalType": "uint8",
          "name": "version",
          "type": "uint8"
        }
      ],
      "name": "Initialized",
      "type": "event"
    },
    {
      "anonymous": false,
      "inputs": [
        {
          "indexed": true,
          "internalType": "address",
          "name": "owner",
          "type": "address"
        },
        {
          "indexed": true,
          "internalType": "address",
          "name": "canceledOwner",
          "type": "address"
        }
      ],
      "name": "OwnerCanceled",
      "type": "event"
    },
    {
      "anonymous": false,
      "inputs": [
        {
          "indexed": true,
          "internalType": "address",
          "name": "owner",
          "type": "address"
        },
        {
          "indexed": true,
          "internalType": "address",
          "name": "pendingOwner",
          "type": "address"
        }
      ],
      "name": "OwnerPending",
      "type": "event"
    },
    {
      "anonymous": false,
      "inputs": [
        {
          "indexed": true,
          "internalType": "address",
          "name": "prevOwner",
          "type": "address"
        },
        {
          "indexed": true,
          "internalType": "address",
          "name": "newOwner",
          "type": "address"
        }
      ],
      "name": "OwnerUpdated",
      "type": "event"
    },
    {
      "anonymous": false,
      "inputs": [
        {
          "indexed": true,
          "internalType": "address",
          "name": "newContract",
          "type": "address"
        },
        {
          "indexed": true,
          "internalType": "address",
          "name": "creator",
          "type": "address"
        },
        {
          "indexed": true,
          "internalType": "address",
          "name": "defaultAdmin",
          "type": "address"
        },
        {
          "indexed": false,
          "internalType": "string",
          "name": "contractURI",
          "type": "string"
        },
        {
          "indexed": false,
          "internalType": "string",
          "name": "name",
          "type": "string"
        },
        {
          "components": [
            {
              "internalType": "uint32",
              "name": "royaltyMintSchedule",
              "type": "uint32"
            },
            {
              "internalType": "uint32",
              "name": "royaltyBPS",
              "type": "uint32"
            },
            {
              "internalType": "address",
              "name": "royaltyRecipient",
              "type": "address"
            }
          ],
          "indexed": false,
          "internalType": "struct ICreatorRoyaltiesControl.RoyaltyConfiguration",
          "name": "defaultRoyaltyConfiguration",
          "type": "tuple"
        }
      ],
      "name": "SetupNewContract",
      "type": "event"
    },
    {
      "anonymous": false,
      "inputs": [
        {
          "indexed": true,
          "internalType": "address",
          "name": "implementation",
          "type": "address"
        }
      ],
      "name": "Upgraded",
      "type": "event"
    },
    {
      "inputs": [],
      "name": "acceptOwnership",
      "outputs": [],
      "stateMutability": "nonpayable",
      "type": "function"
    },
    {
      "inputs": [],
      "name": "cancelOwnershipTransfer",
      "outputs": [],
      "stateMutability": "nonpayable",
      "type": "function"
    },
    {
      "inputs": [],
      "name": "contractName",
      "outputs": [
        {
          "internalType": "string",
          "name": "",
          "type": "string"
        }
      ],
      "stateMutability": "pure",
      "type": "function"
    },
    {
      "inputs": [],
      "name": "contractURI",
      "outputs": [
        {
          "internalType": "string",
          "name": "",
          "type": "string"
        }
      ],
      "stateMutability": "pure",
      "type": "function"
    },
    {
      "inputs": [],
      "name": "contractVersion",
      "outputs": [
        {
          "internalType": "string",
          "name": "",
          "type": "string"
        }
      ],
      "stateMutability": "pure",
      "type": "function"
    },
    {
      "inputs": [
        {
          "internalType": "string",
          "name": "newContractURI",
          "type": "string"
        },
        {
          "internalType": "string",
          "name": "name",
          "type": "string"
        },
        {
          "components": [
            {
              "internalType": "uint32",
              "name": "royaltyMintSchedule",
              "type": "uint32"
            },
            {
              "internalType": "uint32",
              "name": "royaltyBPS",
              "type": "uint32"
            },
            {
              "internalType": "address",
              "name": "royaltyRecipient",
              "type": "address"
            }
          ],
          "internalType": "struct ICreatorRoyaltiesControl.RoyaltyConfiguration",
          "name": "defaultRoyaltyConfiguration",
          "type": "tuple"
        },
        {
          "internalType": "address payable",
          "name": "defaultAdmin",
          "type": "address"
        },
        {
          "internalType": "bytes[]",
          "name": "setupActions",
          "type": "bytes[]"
        }
      ],
      "name": "createContract",
      "outputs": [
        {
          "internalType": "address",
          "name": "",
          "type": "address"
        }
      ],
      "stateMutability": "nonpayable",
      "type": "function"
    },
    {
      "inputs": [
        {
          "internalType": "string",
          "name": "newContractURI",
          "type": "string"
        },
        {
          "internalType": "string",
          "name": "name",
          "type": "string"
        },
        {
          "components": [
            {
              "internalType": "uint32",
              "name": "royaltyMintSchedule",
              "type": "uint32"
            },
            {
              "internalType": "uint32",
              "name": "royaltyBPS",
              "type": "uint32"
            },
            {
              "internalType": "address",
              "name": "royaltyRecipient",
              "type": "address"
            }
          ],
          "internalType": "struct ICreatorRoyaltiesControl.RoyaltyConfiguration",
          "name": "defaultRoyaltyConfiguration",
          "type": "tuple"
        },
        {
          "internalType": "address payable",
          "name": "defaultAdmin",
          "type": "address"
        },
        {
          "internalType": "bytes[]",
          "name": "setupActions",
          "type": "bytes[]"
        }
      ],
      "name": "createContractDeterministic",
      "outputs": [
        {
          "internalType": "address",
          "name": "",
          "type": "address"
        }
      ],
      "stateMutability": "nonpayable",
      "type": "function"
    },
    {
      "inputs": [],
      "name": "defaultMinters",
      "outputs": [
        {
          "internalType": "contract IMinter1155[]",
          "name": "minters",
          "type": "address[]"
        }
      ],
      "stateMutability": "view",
      "type": "function"
    },
    {
      "inputs": [
        {
          "internalType": "address",
          "name": "msgSender",
          "type": "address"
        },
        {
          "internalType": "string",
          "name": "newContractURI",
          "type": "string"
        },
        {
          "internalType": "string",
          "name": "name",
          "type": "string"
        },
        {
          "internalType": "address",
          "name": "contractAdmin",
          "type": "address"
        }
      ],
      "name": "deterministicContractAddress",
      "outputs": [
        {
          "internalType": "address",
          "name": "",
          "type": "address"
        }
      ],
      "stateMutability": "view",
      "type": "function"
    },
    {
      "inputs": [],
      "name": "fixedPriceMinter",
      "outputs": [
        {
          "internalType": "contract IMinter1155",
          "name": "",
          "type": "address"
        }
      ],
      "stateMutability": "view",
      "type": "function"
    },
    {
      "inputs": [],
      "name": "implementation",
      "outputs": [
        {
          "internalType": "address",
          "name": "",
          "type": "address"
        }
      ],
      "stateMutability": "view",
      "type": "function"
    },
    {
      "inputs": [
        {
          "internalType": "address",
          "name": "_initialOwner",
          "type": "address"
        }
      ],
      "name": "initialize",
      "outputs": [],
      "stateMutability": "nonpayable",
      "type": "function"
    },
    {
      "inputs": [],
      "name": "merkleMinter",
      "outputs": [
        {
          "internalType": "contract IMinter1155",
          "name": "",
          "type": "address"
        }
      ],
      "stateMutability": "view",
      "type": "function"
    },
    {
      "inputs": [],
      "name": "owner",
      "outputs": [
        {
          "internalType": "address",
          "name": "",
          "type": "address"
        }
      ],
      "stateMutability": "view",
      "type": "function"
    },
    {
      "inputs": [],
      "name": "pendingOwner",
      "outputs": [
        {
          "internalType": "address",
          "name": "",
          "type": "address"
        }
      ],
      "stateMutability": "view",
      "type": "function"
    },
    {
      "inputs": [],
      "name": "proxiableUUID",
      "outputs": [
        {
          "internalType": "bytes32",
          "name": "",
          "type": "bytes32"
        }
      ],
      "stateMutability": "view",
      "type": "function"
    },
    {
      "inputs": [],
      "name": "redeemMinterFactory",
      "outputs": [
        {
          "internalType": "contract IMinter1155",
          "name": "",
          "type": "address"
        }
      ],
      "stateMutability": "view",
      "type": "function"
    },
    {
      "inputs": [],
      "name": "resignOwnership",
      "outputs": [],
      "stateMutability": "nonpayable",
      "type": "function"
    },
    {
      "inputs": [
        {
          "internalType": "address",
          "name": "_newOwner",
          "type": "address"
        }
      ],
      "name": "safeTransferOwnership",
      "outputs": [],
      "stateMutability": "nonpayable",
      "type": "function"
    },
    {
      "inputs": [
        {
          "internalType": "address",
          "name": "_newOwner",
          "type": "address"
        }
      ],
      "name": "transferOwnership",
      "outputs": [],
      "stateMutability": "nonpayable",
      "type": "function"
    },
    {
      "inputs": [
        {
          "internalType": "address",
          "name": "newImplementation",
          "type": "address"
        }
      ],
      "name": "upgradeTo",
      "outputs": [],
      "stateMutability": "nonpayable",
      "type": "function"
    },
    {
      "inputs": [
        {
          "internalType": "address",
          "name": "newImplementation",
          "type": "address"
        },
        {
          "internalType": "bytes",
          "name": "data",
          "type": "bytes"
        }
      ],
      "name": "upgradeToAndCall",
      "outputs": [],
      "stateMutability": "payable",
      "type": "function"
    },
    {
      "inputs": [],
      "name": "zora1155Impl",
      "outputs": [
        {
          "internalType": "contract IZoraCreator1155",
          "name": "",
          "type": "address"
        }
      ],
      "stateMutability": "view",
      "type": "function"
    }
  ],
  "bytecode": "0x610120604052306080523480156200001657600080fd5b50604051620028753803806200287583398101604081905262000039916200018c565b603454610100900460ff161580158062000057575060345460ff1615155b801562000087575062000075306200016460201b62000cc21760201c565b8062000087575060345460ff16600114155b15620000a657604051633d5c224160e11b815260040160405180910390fd5b6034805460ff191660011790558015620000ca576034805461ff0019166101001790555b6001600160a01b038516620000f25760405163e3e8010d60e01b815260040160405180910390fd5b6001600160a01b0380861660a05284811660c05283811660e052821661010052801562000159576034805461ff0019169055604051600181527f7f26b83ff96e1f2b6a682f133852f6798a09c465da95921460cefb38474024989060200160405180910390a15b5050505050620001f4565b6001600160a01b03163b151590565b6001600160a01b03811681146200018957600080fd5b50565b60008060008060808587031215620001a357600080fd5b8451620001b08162000173565b6020860151909450620001c38162000173565b6040860151909350620001d68162000173565b6060860151909250620001e98162000173565b939692955090935050565b60805160a05160c05160e051610100516125fd6200027860003960008181610427015261096401526000818161028401526108b601526000818161039c015261090d01526000818161032e015281816104c30152610a060152600081816105c1015281816106030152818161073a0152818161077c015261082e01526125fd6000f3fe608060405260043610620001285760003560e01c80630582823a146200012d57806323452b9c146200016a5780633659cfe61462000184578063395db2cd14620001a95780634f1ef28614620001ce578063516f7ed214620001e557806352d1902d146200020a5780635c60da1b1462000231578063695b0d26146200024957806370369613146200027057806370b1cafb14620002a657806375d0c0dc14620002cb578063786d90db146200031a57806379ba509714620003505780638da5cb5b1462000368578063961bbb7b1462000388578063a0a8e46014620003be578063c4d66de814620003ee578063e1e78e5e1462000413578063e30c39781462000449578063e8a3d4851462000469578063ed0c70911462000481578063f2fde38b1462000499575b600080fd5b3480156200013a57600080fd5b50620001526200014c36600462001811565b620004be565b604051620001619190620018e1565b60405180910390f35b3480156200017757600080fd5b50620001826200053c565b005b3480156200019157600080fd5b5062000182620001a3366004620018f5565b620005b7565b348015620001b657600080fd5b5062000182620001c8366004620018f5565b62000689565b62000182620001df3660046200193f565b62000730565b348015620001f257600080fd5b506200015262000204366004620019db565b620007f3565b3480156200021757600080fd5b506200022262000821565b60405190815260200162000161565b3480156200023e57600080fd5b506200015262000881565b3480156200025657600080fd5b506200026162000892565b60405162000161919062001a7a565b3480156200027d57600080fd5b50620001527f000000000000000000000000000000000000000000000000000000000000000081565b348015620002b357600080fd5b5062000152620002c536600462001ac9565b620009bc565b348015620002d857600080fd5b5060408051808201909152601a8152795a4f5241203131353520436f6e747261637420466163746f727960301b60208201525b60405162000161919062001be3565b3480156200032757600080fd5b50620001527f000000000000000000000000000000000000000000000000000000000000000081565b3480156200035d57600080fd5b506200018262000a9b565b3480156200037557600080fd5b506000546001600160a01b031662000152565b3480156200039557600080fd5b50620001527f000000000000000000000000000000000000000000000000000000000000000081565b348015620003cb57600080fd5b50604080518082019091526005815264322e372e3360d81b60208201526200030b565b348015620003fb57600080fd5b50620001826200040d366004620018f5565b62000afb565b3480156200042057600080fd5b50620001527f000000000000000000000000000000000000000000000000000000000000000081565b3480156200045657600080fd5b506001546001600160a01b031662000152565b3480156200047657600080fd5b506200030b62000c09565b3480156200048e57600080fd5b506200018262000c2a565b348015620004a657600080fd5b5062000182620004b8366004620018f5565b62000c62565b6000807f0000000000000000000000000000000000000000000000000000000000000000604051620004f0906200167d565b620004fc9190620018e1565b604051809103906000f08015801562000519573d6000803e3d6000fd5b5090506200052f818b8b8b8b8b8b8b8b62000cd1565b9998505050505050505050565b6000546001600160a01b03163314620005685760405163d238ed5960e01b815260040160405180910390fd5b600154600080546040516001600160a01b0393841693909116917f682679deecef4dcd49674845cc1e3a075fea9073680aa445a8207d5a4bdea3da91a3600180546001600160a01b0319169055565b6001600160a01b037f00000000000000000000000000000000000000000000000000000000000000001630036200060157604051631932df4560e01b815260040160405180910390fd5b7f00000000000000000000000000000000000000000000000000000000000000006001600160a01b03166200063562000dab565b6001600160a01b0316146200065d576040516364cd8d1960e01b815260040160405180910390fd5b620006688162000dc8565b60408051600080825260208201909252620006869183919062000fd1565b50565b806001600160a01b038116620006b257604051631627621f60e11b815260040160405180910390fd5b6000546001600160a01b03163314620006de5760405163d238ed5960e01b815260040160405180910390fd5b600180546001600160a01b0319166001600160a01b0384811691821790925560008054604051929316917f4f2638f5949b9614ef8d5e268cb51348ad7f434a34812bf64b6e95014fbd357e9190a35050565b6001600160a01b037f00000000000000000000000000000000000000000000000000000000000000001630036200077a57604051631932df4560e01b815260040160405180910390fd5b7f00000000000000000000000000000000000000000000000000000000000000006001600160a01b0316620007ae62000dab565b6001600160a01b031614620007d6576040516364cd8d1960e01b815260040160405180910390fd5b620007e18262000dc8565b620007ef8282600162000fd1565b5050565b60008062000806888888888888620010c5565b905062000813816200112f565b9150505b9695505050505050565b6000306001600160a01b037f000000000000000000000000000000000000000000000000000000000000000016146200086d57604051635e4c25f160e01b815260040160405180910390fd5b506000805160206200258883398151915290565b60006200088d62000dab565b905090565b604080516003808252608082019092526060916020820183803683370190505090507f000000000000000000000000000000000000000000000000000000000000000081600081518110620008eb57620008eb62001bf8565b60200260200101906001600160a01b031690816001600160a01b0316815250507f00000000000000000000000000000000000000000000000000000000000000008160018151811062000942576200094262001bf8565b60200260200101906001600160a01b031690816001600160a01b0316815250507f00000000000000000000000000000000000000000000000000000000000000008160028151811062000999576200099962001bf8565b60200260200101906001600160a01b031690816001600160a01b03168152505090565b600080620009cf338b8b8b8b8a620010c5565b9050600062000a668260405180602001620009ea906200167d565b601f1982820381018352601f90910116604081905262000a2f907f000000000000000000000000000000000000000000000000000000000000000090602001620018e1565b60408051601f198184030181529082905262000a4f929160200162001c0e565b604051602081830303815290604052600062001213565b90508062000a8c818d8d8d8d62000a83368f90038f018f62001c41565b8d8d8d62000cd1565b9b9a5050505050505050505050565b6001546001600160a01b0316331462000ac75760405163065cd53160e01b815260040160405180910390fd5b6000805460405133926001600160a01b0390921691600080516020620025a883398151915291a362000af93362001374565b565b603454610100900460ff161580158062000b19575060345460ff1615155b801562000b3e575062000b2c3062000cc2565b8062000b3e575060345460ff16600114155b1562000b5d57604051633d5c224160e11b815260040160405180910390fd5b6034805460ff19166001179055801562000b81576034805461ff0019166101001790555b62000b8c82620013d9565b62000b9662001465565b6040517f6a656eb613551e803db1baa3e77facd3bc45e8256f27f4cf09a50cf63b88a93390600090a18015620007ef576034805461ff0019169055604051600181527f7f26b83ff96e1f2b6a682f133852f6798a09c465da95921460cefb38474024989060200160405180910390a15050565b60606040518060600160405280602f815260200162002559602f9139905090565b6000546001600160a01b0316331462000c565760405163d238ed5960e01b815260040160405180910390fd5b62000af9600062001374565b806001600160a01b03811662000c8b57604051631627621f60e11b815260040160405180910390fd5b6000546001600160a01b0316331462000cb75760405163d238ed5960e01b815260040160405180910390fd5b620007ef8262001374565b6001600160a01b03163b151590565b826001600160a01b0316336001600160a01b03168a6001600160a01b03167fa45800684f65ae010ceb4385eceaed88dec7f6a6bcbe11f7ffd8bd24dd2653f48b8b8b8b8b60405162000d2895949392919062001cb6565b60405180910390a46040516322823ad360e21b81526001600160a01b038a1690638a08eb4c9062000d6c90899089908d908d908b908b908b908b9060040162001cf3565b600060405180830381600087803b15801562000d8757600080fd5b505af115801562000d9c573d6000803e3d6000fd5b50505050505050505050505050565b60008051602062002588833981519152546001600160a01b031690565b6000546001600160a01b0316331462000df45760405163d238ed5960e01b815260040160405180910390fd5b62000ed2816001600160a01b03166375d0c0dc6040518163ffffffff1660e01b81526004016000604051808303816000875af115801562000e39573d6000803e3d6000fd5b505050506040513d6000823e601f3d908101601f1916820160405262000e63919081019062001de4565b306001600160a01b03166375d0c0dc6040518163ffffffff1660e01b8152600401600060405180830381865afa15801562000ea2573d6000803e3d6000fd5b505050506040513d6000823e601f3d908101601f1916820160405262000ecc919081019062001de4565b6200148d565b6200068657306001600160a01b03166375d0c0dc6040518163ffffffff1660e01b8152600401600060405180830381865afa15801562000f16573d6000803e3d6000fd5b505050506040513d6000823e601f3d908101601f1916820160405262000f40919081019062001de4565b816001600160a01b03166375d0c0dc6040518163ffffffff1660e01b81526004016000604051808303816000875af115801562000f81573d6000803e3d6000fd5b505050506040513d6000823e601f3d908101601f1916820160405262000fab919081019062001de4565b60405163a23cbf7b60e01b815260040162000fc892919062001e5a565b60405180910390fd5b7f4910fdfa16fed3260ed0e7147f7cc6da11a60208b5b9406d12a635614ffd91435460ff16156200100c576200100783620014a9565b505050565b826001600160a01b03166352d1902d6040518163ffffffff1660e01b8152600401602060405180830381865afa92505050801562001069575060408051601f3d908101601f19168201909252620010669181019062001e83565b60015b620010875760405163e5ec176960e01b815260040160405180910390fd5b600080516020620025888339815191528114620010b7576040516308373ebf60e41b815260040160405180910390fd5b506200100783838362001502565b60008682620010d5888862001533565b620010e1878762001533565b604080516001600160a01b03958616602082015294909316928401929092526060830152608082015260a0016040516020818303038152906040528051906020012090509695505050505050565b604080518082018252601081526f67363d3d37363d34f03d5260086018f360801b60209182015290516001600160f81b0319918101919091526001600160601b03193060601b166021820152603581018290527f21c35dbe1b344a2488cf3321d6ce542f8e9f305544ff09e4993a62319a497c1f60558201526000908190620011cf906075015b6040516020818303038152906040528051906020012090565b6040516135a560f21b60208201526001600160601b0319606083901b166022820152600160f81b60368201529091506200120c90603701620011b6565b9392505050565b6000806040518060400160405280601081526020016f67363d3d37363d34f03d5260086018f360801b81525090506000858251602084016000f590506001600160a01b0381166200129b5760405162461bcd60e51b81526020600482015260116024820152701111541313d65351539517d19052531151607a1b604482015260640162000fc8565b620012a6866200112f565b92506000816001600160a01b03168587604051620012c5919062001e9d565b60006040518083038185875af1925050503d806000811462001304576040519150601f19603f3d011682016040523d82523d6000602084013e62001309565b606091505b505090508080156200132457506001600160a01b0384163b15155b6200136a5760405162461bcd60e51b815260206004820152601560248201527412539255125053125690551253d397d19052531151605a1b604482015260640162000fc8565b5050509392505050565b600080546040516001600160a01b0380851693921691600080516020620025a883398151915291a3600080546001600160a01b0319166001600160a01b038381169190911790915560015416156200068657600180546001600160a01b031916905550565b806001600160a01b0381166200140257604051631627621f60e11b815260040160405180910390fd5b603454610100900460ff166200142a576040516296bfb160e81b815260040160405180910390fd5b600080546001600160a01b0319166001600160a01b0384169081178255604051909190600080516020620025a8833981519152908290a35050565b603454610100900460ff1662000af9576040516296bfb160e81b815260040160405180910390fd5b6000818051906020012083805190602001201490505b92915050565b620014b48162000cc2565b620014d25760405163529880eb60e01b815260040160405180910390fd5b6000805160206200258883398151915280546001600160a01b0319166001600160a01b0392909216919091179055565b6200150d8362001557565b6000825111806200151b5750805b1562001007576200152d838362001599565b50505050565b600082826040516200154792919062001ebb565b6040518091039020905092915050565b6200156281620014a9565b6040516001600160a01b038216907fbc7cd75a20ee27fd9adebab32041f755214dbc6bffa90cc0225b39da2e5c2d3b90600090a250565b6060620015a68362000cc2565b620015c45760405163369891e760e01b815260040160405180910390fd5b600080846001600160a01b031684604051620015e1919062001e9d565b600060405180830381855af49150503d80600081146200161e576040519150601f19603f3d011682016040523d82523d6000602084013e62001623565b606091505b50915091506200163482826200163d565b95945050505050565b606082156200164e575080620014a3565b620014a382805115620016645780518082602001fd5b6040516350a28c9b60e11b815260040160405180910390fd5b61068d8062001ecc83390190565b60008083601f8401126200169e57600080fd5b5081356001600160401b03811115620016b657600080fd5b602083019150836020828501011115620016cf57600080fd5b9250929050565b634e487b7160e01b600052604160045260246000fd5b604051601f8201601f191681016001600160401b0381118282101715620017175762001717620016d6565b604052919050565b803563ffffffff811681146200173457600080fd5b919050565b6001600160a01b03811681146200068657600080fd5b6000606082840312156200176257600080fd5b604051606081016001600160401b0381118282101715620017875762001787620016d6565b60405290508062001798836200171f565b8152620017a8602084016200171f565b60208201526040830135620017bd8162001739565b6040919091015292915050565b60008083601f840112620017dd57600080fd5b5081356001600160401b03811115620017f557600080fd5b6020830191508360208260051b8501011115620016cf57600080fd5b60008060008060008060008060e0898b0312156200182e57600080fd5b88356001600160401b03808211156200184657600080fd5b620018548c838d016200168b565b909a50985060208b01359150808211156200186e57600080fd5b6200187c8c838d016200168b565b9098509650869150620018938c60408d016200174f565b955060a08b01359150620018a78262001739565b90935060c08a01359080821115620018be57600080fd5b50620018cd8b828c01620017ca565b999c989b5096995094979396929594505050565b6001600160a01b0391909116815260200190565b6000602082840312156200190857600080fd5b81356200120c8162001739565b60006001600160401b03821115620019315762001931620016d6565b50601f01601f191660200190565b600080604083850312156200195357600080fd5b8235620019608162001739565b915060208301356001600160401b038111156200197c57600080fd5b8301601f810185136200198e57600080fd5b8035620019a56200199f8262001915565b620016ec565b818152866020838501011115620019bb57600080fd5b816020840160208301376000602083830101528093505050509250929050565b60008060008060008060808789031215620019f557600080fd5b863562001a028162001739565b955060208701356001600160401b038082111562001a1f57600080fd5b62001a2d8a838b016200168b565b9097509550604089013591508082111562001a4757600080fd5b5062001a5689828a016200168b565b909450925050606087013562001a6c8162001739565b809150509295509295509295565b6020808252825182820181905260009190848201906040850190845b8181101562001abd5783516001600160a01b03168352928401929184019160010162001a96565b50909695505050505050565b600080600080600080600080888a0360e081121562001ae757600080fd5b89356001600160401b038082111562001aff57600080fd5b62001b0d8d838e016200168b565b909b50995060208c013591508082111562001b2757600080fd5b62001b358d838e016200168b565b90995097508791506060603f198401121562001b5057600080fd5b60408c01965060a08c0135925062001b688362001739565b91945060c08b0135918083111562001b7f57600080fd5b5050620018cd8b828c01620017ca565b60005b8381101562001bac57818101518382015260200162001b92565b50506000910152565b6000815180845262001bcf81602086016020860162001b8f565b601f01601f19169290920160200192915050565b6020815260006200120c602083018462001bb5565b634e487b7160e01b600052603260045260246000fd5b6000835162001c2281846020880162001b8f565b83519083019062001c3881836020880162001b8f565b01949350505050565b60006060828403121562001c5457600080fd5b6200120c83836200174f565b81835281816020850137506000828201602090810191909152601f909101601f19169091010190565b805163ffffffff9081168352602080830151909116908301526040908101516001600160a01b0316910152565b60a08152600062001ccc60a08301878962001c60565b828103602084015262001ce181868862001c60565b91505062000817604083018462001c89565b60e08152600062001d0960e083018a8c62001c60565b60208382038185015262001d1f828a8c62001c60565b915062001d30604085018962001c89565b6001600160a01b03871660a085015283820360c0850152848252808201600586901b830182018760005b8881101562001dd057858303601f190184528135368b9003601e1901811262001d8257600080fd5b8a0185810190356001600160401b0381111562001d9e57600080fd5b80360382131562001dae57600080fd5b62001dbb85828462001c60565b95870195945050509084019060010162001d5a565b50909e9d5050505050505050505050505050565b60006020828403121562001df757600080fd5b81516001600160401b0381111562001e0e57600080fd5b8201601f8101841362001e2057600080fd5b805162001e316200199f8262001915565b81815285602083850101111562001e4757600080fd5b6200163482602083016020860162001b8f565b60408152600062001e6f604083018562001bb5565b828103602084015262001634818562001bb5565b60006020828403121562001e9657600080fd5b5051919050565b6000825162001eb181846020870162001b8f565b9190910192915050565b818382376000910190815291905056fe608060405234801561001057600080fd5b5060405161068d38038061068d83398101604081905261002f91610302565b80604051806020016040528060008152506100528282600061005a60201b60201c565b50505061039e565b61006383610090565b6000825111806100705750805b1561008b5761008983836100d060201b6100291760201c565b505b505050565b610099816100fc565b6040516001600160a01b038216907fbc7cd75a20ee27fd9adebab32041f755214dbc6bffa90cc0225b39da2e5c2d3b90600090a250565b60606100f58383604051806060016040528060278152602001610666602791396101ce565b9392505050565b61010f8161024760201b6100551760201c565b6101765760405162461bcd60e51b815260206004820152602d60248201527f455243313936373a206e657720696d706c656d656e746174696f6e206973206e60448201526c1bdd08184818dbdb9d1c9858dd609a1b60648201526084015b60405180910390fd5b806101ad7f360894a13ba1a3210667c828492db98dca3e2076cc3735a920a3ca505d382bbc60001b61025660201b6100641760201c565b80546001600160a01b0319166001600160a01b039290921691909117905550565b6060600080856001600160a01b0316856040516101eb919061034f565b600060405180830381855af49150503d8060008114610226576040519150601f19603f3d011682016040523d82523d6000602084013e61022b565b606091505b50909250905061023d86838387610259565b9695505050505050565b6001600160a01b03163b151590565b90565b606083156102c65782516000036102bf5761027385610247565b6102bf5760405162461bcd60e51b815260206004820152601d60248201527f416464726573733a2063616c6c20746f206e6f6e2d636f6e7472616374000000604482015260640161016d565b50816102d0565b6102d083836102d8565b949350505050565b8151156102e85781518083602001fd5b8060405162461bcd60e51b815260040161016d919061036b565b60006020828403121561031457600080fd5b81516001600160a01b03811681146100f557600080fd5b60005b8381101561034657818101518382015260200161032e565b50506000910152565b6000825161036181846020870161032b565b9190910192915050565b602081526000825180602084015261038a81604085016020870161032b565b601f01601f19169190910160400192915050565b6102b9806103ad6000396000f3fe60806040523661001357610011610017565b005b6100115b610027610022610067565b61009f565b565b606061004e838360405180606001604052806027815260200161025d602791396100c3565b9392505050565b6001600160a01b03163b151590565b90565b600061009a7f360894a13ba1a3210667c828492db98dca3e2076cc3735a920a3ca505d382bbc546001600160a01b031690565b905090565b3660008037600080366000845af43d6000803e8080156100be573d6000f35b3d6000fd5b6060600080856001600160a01b0316856040516100e0919061020d565b600060405180830381855af49150503d806000811461011b576040519150601f19603f3d011682016040523d82523d6000602084013e610120565b606091505b50915091506101318683838761013b565b9695505050505050565b606083156101ad5782516000036101a65761015585610055565b6101a65760405162461bcd60e51b815260206004820152601d60248201527f416464726573733a2063616c6c20746f206e6f6e2d636f6e747261637400000060448201526064015b60405180910390fd5b50816101b7565b6101b783836101bf565b949350505050565b8151156101cf5781518083602001fd5b8060405162461bcd60e51b815260040161019d9190610229565b60005b838110156102045781810151838201526020016101ec565b50506000910152565b6000825161021f8184602087016101e9565b9190910192915050565b60208152600082518060208401526102488160408501602087016101e9565b601f01601f1916919091016040019291505056fe416464726573733a206c6f772d6c6576656c2064656c65676174652063616c6c206661696c6564a2646970667358221220fa88d55369d388f23d57c7c5e69ea028b04af108b8405f77a15a0fa146c9b16d64736f6c63430008110033416464726573733a206c6f772d6c6576656c2064656c65676174652063616c6c206661696c656468747470733a2f2f6769746875622e636f6d2f6f75727a6f72612f7a6f72612d313135352d636f6e7472616374732f360894a13ba1a3210667c828492db98dca3e2076cc3735a920a3ca505d382bbc8292fce18fa69edf4db7b94ea2e58241df0ae57f97e0a6c9b29067028bf92d76a26469706673582212200dbd4724b541788fa08ede3978f235a7575c1d82c0c37bfbf91bf56159bd430a64736f6c63430008110033",
  "linkReferences": {},
  "deployedLinkReferences": {}
}