{
  "_format": "hh-sol-artifact-1",
  "contractName": "ZoraCreator1155StorageV1",
  "sourceName": "contracts/zora/nft/ZoraCreator1155StorageV1.sol",
  "abi": [
    {
      "inputs": [],
      "name": "config",
      "outputs": [
        {
          "internalType": "address",
          "name": "owner",
          "type": "address"
        },
        {
          "internalType": "uint96",
          "name": "__gap1",
          "type": "uint96"
        },
        {
          "internalType": "address payable",
          "name": "fundsRecipient",
          "type": "address"
        },
        {
          "internalType": "uint96",
          "name": "__gap2",
          "type": "uint96"
        },
        {
          "internalType": "contract ITransferHookReceiver",
          "name": "transferHook",
          "type": "address"
        },
        {
          "internalType": "uint96",
          "name": "__gap3",
          "type": "uint96"
        }
      ],
      "stateMutability": "view",
      "type": "function"
    },
    {
      "inputs": [
        {
          "internalType": "uint256",
          "name": "",
          "type": "uint256"
        }
      ],
      "name": "metadataRendererContract",
      "outputs": [
        {
          "internalType": "address",
          "name": "",
          "type": "address"
        }
      ],
      "stateMutability": "view",
      "type": "function"
    },
    {
      "inputs": [],
      "name": "nextTokenId",
      "outputs": [
        {
          "internalType": "uint256",
          "name": "",
          "type": "uint256"
        }
      ],
      "stateMutability": "view",
      "type": "function"
    }
  ],
  "bytecode": "0x608060405234801561001057600080fd5b5061017a806100206000396000f3fe608060405234801561001057600080fd5b50600436106100415760003560e01c806369a5b3021461004657806375794a3c1461008c57806379502c55146100a3575b600080fd5b61006f61005436600461012b565b6001602052600090815260409020546001600160a01b031681565b6040516001600160a01b0390911681526020015b60405180910390f35b61009560025481565b604051908152602001610083565b6003546004546005546100e4926001600160a01b03808216936001600160601b03600160a01b93849004811694828416949283900482169381169290041686565b604080516001600160a01b0397881681526001600160601b0396871660208201529487169085015291841660608401529093166080820152911660a082015260c001610083565b60006020828403121561013d57600080fd5b503591905056fea2646970667358221220ace57762174818be77241b557071710d704e5010f3e9bd16ce432e90fb08f3d664736f6c63430008110033",
  "linkReferences": {},
  "deployedLinkReferences": {}
}