{
  "_format": "hh-sol-artifact-1",
  "contractName": "CreatorPermissionStorageV1",
  "sourceName": "contracts/zora/permissions/CreatorPermissionStorageV1.sol",
  "abi": [
    {
      "inputs": [
        {
          "internalType": "uint256",
          "name": "",
          "type": "uint256"
        },
        {
          "internalType": "address",
          "name": "",
          "type": "address"
        }
      ],
      "name": "permissions",
      "outputs": [
        {
          "internalType": "uint256",
          "name": "",
          "type": "uint256"
        }
      ],
      "stateMutability": "view",
      "type": "function"
    }
  ],
  "bytecode": "0x608060405234801561001057600080fd5b5060d48061001f6000396000f3fe6080604052348015600f57600080fd5b506004361060285760003560e01c8063300ecdb914602d575b600080fd5b605260383660046064565b600060208181529281526040808220909352908152205481565b60405190815260200160405180910390f35b60008060408385031215607657600080fd5b8235915060208301356001600160a01b0381168114609357600080fd5b80915050925092905056fea264697066735822122062db619d1dca673a12294f6f765144c06da641a0d0aa753ea55b8da1a20cf7d364736f6c63430008110033",
  "linkReferences": {},
  "deployedLinkReferences": {}
}