{
  "_format": "hh-sol-artifact-1",
  "contractName": "LegacyNamingControl",
  "sourceName": "contracts/zora/legacy-naming/LegacyNamingControl.sol",
  "abi": [
    {
      "inputs": [],
      "name": "name",
      "outputs": [
        {
          "internalType": "string",
          "name": "",
          "type": "string"
        }
      ],
      "stateMutability": "view",
      "type": "function"
    },
    {
      "inputs": [],
      "name": "symbol",
      "outputs": [
        {
          "internalType": "string",
          "name": "",
          "type": "string"
        }
      ],
      "stateMutability": "pure",
      "type": "function"
    }
  ],
  "bytecode": "0x608060405234801561001057600080fd5b506101b0806100206000396000f3fe608060405234801561001057600080fd5b50600436106100365760003560e01c806306fdde031461003b57806395d89b4114610059575b600080fd5b610043610060565b60405161005091906100f2565b60405180910390f35b6060610043565b60606000805461006f90610140565b80601f016020809104026020016040519081016040528092919081815260200182805461009b90610140565b80156100e85780601f106100bd576101008083540402835291602001916100e8565b820191906000526020600020905b8154815290600101906020018083116100cb57829003601f168201915b5050505050905090565b600060208083528351808285015260005b8181101561011f57858101830151858201604001528201610103565b506000604082860101526040601f19601f8301168501019250505092915050565b600181811c9082168061015457607f821691505b60208210810361017457634e487b7160e01b600052602260045260246000fd5b5091905056fea2646970667358221220b9896745ad6c676d874bb34ee347178231948c7da0b35d877ebbbd57a0dfaaf564736f6c63430008110033",
  "linkReferences": {},
  "deployedLinkReferences": {}
}