{
  "_format": "hh-sol-artifact-1",
  "contractName": "SharedBaseConstants",
  "sourceName": "contracts/zora/shared/SharedBaseConstants.sol",
  "abi": [
    {
      "inputs": [],
      "name": "CONTRACT_BASE_ID",
      "outputs": [
        {
          "internalType": "uint256",
          "name": "",
          "type": "uint256"
        }
      ],
      "stateMutability": "view",
      "type": "function"
    }
  ],
  "bytecode": "0x6080604052348015600f57600080fd5b50607c8061001e6000396000f3fe6080604052348015600f57600080fd5b506004361060285760003560e01c80630114420114602d575b600080fd5b6034600081565b60405190815260200160405180910390f3fea2646970667358221220c36c1e590c95df5a23d3649c4d875fe5d4028deaf3b9751de80b48a87163bc9964736f6c63430008110033",
  "linkReferences": {},
  "deployedLinkReferences": {}
}