{
  "_format": "hh-sol-artifact-1",
  "contractName": "DelegatedTokenCreation",
  "sourceName": "contracts/zora/delegation/ZoraCreator1155Attribution.sol",
  "abi": [
    {
      "inputs": [
        {
          "internalType": "enum ECDSAUpgradeable.RecoverError",
          "name": "recoverError",
          "type": "uint8"
        }
      ],
      "name": "InvalidSignature",
      "type": "error"
    },
    {
      "inputs": [
        {
          "internalType": "bytes4",
          "name": "magicValue",
          "type": "bytes4"
        }
      ],
      "name": "InvalidSigner",
      "type": "error"
    },
    {
      "inputs": [],
      "name": "MintNotYetStarted",
      "type": "error"
    },
    {
      "inputs": [],
      "name": "PremintDeleted",
      "type": "error"
    },
    {
      "inputs": [],
      "name": "premintSignerContractFailedToRecoverSigner",
      "type": "error"
    },
    {
      "inputs": [],
      "name": "premintSignerContractNotAContract",
      "type": "error"
    },
    {
      "inputs": [
        {
          "internalType": "bytes",
          "name": "premintConfigEncoded",
          "type": "bytes"
        },
        {
          "internalType": "bytes32",
          "name": "premintVersion",
          "type": "bytes32"
        },
        {
          "internalType": "bytes",
          "name": "signature",
          "type": "bytes"
        },
        {
          "internalType": "address",
          "name": "tokenContract",
          "type": "address"
        },
        {
          "internalType": "uint256",
          "name": "newTokenId",
          "type": "uint256"
        },
        {
          "internalType": "address",
          "name": "premintSignerContract",
          "type": "address"
        }
      ],
      "name": "decodeAndRecoverDelegatedTokenSetup",
      "outputs": [
        {
          "components": [
            {
              "components": [
                {
                  "internalType": "bytes32",
                  "name": "structHash",
                  "type": "bytes32"
                },
                {
                  "internalType": "string",
                  "name": "domainName",
                  "type": "string"
                },
                {
                  "internalType": "string",
                  "name": "version",
                  "type": "string"
                },
                {
                  "internalType": "address",
                  "name": "creator",
                  "type": "address"
                },
                {
                  "internalType": "bytes",
                  "name": "signature",
                  "type": "bytes"
                }
              ],
              "internalType": "struct DecodedCreatorAttribution",
              "name": "attribution",
              "type": "tuple"
            },
            {
              "internalType": "uint32",
              "name": "uid",
              "type": "uint32"
            },
            {
              "internalType": "string",
              "name": "tokenURI",
              "type": "string"
            },
            {
              "internalType": "uint256",
              "name": "maxSupply",
              "type": "uint256"
            },
            {
              "internalType": "address",
              "name": "createReferral",
              "type": "address"
            }
          ],
          "internalType": "struct DelegatedTokenSetup",
          "name": "params",
          "type": "tuple"
        },
        {
          "components": [
            {
              "internalType": "bytes32",
              "name": "structHash",
              "type": "bytes32"
            },
            {
              "internalType": "string",
              "name": "domainName",
              "type": "string"
            },
            {
              "internalType": "string",
              "name": "version",
              "type": "string"
            },
            {
              "internalType": "address",
              "name": "creator",
              "type": "address"
            },
            {
              "internalType": "bytes",
              "name": "signature",
              "type": "bytes"
            }
          ],
          "internalType": "struct DecodedCreatorAttribution",
          "name": "creatorAttribution",
          "type": "tuple"
        },
        {
          "internalType": "bytes[]",
          "name": "tokenSetupActions",
          "type": "bytes[]"
        }
      ],
      "stateMutability": "view",
      "type": "function"
    },
    {
      "inputs": [],
      "name": "supportedPremintSignatureVersions",
      "outputs": [
        {
          "internalType": "string[]",
          "name": "versions",
          "type": "string[]"
        }
      ],
      "stateMutability": "pure",
      "type": "function"
    }
  ],
  "bytecode": "0x61166c61003a600b82828239805160001a60731461002d57634e487b7160e01b600052600060045260246000fd5b30600052607381538281f3fe73000000000000000000000000000000000000000030146080604052600436106100405760003560e01c8063784a807814610045578063ed78891314610070575b600080fd5b610058610053366004610f3d565b610085565b6040516100679392919061112a565b60405180910390f35b610078610194565b60405161006791906111bb565b61008d610dba565b610095610def565b6040805180820190915260018152603160f81b60209091015260607f37610255ab3f0df385209ed77d20f6af0a56ae9c81fcf83234b398d0d674743a89016101365760008a8060200190518101906100ed91906112c7565b905061011e604051806040016040528060018152602001603160f81b815250610115836101a3565b898c8c8a610239565b925061012a81876102dd565b90945091506101879050565b60008a80602001905181019061014c919061142b565b9050610174604051806040016040528060018152602001601960f91b81525061011583610333565b92506101808187610363565b9094509150505b9750975097945050505050565b606061019e6103ce565b905090565b60007fb2832e40a2c8ded9e848f07a723df9674a01f6ffab49c0fdaf8f87dac3600d176101d3836000015161046e565b83602001518460400151856060015160405160200161021c959493929190948552602085019390935263ffffffff91821660408501521660608301521515608082015260a00190565b604051602081830303815290604052805190602001209050919050565b610241610def565b85815260408101879052865160208801206102659087908690869089904688610558565b6001600160a01b03166060820152604080516020601f86018190048102820181019092528481529085908590819084018382808284376000920191909152505050506080820152604080518082019091526009815268283932b6b4b73a32b960b91b6020808301919091528201529695505050505050565b6102e5610dba565b60606102fd84600001516080015185606001516106fe565b60208085015163ffffffff1690830152835161031a90849061075f565b8451516040840152935160200151606083015250929050565b60007f05eab15bdbf7a68d3cb3d17c49671e2e6c63cc46216fc2aee6662eef933f35a16101d38360000151610791565b61036b610dba565b606061038384600001516080015185606001516106fe565b60208085015163ffffffff169083015283516103a090849061087e565b84515160408401528451602001516060840152935161012001516001600160a01b0316608083015250929050565b6040805160028082526060828101909352816020015b60608152602001906001900390816103e4579050509050604051806040016040528060018152602001603160f81b8152508160008151811061042857610428611523565b6020026020010181905250604051806040016040528060018152602001601960f91b8152508160018151811061046057610460611523565b602002602001018190525090565b805180516020909101206000907f2e0a87879bcc01f7ce81f7ceeeb3b0f42eadf6b77632feb6ff7d7c090cb4fca59083602001518460400151856060015186608001518760a001518860c001518960e001518a61010001518b610120015160405160200161021c9b9a999897969594939291909a8b5260208b019990995260408a01979097526001600160401b0395861660608a01526001600160601b0394909416608089015291841660a088015290921660c086015263ffffffff91821660e0860152166101008401526001600160a01b03908116610120840152166101408201526101600190565b600080610567898787876108a8565b90506001600160a01b0383161561067557826001600160a01b03163b6000036105a35760405163745a85d160e01b815260040160405180910390fd5b604051630b135d3f60e11b81526001600160a01b03841690631626ba7e906105d39084908c908c90600401611539565b602060405180830381865afa92505050801561060c575060408051601f3d908101601f191682019092526106099181019061156f565b60015b610629576040516392f1cd7160e01b815260040160405180910390fd5b6001600160e01b03198116630b135d3f60e11b0361064b5783925050506106f3565b60405163a128ff6f60e01b81526001600160e01b0319821660048201526024015b60405180910390fd5b60006106b7828a8a8080601f01602080910402602001604051908101604052809392919081815260200183838082843760009201919091525061090192505050565b909350905060008160048111156106d0576106d0611599565b146106f0578060405163480770df60e01b815260040161066c91906115af565b50505b979650505050505050565b6001600160401b0382161580159061071e575042826001600160401b0316115b1561073c57604051630e91d3a160e11b815260040160405180910390fd5b801561075b5760405163bf65a67960e01b815260040160405180910390fd5b5050565b606061078a83836101200151846060015185604001518660a001518760e00151886101000151610946565b9392505050565b805180516020909101206000907fa944c529f72981937a528acb6e39cee175ec65287d5ee3271eca682f45dd5a8f9083602001518460400151856060015186608001518760a001518860c001518960e001518a61010001518b610120015160405160200161021c9b9a999897969594939291909a8b5260208b019990995260408a01979097526001600160401b0395861660608a01526001600160601b0394909416608089015291841660a088015290921660c086015263ffffffff9190911660e08501526001600160a01b03908116610100850152908116610120840152166101408201526101600190565b606061078a83836101000151846060015185604001518660a001518760c001518860e00151610946565b604080518082019091526009815268283932b6b4b73a32b960b91b60209091015260006108f8857f33b8919dd8a2cde3a1376263448ed96ccec19950283b64caf3d1d3a23dfa6a18858786610bb1565b95945050505050565b60008082516041036109375760208301516040840151606085015160001a61092b87828585610c5b565b9450945050505061093f565b506000905060025b9250929050565b60408051600380825260808201909252606091816020015b606081526020019060019003908161095e57505060408051602481018b90526001600160a01b038a16604482015260046064808301919091528251808303909101815260849091019091526020810180516001600160e01b03166304764cc560e51b17905281519192509082906000906109da576109da611523565b6020908102919091010152636c825ca560e11b8888631a6dbf7760e11b82610a048b8b8b8a610d15565b60408051602481019390935281516001600160401b0390811660448501526020830151811660648501529082015116608483015260608101516001600160601b031660a4830152608001516001600160a01b031660c482015260e40160408051601f198184030181529181526020820180516001600160e01b03166001600160e01b0319909416939093179092529051610aa3939291906024016115d7565b604051602081830303815290604052906001600160e01b0319166020820180516001600160e01b03838183161783525050505081600181518110610ae957610ae9611523565b602090810291909101810191909152604080516060810182526000815263ffffffff8681169382019384526001600160a01b038087168385019081529351602481018e90529251821660448401529351166064820152905190911660848201526357f6bf4f60e11b9060a401604051602081830303815290604052906001600160e01b0319166020820180516001600160e01b03838183161783525050505081600281518110610b9b57610b9b611523565b6020026020010181905250979650505050505050565b6000610c51610c3183858888604080517f8b73c3c69bb8fe3d512ecc4cf759cc79239f7b179b0ffacaa9a75d522b39400f60208083019190915281830185905260608201849052608082018790526001600160a01b03861660a0808401919091528351808403909101815260c090920190925280519101206000906108f8565b8760405161190160f01b8152600281019290925260228201526042902090565b9695505050505050565b6000806fa2a8918ca85bafe22016d0b997e4df60600160ff1b03831115610c885750600090506003610d0c565b6040805160008082526020820180845289905260ff881692820192909252606081018690526080810185905260019060a0016020604051602081039080840390855afa158015610cdc573d6000803e3d6000fd5b5050604051601f1901519150506001600160a01b038116610d0557600060019250925050610d0c565b9150600090505b94509492505050565b6040805160a0810182526000808252602082018190529181018290526060810182905260808101919091524260006001600160401b03851615610d6157610d5c8583611601565b610d6a565b6001600160401b035b6040805160a0810182526001600160401b039485168152918416602083015296909216958201959095526001600160601b039095166060860152506001600160a01b031660808401525090919050565b6040518060a00160405280610dcd610def565b8152600060208201819052606060408301819052820181905260809091015290565b6040805160a081018252600080825260606020830181905292820183905282820152608081019190915290565b634e487b7160e01b600052604160045260246000fd5b604051608081016001600160401b0381118282101715610e5457610e54610e1c565b60405290565b60405161014081016001600160401b0381118282101715610e5457610e54610e1c565b604051601f8201601f191681016001600160401b0381118282101715610ea557610ea5610e1c565b604052919050565b60006001600160401b03821115610ec657610ec6610e1c565b50601f01601f191660200190565b60008083601f840112610ee657600080fd5b5081356001600160401b03811115610efd57600080fd5b60208301915083602082850101111561093f57600080fd5b6001600160a01b0381168114610f2a57600080fd5b50565b8035610f3881610f15565b919050565b600080600080600080600060c0888a031215610f5857600080fd5b87356001600160401b0380821115610f6f57600080fd5b818a0191508a601f830112610f8357600080fd5b8135610f96610f9182610ead565b610e7d565b8181528c6020838601011115610fab57600080fd5b81602085016020830137600060208383010152809a50505060208a0135975060408a0135915080821115610fde57600080fd5b50610feb8a828b01610ed4565b9096509450610ffe905060608901610f2d565b92506080880135915061101360a08901610f2d565b905092959891949750929550565b60005b8381101561103c578181015183820152602001611024565b50506000910152565b6000815180845261105d816020860160208601611021565b601f01601f19169290920160200192915050565b805182526000602082015160a0602085015261109060a0850182611045565b9050604083015184820360408601526110a98282611045565b91505060018060a01b036060840151166060850152608083015184820360808601526108f88282611045565b600081518084526020808501808196508360051b8101915082860160005b8581101561111d57828403895261110b848351611045565b988501989350908401906001016110f3565b5091979650505050505050565b606081526000845160a06060840152611147610100840182611071565b905063ffffffff60208701511660808401526040860151605f198483030160a08501526111748282611045565b606088015160c086015260808801516001600160a01b031660e0860152848103602086015291506111a790508186611071565b90508281036040840152610c5181856110d5565b6000602080830181845280855180835260408601915060408160051b870101925083870160005b8281101561121057603f198886030184526111fe858351611045565b945092850192908501906001016111e2565b5092979650505050505050565b600082601f83011261122e57600080fd5b815161123c610f9182610ead565b81815284602083860101111561125157600080fd5b611262826020830160208701611021565b949350505050565b80516001600160401b0381168114610f3857600080fd5b80516001600160601b0381168114610f3857600080fd5b805163ffffffff81168114610f3857600080fd5b8051610f3881610f15565b80518015158114610f3857600080fd5b6000602082840312156112d957600080fd5b81516001600160401b03808211156112f057600080fd5b908301906080828603121561130457600080fd5b61130c610e32565b82518281111561131b57600080fd5b8301610140818803121561132e57600080fd5b611336610e5a565b81518481111561134557600080fd5b6113518982850161121d565b8252506020820151602082015261136a6040830161126a565b604082015261137b60608301611281565b606082015261138c6080830161126a565b608082015261139d60a0830161126a565b60a08201526113ae60c08301611298565b60c08201526113bf60e08301611298565b60e082015261010093506113d48483016112ac565b8482015261012093506113e88483016112ac565b818501528252506113fb60208401611298565b602082015261140c60408401611298565b604082015261141d606084016112b7565b606082015295945050505050565b60006020828403121561143d57600080fd5b81516001600160401b038082111561145457600080fd5b908301906080828603121561146857600080fd5b611470610e32565b82518281111561147f57600080fd5b8301610140818803121561149257600080fd5b61149a610e5a565b8151848111156114a957600080fd5b6114b58982850161121d565b825250602082015160208201526114ce6040830161126a565b60408201526114df60608301611281565b60608201526114f06080830161126a565b608082015261150160a0830161126a565b60a082015261151260c08301611298565b60c08201526113bf60e083016112ac565b634e487b7160e01b600052603260045260246000fd5b83815260406020820152816040820152818360608301376000818301606090810191909152601f909201601f1916010192915050565b60006020828403121561158157600080fd5b81516001600160e01b03198116811461078a57600080fd5b634e487b7160e01b600052602160045260246000fd5b60208101600583106115d157634e487b7160e01b600052602160045260246000fd5b91905290565b8381526001600160a01b03831660208201526060604082018190526000906108f890830184611045565b6001600160401b0381811683821601908082111561162f57634e487b7160e01b600052601160045260246000fd5b509291505056fea264697066735822122037c57021b595fab6bbc95da1fe81067e9d911ba922b203efb24b6e74f690431064736f6c63430008110033",
  "linkReferences": {},
  "deployedLinkReferences": {}
}