{
  "_format": "hh-sol-artifact-1",
  "contractName": "ContractVersionBase",
  "sourceName": "contracts/zora/version/ContractVersionBase.sol",
  "abi": [
    {
      "inputs": [],
      "name": "contractVersion",
      "outputs": [
        {
          "internalType": "string",
          "name": "",
          "type": "string"
        }
      ],
      "stateMutability": "pure",
      "type": "function"
    }
  ],
  "bytecode": "0x608060405234801561001057600080fd5b5060dd8061001f6000396000f3fe6080604052348015600f57600080fd5b506004361060285760003560e01c8063a0a8e46014602d575b600080fd5b6040805180820182526005815264322e372e3360d81b6020820152905160529190605b565b60405180910390f35b600060208083528351808285015260005b81811015608657858101830151858201604001528201606c565b506000604082860101526040601f19601f830116850101925050509291505056fea264697066735822122073d58b2c8864b9237e2b1fbfbb2219e99fc3357205c52442d8bcff9c0356ad6e64736f6c63430008110033",
  "linkReferences": {},
  "deployedLinkReferences": {}
}