{
  "_format": "hh-sol-artifact-1",
  "contractName": "FixedPriceAllowedMintersStrategy",
  "sourceName": "contracts/zora/minters/fixed-price/FixedPriceAllowedMintersStrategy.sol",
  "abi": [
    {
      "inputs": [],
      "name": "CallerNotZoraCreator1155",
      "type": "error"
    },
    {
      "inputs": [
        {
          "internalType": "address",
          "name": "mintTo",
          "type": "address"
        },
        {
          "internalType": "bytes32[]",
          "name": "merkleProof",
          "type": "bytes32[]"
        },
        {
          "internalType": "bytes32",
          "name": "merkleRoot",
          "type": "bytes32"
        }
      ],
      "name": "InvalidMerkleProof",
      "type": "error"
    },
    {
      "inputs": [],
      "name": "MinterContractAlreadyExists",
      "type": "error"
    },
    {
      "inputs": [],
      "name": "MinterContractDoesNotExist",
      "type": "error"
    },
    {
      "inputs": [],
      "name": "ONLY_MINTER",
      "type": "error"
    },
    {
      "inputs": [],
      "name": "SaleEnded",
      "type": "error"
    },
    {
      "inputs": [],
      "name": "SaleHasNotStarted",
      "type": "error"
    },
    {
      "inputs": [
        {
          "internalType": "address",
          "name": "user",
          "type": "address"
        },
        {
          "internalType": "uint256",
          "name": "limit",
          "type": "uint256"
        },
        {
          "internalType": "uint256",
          "name": "requestedAmount",
          "type": "uint256"
        }
      ],
      "name": "UserExceedsMintLimit",
      "type": "error"
    },
    {
      "inputs": [],
      "name": "WrongValueSent",
      "type": "error"
    },
    {
      "anonymous": false,
      "inputs": [
        {
          "indexed": true,
          "internalType": "address",
          "name": "sender",
          "type": "address"
        },
        {
          "indexed": true,
          "internalType": "address",
          "name": "tokenContract",
          "type": "address"
        },
        {
          "indexed": true,
          "internalType": "uint256",
          "name": "tokenId",
          "type": "uint256"
        },
        {
          "indexed": false,
          "internalType": "uint256",
          "name": "quantity",
          "type": "uint256"
        },
        {
          "indexed": false,
          "internalType": "string",
          "name": "comment",
          "type": "string"
        }
      ],
      "name": "MintComment",
      "type": "event"
    },
    {
      "anonymous": false,
      "inputs": [
        {
          "indexed": true,
          "internalType": "address",
          "name": "mediaContract",
          "type": "address"
        },
        {
          "indexed": true,
          "internalType": "uint256",
          "name": "tokenId",
          "type": "uint256"
        },
        {
          "indexed": true,
          "internalType": "address",
          "name": "minter",
          "type": "address"
        },
        {
          "indexed": false,
          "internalType": "bool",
          "name": "allowed",
          "type": "bool"
        }
      ],
      "name": "MinterSet",
      "type": "event"
    },
    {
      "anonymous": false,
      "inputs": [
        {
          "indexed": true,
          "internalType": "address",
          "name": "mediaContract",
          "type": "address"
        },
        {
          "indexed": true,
          "internalType": "uint256",
          "name": "tokenId",
          "type": "uint256"
        },
        {
          "components": [
            {
              "internalType": "uint64",
              "name": "saleStart",
              "type": "uint64"
            },
            {
              "internalType": "uint64",
              "name": "saleEnd",
              "type": "uint64"
            },
            {
              "internalType": "uint64",
              "name": "maxTokensPerAddress",
              "type": "uint64"
            },
            {
              "internalType": "uint96",
              "name": "pricePerToken",
              "type": "uint96"
            },
            {
              "internalType": "address",
              "name": "fundsRecipient",
              "type": "address"
            }
          ],
          "indexed": false,
          "internalType": "struct IFixedPriceAllowedMintersStrategy.SalesConfig",
          "name": "salesConfig",
          "type": "tuple"
        }
      ],
      "name": "SaleSet",
      "type": "event"
    },
    {
      "inputs": [],
      "name": "contractName",
      "outputs": [
        {
          "internalType": "string",
          "name": "",
          "type": "string"
        }
      ],
      "stateMutability": "pure",
      "type": "function"
    },
    {
      "inputs": [],
      "name": "contractURI",
      "outputs": [
        {
          "internalType": "string",
          "name": "",
          "type": "string"
        }
      ],
      "stateMutability": "pure",
      "type": "function"
    },
    {
      "inputs": [],
      "name": "contractVersion",
      "outputs": [
        {
          "internalType": "string",
          "name": "",
          "type": "string"
        }
      ],
      "stateMutability": "pure",
      "type": "function"
    },
    {
      "inputs": [
        {
          "internalType": "address",
          "name": "tokenContract",
          "type": "address"
        },
        {
          "internalType": "uint256",
          "name": "tokenId",
          "type": "uint256"
        },
        {
          "internalType": "address",
          "name": "wallet",
          "type": "address"
        }
      ],
      "name": "getMintedPerWallet",
      "outputs": [
        {
          "internalType": "uint256",
          "name": "",
          "type": "uint256"
        }
      ],
      "stateMutability": "view",
      "type": "function"
    },
    {
      "inputs": [
        {
          "internalType": "address",
          "name": "tokenContract",
          "type": "address"
        },
        {
          "internalType": "uint256",
          "name": "tokenId",
          "type": "uint256"
        },
        {
          "internalType": "address",
          "name": "minter",
          "type": "address"
        }
      ],
      "name": "isMinter",
      "outputs": [
        {
          "internalType": "bool",
          "name": "",
          "type": "bool"
        }
      ],
      "stateMutability": "view",
      "type": "function"
    },
    {
      "inputs": [
        {
          "internalType": "address",
          "name": "mintMsgSender",
          "type": "address"
        },
        {
          "internalType": "uint256",
          "name": "tokenId",
          "type": "uint256"
        },
        {
          "internalType": "uint256",
          "name": "quantity",
          "type": "uint256"
        },
        {
          "internalType": "uint256",
          "name": "ethValueSent",
          "type": "uint256"
        },
        {
          "internalType": "bytes",
          "name": "minterArguments",
          "type": "bytes"
        }
      ],
      "name": "requestMint",
      "outputs": [
        {
          "components": [
            {
              "components": [
                {
                  "internalType": "enum ICreatorCommands.CreatorActions",
                  "name": "method",
                  "type": "uint8"
                },
                {
                  "internalType": "bytes",
                  "name": "args",
                  "type": "bytes"
                }
              ],
              "internalType": "struct ICreatorCommands.Command[]",
              "name": "commands",
              "type": "tuple[]"
            },
            {
              "internalType": "uint256",
              "name": "at",
              "type": "uint256"
            }
          ],
          "internalType": "struct ICreatorCommands.CommandSet",
          "name": "commands",
          "type": "tuple"
        }
      ],
      "stateMutability": "nonpayable",
      "type": "function"
    },
    {
      "inputs": [
        {
          "internalType": "uint256",
          "name": "tokenId",
          "type": "uint256"
        }
      ],
      "name": "resetSale",
      "outputs": [],
      "stateMutability": "nonpayable",
      "type": "function"
    },
    {
      "inputs": [
        {
          "internalType": "address",
          "name": "tokenContract",
          "type": "address"
        },
        {
          "internalType": "uint256",
          "name": "tokenId",
          "type": "uint256"
        }
      ],
      "name": "sale",
      "outputs": [
        {
          "components": [
            {
              "internalType": "uint64",
              "name": "saleStart",
              "type": "uint64"
            },
            {
              "internalType": "uint64",
              "name": "saleEnd",
              "type": "uint64"
            },
            {
              "internalType": "uint64",
              "name": "maxTokensPerAddress",
              "type": "uint64"
            },
            {
              "internalType": "uint96",
              "name": "pricePerToken",
              "type": "uint96"
            },
            {
              "internalType": "address",
              "name": "fundsRecipient",
              "type": "address"
            }
          ],
          "internalType": "struct IFixedPriceAllowedMintersStrategy.SalesConfig",
          "name": "",
          "type": "tuple"
        }
      ],
      "stateMutability": "view",
      "type": "function"
    },
    {
      "inputs": [
        {
          "internalType": "uint256",
          "name": "tokenId",
          "type": "uint256"
        },
        {
          "internalType": "address[]",
          "name": "minters",
          "type": "address[]"
        },
        {
          "internalType": "bool",
          "name": "allowed",
          "type": "bool"
        }
      ],
      "name": "setMinters",
      "outputs": [],
      "stateMutability": "nonpayable",
      "type": "function"
    },
    {
      "inputs": [
        {
          "internalType": "uint256",
          "name": "tokenId",
          "type": "uint256"
        },
        {
          "components": [
            {
              "internalType": "uint64",
              "name": "saleStart",
              "type": "uint64"
            },
            {
              "internalType": "uint64",
              "name": "saleEnd",
              "type": "uint64"
            },
            {
              "internalType": "uint64",
              "name": "maxTokensPerAddress",
              "type": "uint64"
            },
            {
              "internalType": "uint96",
              "name": "pricePerToken",
              "type": "uint96"
            },
            {
              "internalType": "address",
              "name": "fundsRecipient",
              "type": "address"
            }
          ],
          "internalType": "struct IFixedPriceAllowedMintersStrategy.SalesConfig",
          "name": "salesConfig",
          "type": "tuple"
        }
      ],
      "name": "setSale",
      "outputs": [],
      "stateMutability": "nonpayable",
      "type": "function"
    },
    {
      "inputs": [
        {
          "internalType": "bytes4",
          "name": "interfaceId",
          "type": "bytes4"
        }
      ],
      "name": "supportsInterface",
      "outputs": [
        {
          "internalType": "bool",
          "name": "",
          "type": "bool"
        }
      ],
      "stateMutability": "pure",
      "type": "function"
    }
  ],
  "bytecode": "0x608060405234801561001057600080fd5b5061101c806100206000396000f3fe608060405234801561001057600080fd5b50600436106100995760003560e01c806301ffc9a71461009e57806319b45c4f146100c657806334db7eee146100db5780634db99fec146100ee578063611efc09146101015780636890e5b31461021b57806375d0c0dc1461023b5780637b49ff2c14610250578063a0a8e4601461029d578063beb19822146102be578063e8a3d485146102d1575b600080fd5b6100b16100ac36600461091c565b6102d9565b60405190151581526020015b60405180910390f35b6100d96100d436600461094d565b610308565b005b6100d96100e9366004610966565b610377565b6100b16100fc3660046109b6565b6103d4565b6101bf61010f3660046109f8565b6040805160a081018252600080825260208201819052918101829052606081018290526080810191909152506001600160a01b038083166000908152600160208181526040808420868552825292839020835160a08101855281546001600160401b038082168352600160401b8204811694830194909452600160801b9004909216938201939093529101546001600160601b0381166060830152600160601b9004909116608082015292915050565b6040805182516001600160401b0390811682526020808501518216908301528383015116918101919091526060808301516001600160601b0316908201526080918201516001600160a01b03169181019190915260a0016100bd565b61022e610229366004610a24565b610447565b6040516100bd9190610b0a565b61024361063c565b6040516100bd9190610bb0565b61028f61025e3660046109b6565b6001600160a01b03928316600090815260208181526040808320948352938152838220929094168152925290205490565b6040519081526020016100bd565b6040805180820190915260058152640312e302e360dc1b6020820152610243565b6100d96102cc366004610bc3565b61065c565b610243610761565b60006102e482610781565b806102f357506102f382610781565b80610302575061030282610797565b92915050565b336000818152600160208181526040808420868552825280842080546001600160c01b03191681559092018390558151838152908101839052908101829052606081018290526080810191909152829190600080516020610fc78339815191529060a00160405180910390a350565b3360009081526001602090815260408083208584529091529020819061039d8282610c90565b90505081336001600160a01b0316600080516020610fc7833981519152836040516103c89190610d84565b60405180910390a35050565b6001600160a01b038084166000908152600260209081526040808320868452825280832093851683529290529081205460ff168061043f57506001600160a01b03808516600090815260026020908152604080832083805282528083209386168352929052205460ff165b949350505050565b6040805180820190915260608152600060208201526104673387896103d4565b61048457604051638d79db1560e01b815260040160405180910390fd5b6040805160208082019092526000808252918490036104b0576104a984860186610e0e565b91506104c2565b6104bc84860186610e41565b90925090505b3360009081526001602090815260408083208b845290915290208054600160401b90046001600160401b031642111561050e57604051630bd8a3eb60e01b815260040160405180910390fd5b80546001600160401b0316421015610539576040516374626dc160e11b815260040160405180910390fd5b60018101548790610554908a906001600160601b0316610f1a565b1461057257604051632f4613eb60e01b815260040160405180910390fd5b6001810154600160601b90046001600160a01b031615156105a58161059857600161059b565b60025b869060ff166107cd565b6105b185858c8c610832565b8251156106075789336001600160a01b0316856001600160a01b03167fb9490aee663998179ad13f9e1c1eb6189c71ad1a9ec87f33ad2766f98d9a268a8c876040516105fe929190610f31565b60405180910390a45b801561062e57600182015461062e908690600160601b90046001600160a01b03168a6108ab565b505050509695505050505050565b6060604051806060016040528060248152602001610fa360249139905090565b8160005b81811015610759573360009081526002602090815260408083208984529091528120849187878581811061069657610696610f4a565b90506020020160208101906106ab9190610e0e565b6001600160a01b031681526020810191909152604001600020805460ff19169115159190911790558484828181106106e5576106e5610f4a565b90506020020160208101906106fa9190610e0e565b6001600160a01b031686336001600160a01b03167f91a49c77c548e88badc5293608990c6571cf717474188a4b397f745e9396536186604051610741911515815260200190565b60405180910390a461075281610f60565b9050610660565b505050505050565b6060604051806060016040528060298152602001610f7a60299139905090565b6001600160e01b031916631ed27fcb60e21b1490565b60006001600160e01b03198216636890e5b360e01b148061030257506001600160e01b031982166301ffc9a760e01b1492915050565b806001600160401b038111156107e5576107e5610e2b565b60405190808252806020026020018201604052801561082b57816020015b6040805180820190915260008152606060208201528152602001906001900390816108035790505b5090915250565b6040805180820182526002815281516001600160a01b03861660208083019190915292810185905260608101849052909182019060800160408051601f1981840301815291905290528451602086018051600181019091528151811061089a5761089a610f4a565b602002602001018190525050505050565b6040805180820182526001815281516001600160a01b038516602082810191909152928101849052909182019060600160408051601f1981840301815291905290528351602085018051600181019091528151811061090c5761090c610f4a565b6020026020010181905250505050565b60006020828403121561092e57600080fd5b81356001600160e01b03198116811461094657600080fd5b9392505050565b60006020828403121561095f57600080fd5b5035919050565b60008082840360c081121561097a57600080fd5b8335925060a0601f198201121561099057600080fd5b506020830190509250929050565b6001600160a01b03811681146109b357600080fd5b50565b6000806000606084860312156109cb57600080fd5b83356109d68161099e565b92506020840135915060408401356109ed8161099e565b809150509250925092565b60008060408385031215610a0b57600080fd5b8235610a168161099e565b946020939093013593505050565b60008060008060008060a08789031215610a3d57600080fd5b8635610a488161099e565b955060208701359450604087013593506060870135925060808701356001600160401b0380821115610a7957600080fd5b818901915089601f830112610a8d57600080fd5b813581811115610a9c57600080fd5b8a6020828501011115610aae57600080fd5b6020830194508093505050509295509295509295565b6000815180845260005b81811015610aea57602081850181015186830182015201610ace565b506000602082860101526020601f19601f83011685010191505092915050565b600060208083526060830184516040808487015282825180855260808801915060808160051b890101945085840193506000805b82811015610b9957898703607f190184528551805160038110610b6f57634e487b7160e01b84526021600452602484fd5b8852880151888801869052610b8686890182610ac4565b9750509487019492870192600101610b3e565b505050509290950151939091019290925250919050565b6020815260006109466020830184610ac4565b60008060008060608587031215610bd957600080fd5b8435935060208501356001600160401b0380821115610bf757600080fd5b818701915087601f830112610c0b57600080fd5b813581811115610c1a57600080fd5b8860208260051b8501011115610c2f57600080fd5b60208301955080945050505060408501358015158114610c4e57600080fd5b939692955090935050565b6001600160401b03811681146109b357600080fd5b6001600160601b03811681146109b357600080fd5b600081356103028161099e565b8135610c9b81610c59565b81546001600160401b031981166001600160401b039290921691821783556020840135610cc781610c59565b600160401b600160801b03604091821b166001600160801b0319831684178117855590850135610cf681610c59565b6001600160c01b0319929092169092179190911760809190911b600160801b600160c01b0316178155600181016060830135610d3181610c6e565b81546001600160601b0319166001600160601b0391909116178155610d7f610d5b60808501610c83565b8280546001600160601b031660609290921b6001600160601b031916919091179055565b505050565b60a081018235610d9381610c59565b6001600160401b039081168352602084013590610daf82610c59565b9081166020840152604084013590610dc682610c59565b1660408301526060830135610dda81610c6e565b6001600160601b031660608301526080830135610df68161099e565b6001600160a01b031660809290920191909152919050565b600060208284031215610e2057600080fd5b81356109468161099e565b634e487b7160e01b600052604160045260246000fd5b60008060408385031215610e5457600080fd5b8235610e5f8161099e565b915060208301356001600160401b0380821115610e7b57600080fd5b818501915085601f830112610e8f57600080fd5b813581811115610ea157610ea1610e2b565b604051601f8201601f19908116603f01168101908382118183101715610ec957610ec9610e2b565b81604052828152886020848701011115610ee257600080fd5b8260208601602083013760006020848301015280955050505050509250929050565b634e487b7160e01b600052601160045260246000fd5b808202811582820484141761030257610302610f04565b82815260406020820152600061043f6040830184610ac4565b634e487b7160e01b600052603260045260246000fd5b600060018201610f7257610f72610f04565b506001019056fe68747470733a2f2f6769746875622e636f6d2f6f75727a6f72612f7a6f72612d70726f746f636f6c2f466978656420507269636520416c6c6f776564204d696e746572732053747261746567795e4ad74f00b9a9d4a8452359a7fbd80cc5a6930a9df5e5b797ddc024b24b252ca264697066735822122022c572cdf564c1c42c5032f012047bedea55f7afc9b243d6bb390a252c507c9e64736f6c63430008110033",
  "linkReferences": {},
  "deployedLinkReferences": {}
}